{
	"data": {
		"bytecode": {
			"linkReferences": {},
			"object": "60806040523480156200001157600080fd5b506040516200572a3803806200572a833981810160405281019062000037919062001180565b33600460006101000a81548173ffffffffffffffffffffffffffffffffffffffff021916908373ffffffffffffffffffffffffffffffffffffffff16021790555080600581905550600a6006819055506000600281905550620000a082620000a860201b60201c565b505062001755565b6000620000bb826200025d60201b60201c565b90506000620000d482604001516200039260201b60201c565b90506000620000e9826200049c60201b60201c565b905080608001515160078190555082602001516003819055506000600354146200011257600080fd5b60075467ffffffffffffffff811115620001315762000130620016da565b5b6040519080825280602002602001820160405280156200016657816020015b6060815260200190600190039081620001505790505b5060016000600254815260200190815260200160002090805190602001906200019192919062000ebc565b5060005b6007548160ff1610156200022b5781608001518160ff1681518110620001c057620001bf620016ab565b5b60200260200101516001600060025481526020019081526020016000208260ff1681548110620001f557620001f4620016ab565b5b9060005260206000200190805190602001906200021492919062000f23565b5080806200022290620015ef565b91505062000195565b5083600080600354815260200190815260200160002090805190602001906200025692919062000f23565b5050505050565b6200026762000fb4565b60006200029462000283846200084260201b62001abf1760201c565b6200087260201b62001aed1760201c565b9050600081600181518110620002af57620002ae620016ab565b5b60200260200101519050600082600681518110620002d257620002d1620016ab565b5b60200260200101519050600083600a81518110620002f557620002f4620016ab565b5b602002602001015190506200031583620009ba60201b62001c021760201c565b856000019073ffffffffffffffffffffffffffffffffffffffff16908173ffffffffffffffffffffffffffffffffffffffff16815250506200036282620009e660201b62001c251760201c565b856020018181525050620003818162000a4b60201b62001c7f1760201c565b856040018190525050505050919050565b606060208251620003a4919062001472565b67ffffffffffffffff811115620003c057620003bf620016da565b5b6040519080825280601f01601f191660200182016040528015620003f35781602001600182028036833780820191505090505b509050600080602090505b835181101562000495578381815181106200041e576200041d620016ab565b5b602001015160f81c60f81b8383815181106200043f576200043e620016ab565b5b60200101907effffffffffffffffffffffffffffffffffffffffffffffffffffffffffffff1916908160001a9053506001826200047d919062001245565b915080806200048c90620015a1565b915050620003fe565b5050919050565b620004a662000feb565b6000620004d3620004c2846200084260201b62001abf1760201c565b6200087260201b62001aed1760201c565b9050600081600181518110620004ee57620004ed620016ab565b5b60200260200101519050600082600281518110620005115762000510620016ab565b5b60200260200101519050600083600381518110620005345762000533620016ab565b5b60200260200101519050600084600481518110620005575762000556620016ab565b5b602002602001015190506000856005815181106200057a5762000579620016ab565b5b60200260200101519050606285600001511115620006a4576000606260028760000151620005a9919062001472565b620005b59190620012a2565b90508067ffffffffffffffff811115620005d457620005d3620016da565b5b6040519080825280602002602001820160405280156200060957816020015b6060815260200190600190039081620005f35790505b50886080018190525060005b81811015620006a1576200066662000638886200087260201b62001aed1760201c565b82815181106200064d576200064c620016ab565b5b602002602001015162000a4b60201b62001c7f1760201c565b8960800151828151811062000680576200067f620016ab565b5b602002602001018190525080806200069890620015a1565b91505062000615565b50505b620006ba84620009e660201b62001c251760201c565b876060018181525050620006d98362000a4b60201b62001c7f1760201c565b87600001819052506200072a620006fb836200087260201b62001aed1760201c565b600181518110620007115762000710620016ab565b5b602002602001015162000a4b60201b62001c7f1760201c565b8760200151600001819052506200077f62000750836200087260201b62001aed1760201c565b600081518110620007665762000765620016ab565b5b6020026020010151620009e660201b62001c251760201c565b87602001516020018181525050620007d5620007a6826200087260201b62001aed1760201c565b600181518110620007bc57620007bb620016ab565b5b602002602001015162000a4b60201b62001c7f1760201c565b8760400151600001819052506200082a620007fb826200087260201b62001aed1760201c565b600081518110620008115762000810620016ab565b5b6020026020010151620009e660201b62001c251760201c565b87604001516020018181525050505050505050919050565b6200084c6200102a565b600060208301905060405180604001604052808451815260200182815250915050919050565b6060620008858262000af360201b60201c565b6200088f57600080fd5b6000620008a28362000b4560201b60201c565b905060008167ffffffffffffffff811115620008c357620008c2620016da565b5b6040519080825280602002602001820160405280156200090057816020015b620008ec6200102a565b815260200190600190039081620008e25790505b50905060006200091a856020015162000bef60201b60201c565b85602001516200092b919062001245565b9050600080600090505b84811015620009ad576200094f8362000cc260201b60201c565b91506040518060400160405280838152602001848152508482815181106200097c576200097b620016ab565b5b6020026020010181905250818362000995919062001245565b92508080620009a490620015a1565b91505062000935565b5082945050505050919050565b60006015826000015114620009ce57600080fd5b620009df82620009e660201b60201c565b9050919050565b600080826000015111801562000a0157506021826000015111155b62000a0b57600080fd5b60008062000a1f8462000dae60201b60201c565b91509150600082519050602082101562000a4057816020036101000a810490505b809350505050919050565b6060600082600001511162000a5f57600080fd5b60008062000a738462000dae60201b60201c565b9150915060008167ffffffffffffffff81111562000a965762000a95620016da565b5b6040519080825280601f01601f19166020018201604052801562000ac95781602001600182028036833780820191505090505b509050600081602001905062000ae784828562000e0460201b60201c565b81945050505050919050565b6000808260000151141562000b0c576000905062000b40565b60008083602001519050805160001a915060c060ff168260ff16101562000b395760009250505062000b40565b6001925050505b919050565b6000808260000151141562000b5e576000905062000bea565b60008062000b76846020015162000bef60201b60201c565b846020015162000b87919062001245565b905060008460000151856020015162000ba1919062001245565b90505b8082101562000be35762000bbe8262000cc260201b60201c565b8262000bcb919062001245565b9150828062000bda90620015a1565b93505062000ba4565b8293505050505b919050565b600080825160001a9050608060ff1681101562000c1157600091505062000cbd565b60b860ff1681108062000c38575060c060ff16811015801562000c37575060f860ff1681105b5b1562000c4957600191505062000cbd565b60c060ff1681101562000c8c5760018060b862000c679190620014ad565b60ff168262000c77919062001472565b62000c83919062001245565b91505062000cbd565b60018060f862000c9d9190620014ad565b60ff168262000cad919062001472565b62000cb9919062001245565b9150505b919050565b6000806000835160001a9050608060ff1681101562000ce5576001915062000da4565b60b860ff1681101562000d1a576001608060ff168262000d06919062001472565b62000d12919062001245565b915062000da3565b60c060ff1681101562000d4c5760b78103600185019450806020036101000a8551046001820181019350505062000da2565b60f860ff1681101562000d8157600160c060ff168262000d6d919062001472565b62000d79919062001245565b915062000da1565b60f78103600185019450806020036101000a855104600182018101935050505b5b5b5b8192505050919050565b600080600062000dc8846020015162000bef60201b60201c565b9050600081856020015162000dde919062001245565b9050600082866000015162000df4919062001472565b9050818194509450505050915091565b600081141562000e145762000eb7565b5b602060ff16811062000e675782518252602060ff168362000e37919062001245565b9250602060ff168262000e4b919062001245565b9150602060ff168162000e5f919062001472565b905062000e15565b600081111562000eb6576000600182602060ff1662000e87919062001472565b61010062000e96919062001335565b62000ea2919062001472565b905080198451168184511681811785525050505b5b505050565b82805482825590600052602060002090810192821562000f10579160200282015b8281111562000f0f57825182908051906020019062000efe92919062000f23565b509160200191906001019062000edd565b5b50905062000f1f919062001044565b5090565b82805462000f319062001535565b90600052602060002090601f01602090048101928262000f55576000855562000fa1565b82601f1062000f7057805160ff191683800117855562000fa1565b8280016001018555821562000fa1579182015b8281111562000fa057825182559160200191906001019062000f83565b5b50905062000fb091906200106c565b5090565b6040518060600160405280600073ffffffffffffffffffffffffffffffffffffffff16815260200160008152602001606081525090565b6040518060a0016040528060608152602001620010076200108b565b8152602001620010166200108b565b815260200160008152602001606081525090565b604051806040016040528060008152602001600081525090565b5b808211156200106857600081816200105e9190620010a5565b5060010162001045565b5090565b5b80821115620010875760008160009055506001016200106d565b5090565b604051806040016040528060608152602001600081525090565b508054620010b39062001535565b6000825580601f10620010c75750620010e8565b601f016020900490600052602060002090810190620010e791906200106c565b5b50565b600062001102620010fc846200120f565b620011e6565b9050828152602081018484840111156200112157620011206200170e565b5b6200112e848285620014ff565b509392505050565b600082601f8301126200114e576200114d62001709565b5b815162001160848260208601620010eb565b91505092915050565b6000815190506200117a816200173b565b92915050565b600080604083850312156200119a576200119962001718565b5b600083015167ffffffffffffffff811115620011bb57620011ba62001713565b5b620011c98582860162001136565b9250506020620011dc8582860162001169565b9150509250929050565b6000620011f262001205565b90506200120082826200156b565b919050565b6000604051905090565b600067ffffffffffffffff8211156200122d576200122c620016da565b5b62001238826200171d565b9050602081019050919050565b60006200125282620014e8565b91506200125f83620014e8565b9250827fffffffffffffffffffffffffffffffffffffffffffffffffffffffffffffffff038211156200129757620012966200161e565b5b828201905092915050565b6000620012af82620014e8565b9150620012bc83620014e8565b925082620012cf57620012ce6200164d565b5b828204905092915050565b6000808291508390505b60018511156200132c578086048111156200130457620013036200161e565b5b6001851615620013145780820291505b808102905062001324856200172e565b9450620012e4565b94509492505050565b60006200134282620014e8565b91506200134f83620014e8565b92506200137e7fffffffffffffffffffffffffffffffffffffffffffffffffffffffffffffffff848462001386565b905092915050565b6000826200139857600190506200146b565b81620013a857600090506200146b565b8160018114620013c15760028114620013cc5762001402565b60019150506200146b565b60ff841115620013e157620013e06200161e565b5b8360020a915084821115620013fb57620013fa6200161e565b5b506200146b565b5060208310610133831016604e8410600b84101617156200143c5782820a9050838111156200143657620014356200161e565b5b6200146b565b6200144b8484846001620012da565b925090508184048111156200146557620014646200161e565b5b81810290505b9392505050565b60006200147f82620014e8565b91506200148c83620014e8565b925082821015620014a257620014a16200161e565b5b828203905092915050565b6000620014ba82620014f2565b9150620014c783620014f2565b925082821015620014dd57620014dc6200161e565b5b828203905092915050565b6000819050919050565b600060ff82169050919050565b60005b838110156200151f57808201518184015260208101905062001502565b838111156200152f576000848401525b50505050565b600060028204905060018216806200154e57607f821691505b602082108114156200156557620015646200167c565b5b50919050565b62001576826200171d565b810181811067ffffffffffffffff82111715620015985762001597620016da565b5b80604052505050565b6000620015ae82620014e8565b91507fffffffffffffffffffffffffffffffffffffffffffffffffffffffffffffffff821415620015e457620015e36200161e565b5b600182019050919050565b6000620015fc82620014f2565b915060ff8214156200161357620016126200161e565b5b600182019050919050565b7f4e487b7100000000000000000000000000000000000000000000000000000000600052601160045260246000fd5b7f4e487b7100000000000000000000000000000000000000000000000000000000600052601260045260246000fd5b7f4e487b7100000000000000000000000000000000000000000000000000000000600052602260045260246000fd5b7f4e487b7100000000000000000000000000000000000000000000000000000000600052603260045260246000fd5b7f4e487b7100000000000000000000000000000000000000000000000000000000600052604160045260246000fd5b600080fd5b600080fd5b600080fd5b600080fd5b6000601f19601f8301169050919050565b60008160011c9050919050565b6200174681620014e8565b81146200175257600080fd5b50565b613fc580620017656000396000f3fe608060405234801561001057600080fd5b50600436106100ea5760003560e01c80635ef271c61161008c578063bba8c1ba11610066578063bba8c1ba146102ad578063d872852e146102de578063f219acbf1461030e578063f96b45c71461032a576100ea565b80635ef271c61461022c57806370fbf2c41461025c5780639ac952371461027d576100ea565b80632b0b6324116100c85780632b0b6324146101805780632f315f9e146101b057806338eb059e146101e0578063402c5c09146101fc576100ea565b80630647a0d3146100ef57806308eb6fc61461011f5780630b1dd55e1461014f575b600080fd5b61010960048036038101906101049190612c4b565b61035a565b60405161011691906133ca565b60405180910390f35b61013960048036038101906101349190612c4b565b61090f565b604051610146919061336a565b60405180910390f35b61016960048036038101906101649190612abf565b610af0565b6040516101779291906135eb565b60405180910390f35b61019a60048036038101906101959190612d32565b610b9e565b6040516101a791906133ca565b60405180910390f35b6101ca60048036038101906101c59190612b93565b610c42565b6040516101d791906135a7565b60405180910390f35b6101fa60048036038101906101f59190612b37565b610d2b565b005b61021660048036038101906102119190612cc3565b610f3b565b60405161022391906133ca565b60405180910390f35b61024660048036038101906102419190612b93565b611183565b60405161025391906135c9565b60405180910390f35b610264611442565b6040516102749493929190613614565b60405180910390f35b61029760048036038101906102929190612d5f565b611462565b6040516102a49190613318565b60405180910390f35b6102c760048036038101906102c29190612d32565b611670565b6040516102d592919061333a565b60405180910390f35b6102f860048036038101906102f39190612d32565b611852565b6040516103059190613318565b60405180910390f35b61032860048036038101906103239190612dbb565b61193e565b005b610344600480360381019061033f9190612bdc565b611a12565b604051610351919061336a565b60405180910390f35b606061ffff8351106103a1576040517f08c379a00000000000000000000000000000000000000000000000000000000081526004016103989061340c565b60405180910390fd5b81518351116103e5576040517f08c379a00000000000000000000000000000000000000000000000000000000081526004016103dc906133ec565b60405180910390fd5b6000600283516103f59190613a30565b905060008080600184885161040a9190613a30565b61041491906137a7565b90506101018111156105b7578067ffffffffffffffff81111561043a57610439613ce4565b5b6040519080825280601f01601f19166020018201604052801561046c5781602001600182028036833780820191505090505b50945060f960f81b85848151811061048757610486613cb5565b5b60200101907effffffffffffffffffffffffffffffffffffffffffffffffffffffffffffff1916908160001a90535082806104c190613bae565b9350506003816104d19190613a30565b60f01b6000600281106104e7576104e6613cb5565b5b1a60f81b8584815181106104fe576104fd613cb5565b5b60200101907effffffffffffffffffffffffffffffffffffffffffffffffffffffffffffff1916908160001a905350828061053890613bae565b9350506003816105489190613a30565b60f01b60016002811061055e5761055d613cb5565b5b1a60f81b85848151811061057557610574613cb5565b5b60200101907effffffffffffffffffffffffffffffffffffffffffffffffffffffffffffff1916908160001a90535082806105af90613bae565b9350506106c7565b6001816105c49190613a30565b67ffffffffffffffff8111156105dd576105dc613ce4565b5b6040519080825280601f01601f19166020018201604052801561060f5781602001600182028036833780820191505090505b50945060f8801b85848151811061062957610628613cb5565b5b60200101907effffffffffffffffffffffffffffffffffffffffffffffffffffffffffffff1916908160001a905350828061066390613bae565b9350506002816106739190613a30565b60f81b85848151811061068957610688613cb5565b5b60200101907effffffffffffffffffffffffffffffffffffffffffffffffffffffffffffff1916908160001a90535082806106c390613bae565b9350505b60005b87518110156107e05760005b858110156107cc57885181836106ec91906137a7565b141561070057889650505050505050610909565b8760028261070e91906137a7565b8151811061071f5761071e613cb5565b5b602001015160f81c60f81b7effffffffffffffffffffffffffffffffffffffffffffffffffffffffffffff191689828461075991906137a7565b8151811061076a57610769613cb5565b5b602001015160f81c60f81b7effffffffffffffffffffffffffffffffffffffffffffffffffffffffffffff1916146107a1576107cc565b6001866107ae9190613a30565b8114156107b9578193505b80806107c490613bae565b9150506106d6565b5080806107d890613bae565b9150506106ca565b506000610101885111156107f757600390506107fc565b600290505b5b8751811015610903578281141561086457608060f81b86828151811061082657610825613cb5565b5b60200101907effffffffffffffffffffffffffffffffffffffffffffffffffffffffffffff1916908160001a905350838061086090613bae565b9450505b8281108061087c5750848361087991906137a7565b81115b156108f05787818151811061089457610893613cb5565b5b602001015160f81c60f81b8685815181106108b2576108b1613cb5565b5b60200101907effffffffffffffffffffffffffffffffffffffffffffffffffffffffffffff1916908160001a90535083806108ec90613bae565b9450505b80806108fb90613bae565b9150506107fd565b50505050505b92915050565b60008060019050600061092185610c42565b905060006109328260400151611d12565b9050600061093f82611183565b90506000866040516020016109549190613301565b60405160208183030381529060405280519060200120905061097f8260000151828660000151611a12565b94506000151585151514156109c9576040517f08c379a00000000000000000000000000000000000000000000000000000000081526004016109c09061345a565b60405180910390fd5b7fc3b556354c088fbb43886eb83c2a04bc7089663f964d22be308197a236f5b87060016040516109f99190613559565b60405180910390a160006005548560200151610a159190613bf7565b1415610a6b57610a2d82606001518360800151611462565b507fc3b556354c088fbb43886eb83c2a04bc7089663f964d22be308197a236f5b8706001604051610a5e919061352b565b60405180910390a1610a6c565b5b6001600354610a7b91906137a7565b6003819055508760008060035481526020019081526020016000209080519060200190610aa9929190612732565b507fc3b556354c088fbb43886eb83c2a04bc7089663f964d22be308197a236f5b8706001604051610ada91906134af565b60405180910390a1849550505050505092915050565b6000808351835114610b0157600080fd5b825160065411610b1057600080fd5b60005b8451811015610b8d576000610b5c868381518110610b3457610b33613cb5565b5b6020026020010151868481518110610b4f57610b4e613cb5565b5b602002602001015161090f565b9050600015158115151415610b7957816000935093505050610b97565b508080610b8590613bae565b915050610b13565b5083516001915091505b9250929050565b60606000808381526020019081526020016000208054610bbd90613b4b565b80601f0160208091040260200160405190810160405280929190818152602001828054610be990613b4b565b8015610c365780601f10610c0b57610100808354040283529160200191610c36565b820191906000526020600020905b815481529060010190602001808311610c1957829003601f168201915b50505050509050919050565b610c4a6127b8565b6000610c5d610c5884611abf565b611aed565b9050600081600181518110610c7557610c74613cb5565b5b60200260200101519050600082600681518110610c9557610c94613cb5565b5b60200260200101519050600083600a81518110610cb557610cb4613cb5565b5b60200260200101519050610cc883611c02565b856000019073ffffffffffffffffffffffffffffffffffffffff16908173ffffffffffffffffffffffffffffffffffffffff1681525050610d0882611c25565b856020018181525050610d1a81611c7f565b856040018190525050505050919050565b600460009054906101000a900473ffffffffffffffffffffffffffffffffffffffff1673ffffffffffffffffffffffffffffffffffffffff163373ffffffffffffffffffffffffffffffffffffffff1614610dbb576040517f08c379a0000000000000000000000000000000000000000000000000000000008152600401610db29061350b565b60405180910390fd5b7f7e35a8edae38b8a190422ee5a99aac1f0c00b995a42eb279c0099a723b1452f681604051610dea91906134dd565b60405180910390a1815167ffffffffffffffff811115610e0d57610e0c613ce4565b5b604051908082528060200260200182016040528015610e4057816020015b6060815260200190600190039081610e2b5790505b50600160008381526020019081526020016000209080519060200190610e679291906127ef565b5060005b8251811015610f36577f944698551c4702c21c8eaa8ade89fc5ffb01b0038278d66ffee40ad677bb970d838281518110610ea857610ea7613cb5565b5b6020026020010151604051610ebd919061347a565b60405180910390a1828181518110610ed857610ed7613cb5565b5b6020026020010151600160008481526020019081526020016000208281548110610f0557610f04613cb5565b5b906000526020600020019080519060200190610f22929190612732565b508080610f2e90613bae565b915050610e6b565b505050565b60606000610f4884611e0a565b90506000610f5586611e24565b90506000610f6285611e0a565b90506000815183518551610f7691906137a7565b610f8091906137a7565b67ffffffffffffffff811115610f9957610f98613ce4565b5b6040519080825280601f01601f191660200182016040528015610fcb5781602001600182028036833780820191505090505b50945060005b845181101561105b57848181518110610fed57610fec613cb5565b5b602001015160f81c60f81b86838151811061100b5761100a613cb5565b5b60200101907effffffffffffffffffffffffffffffffffffffffffffffffffffffffffffff1916908160001a905350818061104590613bae565b925050808061105390613bae565b915050610fd1565b5060005b83518110156110e95783818151811061107b5761107a613cb5565b5b602001015160f81c60f81b86838151811061109957611098613cb5565b5b60200101907effffffffffffffffffffffffffffffffffffffffffffffffffffffffffffff1916908160001a90535081806110d390613bae565b92505080806110e190613bae565b91505061105f565b5060005b82518110156111775782818151811061110957611108613cb5565b5b602001015160f81c60f81b86838151811061112757611126613cb5565b5b60200101907effffffffffffffffffffffffffffffffffffffffffffffffffffffffffffff1916908160001a905350818061116190613bae565b925050808061116f90613bae565b9150506110ed565b50505050509392505050565b61118b61284f565b600061119e61119984611abf565b611aed565b90506000816001815181106111b6576111b5613cb5565b5b602002602001015190506000826002815181106111d6576111d5613cb5565b5b602002602001015190506000836003815181106111f6576111f5613cb5565b5b6020026020010151905060008460048151811061121657611215613cb5565b5b6020026020010151905060008560058151811061123657611235613cb5565b5b602002602001015190506062856000015111156113325760006062600287600001516112629190613a30565b61126c9190613834565b90508067ffffffffffffffff81111561128857611287613ce4565b5b6040519080825280602002602001820160405280156112bb57816020015b60608152602001906001900390816112a65790505b50886080018190525060005b8181101561132f576112fa6112db88611aed565b82815181106112ed576112ec613cb5565b5b6020026020010151611c7f565b8960800151828151811061131157611310613cb5565b5b6020026020010181905250808061132790613bae565b9150506112c7565b50505b61133b84611c25565b87606001818152505061134d83611c7f565b876000018190525061138161136183611aed565b60018151811061137457611373613cb5565b5b6020026020010151611c7f565b8760200151600001819052506113b961139983611aed565b6000815181106113ac576113ab613cb5565b5b6020026020010151611c25565b876020015160200181815250506113f26113d282611aed565b6001815181106113e5576113e4613cb5565b5b6020026020010151611c7f565b87604001516000018190525061142a61140a82611aed565b60008151811061141d5761141c613cb5565b5b6020026020010151611c25565b87604001516020018181525050505050505050919050565b600080600080600654600254600354600754935093509350935090919293565b606060008061147085611670565b9150915083518160ff1661148491906137a7565b67ffffffffffffffff81111561149d5761149c613ce4565b5b6040519080825280602002602001820160405280156114d057816020015b60608152602001906001900390816114bb5790505b5092506000805b83518110156115fe5760008482815181106114f5576114f4613cb5565b5b602002602001015114156115eb57600160006002548152602001908152602001600020818154811061152a57611529613cb5565b5b90600052602060002001805461153f90613b4b565b80601f016020809104026020016040519081016040528092919081815260200182805461156b90613b4b565b80156115b85780601f1061158d576101008083540402835291602001916115b8565b820191906000526020600020905b81548152906001019060200180831161159b57829003601f168201915b50505050508583815181106115d0576115cf613cb5565b5b60200260200101819052506001826115e891906137a7565b91505b80806115f690613bae565b9150506114d7565b5060005b85518110156116665785818151811061161e5761161d613cb5565b5b602002602001015185838151811061163957611638613cb5565b5b602002602001018190525060018261165191906137a7565b9150808061165e90613bae565b915050611602565b5050505092915050565b6060600060075467ffffffffffffffff8111156116905761168f613ce4565b5b6040519080825280602002602001820160405280156116be5781602001602082028036833780820191505090505b50915060005b60008411156117765760016002856116dc9190613bf7565b14156117235760026001856116f19190613a30565b6116fb9190613834565b9350600183828151811061171257611711613cb5565b5b602002602001018181525050611763565b6002846117309190613834565b9350600083828151811061174757611746613cb5565b5b60200260200101818152505060018261176091906137fd565b91505b808061176e90613bae565b9150506116c4565b5060005b600283516117889190613834565b81101561184c5760008382815181106117a4576117a3613cb5565b5b602002602001015190508382600186516117be9190613a30565b6117c89190613a30565b815181106117d9576117d8613cb5565b5b60200260200101518483815181106117f4576117f3613cb5565b5b602002602001018181525050808483600187516118119190613a30565b61181b9190613a30565b8151811061182c5761182b613cb5565b5b60200260200101818152505050808061184490613bae565b91505061177a565b50915091565b606060016000838152602001908152602001600020805480602002602001604051908101604052809291908181526020016000905b828210156119335783829060005260206000200180546118a690613b4b565b80601f01602080910402602001604051908101604052809291908181526020018280546118d290613b4b565b801561191f5780601f106118f45761010080835404028352916020019161191f565b820191906000526020600020905b81548152906001019060200180831161190257829003601f168201915b505050505081526020019060010190611887565b505050509050919050565b600460009054906101000a900473ffffffffffffffffffffffffffffffffffffffff1673ffffffffffffffffffffffffffffffffffffffff163373ffffffffffffffffffffffffffffffffffffffff16146119ce576040517f08c379a00000000000000000000000000000000000000000000000000000000081526004016119c59061350b565b60405180910390fd5b7f7e35a8edae38b8a190422ee5a99aac1f0c00b995a42eb279c0099a723b1452f6816040516119fd919061342c565b60405180910390a18060ff1660068190555050565b600080600080611a2187611e8b565b925092509250601b81611a3491906137fd565b905060018682858560405160008152602001604052604051611a599493929190613385565b6020604051602081039080840390855afa158015611a7b573d6000803e3d6000fd5b5050506020604051035173ffffffffffffffffffffffffffffffffffffffff168573ffffffffffffffffffffffffffffffffffffffff161493505050509392505050565b611ac761288a565b600060208301905060405180604001604052808451815260200182815250915050919050565b6060611af882611ef3565b611b0157600080fd5b6000611b0c83611f41565b905060008167ffffffffffffffff811115611b2a57611b29613ce4565b5b604051908082528060200260200182016040528015611b6357816020015b611b5061288a565b815260200190600190039081611b485790505b5090506000611b758560200151611fcf565b8560200151611b8491906137a7565b9050600080600090505b84811015611bf557611b9f8361208e565b9150604051806040016040528083815260200184815250848281518110611bc957611bc8613cb5565b5b60200260200101819052508183611be091906137a7565b92508080611bed90613bae565b915050611b8e565b5082945050505050919050565b60006015826000015114611c1557600080fd5b611c1e82611c25565b9050919050565b6000808260000151118015611c3f57506021826000015111155b611c4857600080fd5b600080611c548461216a565b915091506000825190506020821015611c7457816020036101000a810490505b809350505050919050565b60606000826000015111611c9257600080fd5b600080611c9e8461216a565b9150915060008167ffffffffffffffff811115611cbe57611cbd613ce4565b5b6040519080825280601f01601f191660200182016040528015611cf05781602001600182028036833780820191505090505b5090506000816020019050611d068482856121b4565b81945050505050919050565b606060208251611d229190613a30565b67ffffffffffffffff811115611d3b57611d3a613ce4565b5b6040519080825280601f01601f191660200182016040528015611d6d5781602001600182028036833780820191505090505b509050600080602090505b8351811015611e0357838181518110611d9457611d93613cb5565b5b602001015160f81c60f81b838381518110611db257611db1613cb5565b5b60200101907effffffffffffffffffffffffffffffffffffffffffffffffffffffffffffff1916908160001a905350600182611dee91906137a7565b91508080611dfb90613bae565b915050611d78565b5050919050565b6060611e1d611e188361225b565b611e24565b9050919050565b60608060018351148015611e5d5750608083600081518110611e4957611e48613cb5565b5b602001015160f81c60f81b60f81c60ff1611155b15611e6a57829050611e82565b611e7f611e7984516080612417565b846126a8565b90505b80915050919050565b60008060006041845114611ed4576040517f08c379a0000000000000000000000000000000000000000000000000000000008152600401611ecb90613587565b60405180910390fd5b6020840151925060408401519150606084015160001a90509193909250565b60008082600001511415611f0a5760009050611f3c565b60008083602001519050805160001a915060c060ff168260ff161015611f3557600092505050611f3c565b6001925050505b919050565b60008082600001511415611f585760009050611fca565b600080611f688460200151611fcf565b8460200151611f7791906137a7565b9050600084600001518560200151611f8f91906137a7565b90505b80821015611fc357611fa38261208e565b82611fae91906137a7565b91508280611fbb90613bae565b935050611f92565b8293505050505b919050565b600080825160001a9050608060ff16811015611fef576000915050612089565b60b860ff16811080612014575060c060ff168110158015612013575060f860ff1681105b5b15612023576001915050612089565b60c060ff1681101561205e5760018060b861203e9190613a64565b60ff168261204c9190613a30565b61205691906137a7565b915050612089565b60018060f861206d9190613a64565b60ff168261207b9190613a30565b61208591906137a7565b9150505b919050565b6000806000835160001a9050608060ff168110156120af5760019150612160565b60b860ff168110156120de576001608060ff16826120cd9190613a30565b6120d791906137a7565b915061215f565b60c060ff1681101561210e5760b78103600185019450806020036101000a8551046001820181019350505061215e565b60f860ff1681101561213d57600160c060ff168261212c9190613a30565b61213691906137a7565b915061215d565b60f78103600185019450806020036101000a855104600182018101935050505b5b5b5b8192505050919050565b600080600061217c8460200151611fcf565b9050600081856020015161219091906137a7565b905060008286600001516121a49190613a30565b9050818194509450505050915091565b60008114156121c257612256565b5b602060ff16811061220d5782518252602060ff16836121e291906137a7565b9250602060ff16826121f491906137a7565b9150602060ff16816122069190613a30565b90506121c3565b6000811115612255576000600182602060ff1661222a9190613a30565b61010061223791906138b8565b6122419190613a30565b905080198451168184511681811785525050505b5b505050565b60606000602067ffffffffffffffff81111561227a57612279613ce4565b5b6040519080825280601f01601f1916602001820160405280156122ac5781602001600182028036833780820191505090505b50905082602082015260005b602081101561232357600060f81b8282815181106122d9576122d8613cb5565b5b602001015160f81c60f81b7effffffffffffffffffffffffffffffffffffffffffffffffffffffffffffff19161461231057612323565b808061231b90613bae565b9150506122b8565b60008160206123329190613a30565b67ffffffffffffffff81111561234b5761234a613ce4565b5b6040519080825280601f01601f19166020018201604052801561237d5781602001600182028036833780820191505090505b50905060005b815181101561240b5783838061239890613bae565b9450815181106123ab576123aa613cb5565b5b602001015160f81c60f81b8282815181106123c9576123c8613cb5565b5b60200101907effffffffffffffffffffffffffffffffffffffffffffffffffffffffffffff1916908160001a905350808061240390613bae565b915050612383565b50809350505050919050565b60608060388410156124e157600167ffffffffffffffff81111561243e5761243d613ce4565b5b6040519080825280601f01601f1916602001820160405280156124705781602001600182028036833780820191505090505b509050828461247f91906137a7565b60001b601f6020811061249557612494613cb5565b5b1a60f81b816000815181106124ad576124ac613cb5565b5b60200101907effffffffffffffffffffffffffffffffffffffffffffffffffffffffffffff1916908160001a90535061269e565b600080600190505b600081876124f79190613834565b1461251f57818061250790613bae565b9250506101008161251891906139d6565b90506124e9565b60018261252c91906137a7565b67ffffffffffffffff81111561254557612544613ce4565b5b6040519080825280601f01601f1916602001820160405280156125775781602001600182028036833780820191505090505b5092506037858361258891906137a7565b61259291906137a7565b60001b601f602081106125a8576125a7613cb5565b5b1a60f81b836000815181106125c0576125bf613cb5565b5b60200101907effffffffffffffffffffffffffffffffffffffffffffffffffffffffffffff1916908160001a905350600190505b81811161269b57610100818361260a9190613a30565b61010061261791906138b8565b876126229190613834565b61262c9190613bf7565b60001b601f6020811061264257612641613cb5565b5b1a60f81b83828151811061265957612658613cb5565b5b60200101907effffffffffffffffffffffffffffffffffffffffffffffffffffffffffffff1916908160001a905350808061269390613bae565b9150506125f4565b50505b8091505092915050565b6060806040519050835180825260208201818101602087015b818310156126de57805183526020830192506020810190506126c1565b50855192508351830184528091508282019050602086015b8183101561271357805183526020830192506020810190506126f6565b50601f19601f8851850115830101166040525050508091505092915050565b82805461273e90613b4b565b90600052602060002090601f01602090048101928261276057600085556127a7565b82601f1061277957805160ff19168380011785556127a7565b828001600101855582156127a7579182015b828111156127a657825182559160200191906001019061278b565b5b5090506127b491906128a4565b5090565b6040518060600160405280600073ffffffffffffffffffffffffffffffffffffffff16815260200160008152602001606081525090565b82805482825590600052602060002090810192821561283e579160200282015b8281111561283d57825182908051906020019061282d929190612732565b509160200191906001019061280f565b5b50905061284b91906128c1565b5090565b6040518060a00160405280606081526020016128696128e5565b81526020016128766128e5565b815260200160008152602001606081525090565b604051806040016040528060008152602001600081525090565b5b808211156128bd5760008160009055506001016128a5565b5090565b5b808211156128e157600081816128d891906128ff565b506001016128c2565b5090565b604051806040016040528060608152602001600081525090565b50805461290b90613b4b565b6000825580601f1061291d575061293c565b601f01602090049060005260206000209081019061293b91906128a4565b5b50565b600061295261294d8461367e565b613659565b9050808382526020820190508285602086028201111561297557612974613d18565b5b60005b858110156129c357813567ffffffffffffffff81111561299b5761299a613d13565b5b8086016129a88982612a67565b85526020850194506020840193505050600181019050612978565b5050509392505050565b60006129e06129db846136aa565b613659565b9050828152602081018484840111156129fc576129fb613d1d565b5b612a07848285613b09565b509392505050565b600081359050612a1e81613f33565b92915050565b600082601f830112612a3957612a38613d13565b5b8135612a4984826020860161293f565b91505092915050565b600081359050612a6181613f4a565b92915050565b600082601f830112612a7c57612a7b613d13565b5b8135612a8c8482602086016129cd565b91505092915050565b600081359050612aa481613f61565b92915050565b600081359050612ab981613f78565b92915050565b60008060408385031215612ad657612ad5613d27565b5b600083013567ffffffffffffffff811115612af457612af3613d22565b5b612b0085828601612a24565b925050602083013567ffffffffffffffff811115612b2157612b20613d22565b5b612b2d85828601612a24565b9150509250929050565b60008060408385031215612b4e57612b4d613d27565b5b600083013567ffffffffffffffff811115612b6c57612b6b613d22565b5b612b7885828601612a24565b9250506020612b8985828601612a95565b9150509250929050565b600060208284031215612ba957612ba8613d27565b5b600082013567ffffffffffffffff811115612bc757612bc6613d22565b5b612bd384828501612a67565b91505092915050565b600080600060608486031215612bf557612bf4613d27565b5b600084013567ffffffffffffffff811115612c1357612c12613d22565b5b612c1f86828701612a67565b9350506020612c3086828701612a52565b9250506040612c4186828701612a0f565b9150509250925092565b60008060408385031215612c6257612c61613d27565b5b600083013567ffffffffffffffff811115612c8057612c7f613d22565b5b612c8c85828601612a67565b925050602083013567ffffffffffffffff811115612cad57612cac613d22565b5b612cb985828601612a67565b9150509250929050565b600080600060608486031215612cdc57612cdb613d27565b5b600084013567ffffffffffffffff811115612cfa57612cf9613d22565b5b612d0686828701612a67565b9350506020612d1786828701612a95565b9250506040612d2886828701612a95565b9150509250925092565b600060208284031215612d4857612d47613d27565b5b6000612d5684828501612a95565b91505092915050565b60008060408385031215612d7657612d75613d27565b5b6000612d8485828601612a95565b925050602083013567ffffffffffffffff811115612da557612da4613d22565b5b612db185828601612a24565b9150509250929050565b600060208284031215612dd157612dd0613d27565b5b6000612ddf84828501612aaa565b91505092915050565b6000612df48383612f89565b905092915050565b6000612e0883836132c5565b60208301905092915050565b612e1d81613a98565b82525050565b6000612e2e826136fb565b612e388185613736565b935083602082028501612e4a856136db565b8060005b85811015612e865784840389528151612e678582612de8565b9450612e728361371c565b925060208a01995050600181019050612e4e565b50829750879550505050505092915050565b6000612ea3826136fb565b612ead8185613747565b935083602082028501612ebf856136db565b8060005b85811015612efb5784840389528151612edc8582612de8565b9450612ee78361371c565b925060208a01995050600181019050612ec3565b50829750879550505050505092915050565b6000612f1882613706565b612f228185613758565b9350612f2d836136eb565b8060005b83811015612f5e578151612f458882612dfc565b9750612f5083613729565b925050600181019050612f31565b5085935050505092915050565b612f7481613aaa565b82525050565b612f8381613ab6565b82525050565b6000612f9482613711565b612f9e8185613769565b9350612fae818560208601613b18565b612fb781613d2c565b840191505092915050565b6000612fcd82613711565b612fd7818561377a565b9350612fe7818560208601613b18565b612ff081613d2c565b840191505092915050565b600061300682613711565b613010818561378b565b9350613020818560208601613b18565b80840191505092915050565b6000613039600d83613796565b915061304482613d4a565b602082019050919050565b600061305c602983613796565b915061306782613d73565b604082019050919050565b600061307f600d83613796565b915061308a82613dc2565b602082019050919050565b60006130a2601383613796565b91506130ad82613deb565b602082019050919050565b60006130c5601083613796565b91506130d082613e14565b602082019050919050565b60006130e8601183613796565b91506130f382613e3d565b602082019050919050565b600061310b600d83613796565b915061311682613e66565b602082019050919050565b600061312e600883613796565b915061313982613e8f565b602082019050919050565b6000613151601583613796565b915061315c82613eb8565b602082019050919050565b6000613174601383613796565b915061317f82613ee1565b602082019050919050565b6000613197601883613796565b91506131a282613f0a565b602082019050919050565b60006060830160008301516131c56000860182612e14565b5060208301516131d860208601826132c5565b50604083015184820360408601526131f08282612f89565b9150508091505092915050565b6000604083016000830151848203600086015261321a8282612f89565b915050602083015161322f60208601826132c5565b508091505092915050565b600060a08301600083015184820360008601526132578282612f89565b9150506020830151848203602086015261327182826131fd565b9150506040830151848203604086015261328b82826131fd565b91505060608301516132a060608601826132c5565b50608083015184820360808601526132b88282612e23565b9150508091505092915050565b6132ce81613ae0565b82525050565b6132dd81613ae0565b82525050565b6132ec81613af7565b82525050565b6132fb81613aea565b82525050565b600061330d8284612ffb565b915081905092915050565b600060208201905081810360008301526133328184612e98565b905092915050565b600060408201905081810360008301526133548185612f0d565b905061336360208301846132f2565b9392505050565b600060208201905061337f6000830184612f6b565b92915050565b600060808201905061339a6000830187612f7a565b6133a760208301866132f2565b6133b46040830185612f7a565b6133c16060830184612f7a565b95945050505050565b600060208201905081810360008301526133e48184612fc2565b905092915050565b600060208201905081810360008301526134058161302c565b9050919050565b600060208201905081810360008301526134258161304f565b9050919050565b6000604082019050818103600083015261344581613072565b905061345460208301846132e3565b92915050565b6000602082019050818103600083015261347381613095565b9050919050565b60006040820190508181036000830152613493816130b8565b905081810360208301526134a78184612fc2565b905092915050565b600060408201905081810360008301526134c8816130db565b90506134d76020830184612f6b565b92915050565b600060408201905081810360008301526134f6816130fe565b905061350560208301846132d4565b92915050565b6000602082019050818103600083015261352481613121565b9050919050565b6000604082019050818103600083015261354481613144565b90506135536020830184612f6b565b92915050565b6000604082019050818103600083015261357281613167565b90506135816020830184612f6b565b92915050565b600060208201905081810360008301526135a08161318a565b9050919050565b600060208201905081810360008301526135c181846131ad565b905092915050565b600060208201905081810360008301526135e3818461323a565b905092915050565b600060408201905061360060008301856132d4565b61360d6020830184612f6b565b9392505050565b600060808201905061362960008301876132d4565b61363660208301866132d4565b61364360408301856132d4565b61365060608301846132d4565b95945050505050565b6000613663613674565b905061366f8282613b7d565b919050565b6000604051905090565b600067ffffffffffffffff82111561369957613698613ce4565b5b602082029050602081019050919050565b600067ffffffffffffffff8211156136c5576136c4613ce4565b5b6136ce82613d2c565b9050602081019050919050565b6000819050602082019050919050565b6000819050602082019050919050565b600081519050919050565b600081519050919050565b600081519050919050565b6000602082019050919050565b6000602082019050919050565b600082825260208201905092915050565b600082825260208201905092915050565b600082825260208201905092915050565b600082825260208201905092915050565b600082825260208201905092915050565b600081905092915050565b600082825260208201905092915050565b60006137b282613ae0565b91506137bd83613ae0565b9250827fffffffffffffffffffffffffffffffffffffffffffffffffffffffffffffffff038211156137f2576137f1613c28565b5b828201905092915050565b600061380882613aea565b915061381383613aea565b92508260ff0382111561382957613828613c28565b5b828201905092915050565b600061383f82613ae0565b915061384a83613ae0565b92508261385a57613859613c57565b5b828204905092915050565b6000808291508390505b60018511156138af5780860481111561388b5761388a613c28565b5b600185161561389a5780820291505b80810290506138a885613d3d565b945061386f565b94509492505050565b60006138c382613ae0565b91506138ce83613ae0565b92506138fb7fffffffffffffffffffffffffffffffffffffffffffffffffffffffffffffffff8484613903565b905092915050565b60008261391357600190506139cf565b8161392157600090506139cf565b8160018114613937576002811461394157613970565b60019150506139cf565b60ff84111561395357613952613c28565b5b8360020a91508482111561396a57613969613c28565b5b506139cf565b5060208310610133831016604e8410600b84101617156139a55782820a9050838111156139a05761399f613c28565b5b6139cf565b6139b28484846001613865565b925090508184048111156139c9576139c8613c28565b5b81810290505b9392505050565b60006139e182613ae0565b91506139ec83613ae0565b9250817fffffffffffffffffffffffffffffffffffffffffffffffffffffffffffffffff0483118215151615613a2557613a24613c28565b5b828202905092915050565b6000613a3b82613ae0565b9150613a4683613ae0565b925082821015613a5957613a58613c28565b5b828203905092915050565b6000613a6f82613aea565b9150613a7a83613aea565b925082821015613a8d57613a8c613c28565b5b828203905092915050565b6000613aa382613ac0565b9050919050565b60008115159050919050565b6000819050919050565b600073ffffffffffffffffffffffffffffffffffffffff82169050919050565b6000819050919050565b600060ff82169050919050565b6000613b0282613aea565b9050919050565b82818337600083830152505050565b60005b83811015613b36578082015181840152602081019050613b1b565b83811115613b45576000848401525b50505050565b60006002820490506001821680613b6357607f821691505b60208210811415613b7757613b76613c86565b5b50919050565b613b8682613d2c565b810181811067ffffffffffffffff82111715613ba557613ba4613ce4565b5b80604052505050565b6000613bb982613ae0565b91507fffffffffffffffffffffffffffffffffffffffffffffffffffffffffffffffff821415613bec57613beb613c28565b5b600182019050919050565b6000613c0282613ae0565b9150613c0d83613ae0565b925082613c1d57613c1c613c57565b5b828206905092915050565b7f4e487b7100000000000000000000000000000000000000000000000000000000600052601160045260246000fd5b7f4e487b7100000000000000000000000000000000000000000000000000000000600052601260045260246000fd5b7f4e487b7100000000000000000000000000000000000000000000000000000000600052602260045260246000fd5b7f4e487b7100000000000000000000000000000000000000000000000000000000600052603260045260246000fd5b7f4e487b7100000000000000000000000000000000000000000000000000000000600052604160045260246000fd5b600080fd5b600080fd5b600080fd5b600080fd5b600080fd5b6000601f19601f8301169050919050565b60008160011c9050919050565b7f706172616d73206572726f722e00000000000000000000000000000000000000600082015250565b7f746865206c656e676874206f662068656164657220726c70636f64652069732060008201527f746f6f206c6f6e672e0000000000000000000000000000000000000000000000602082015250565b7f7365744d617853796e634e756d00000000000000000000000000000000000000600082015250565b7f766572696679457363615369676e206661696c00000000000000000000000000600082015250565b7f736574424c535075626c69636b4b657900000000000000000000000000000000600082015250565b7f7665726966794865616465722070617373000000000000000000000000000000600082015250565b7f63757272656e742065706f636800000000000000000000000000000000000000600082015250565b7f6f6e6c79526f6f74000000000000000000000000000000000000000000000000600082015250565b7f6368616e676556616c696461746f727320706173730000000000000000000000600082015250565b7f766572696679457363615369676e207061737300000000000000000000000000600082015250565b7f696e76616c6964207369676e6174757265206c656e6774680000000000000000600082015250565b613f3c81613a98565b8114613f4757600080fd5b50565b613f5381613ab6565b8114613f5e57600080fd5b50565b613f6a81613ae0565b8114613f7557600080fd5b50565b613f8181613aea565b8114613f8c57600080fd5b5056fea264697066735822122036cec33a48572b7831de83bbfa8a985398dfeb7d966d2e28ca5c4803f3fddff964736f6c63430008070033",
			"opcodes": "PUSH1 0x80 PUSH1 0x40 MSTORE CALLVALUE DUP1 ISZERO PUSH3 0x11 JUMPI PUSH1 0x0 DUP1 REVERT JUMPDEST POP PUSH1 0x40 MLOAD PUSH3 0x572A CODESIZE SUB DUP1 PUSH3 0x572A DUP4 CODECOPY DUP2 DUP2 ADD PUSH1 0x40 MSTORE DUP2 ADD SWAP1 PUSH3 0x37 SWAP2 SWAP1 PUSH3 0x1180 JUMP JUMPDEST CALLER PUSH1 0x4 PUSH1 0x0 PUSH2 0x100 EXP DUP2 SLOAD DUP2 PUSH20 0xFFFFFFFFFFFFFFFFFFFFFFFFFFFFFFFFFFFFFFFF MUL NOT AND SWAP1 DUP4 PUSH20 0xFFFFFFFFFFFFFFFFFFFFFFFFFFFFFFFFFFFFFFFF AND MUL OR SWAP1 SSTORE POP DUP1 PUSH1 0x5 DUP2 SWAP1 SSTORE POP PUSH1 0xA PUSH1 0x6 DUP2 SWAP1 SSTORE POP PUSH1 0x0 PUSH1 0x2 DUP2 SWAP1 SSTORE POP PUSH3 0xA0 DUP3 PUSH3 0xA8 PUSH1 0x20 SHL PUSH1 0x20 SHR JUMP JUMPDEST POP POP PUSH3 0x1755 JUMP JUMPDEST PUSH1 0x0 PUSH3 0xBB DUP3 PUSH3 0x25D PUSH1 0x20 SHL PUSH1 0x20 SHR JUMP JUMPDEST SWAP1 POP PUSH1 0x0 PUSH3 0xD4 DUP3 PUSH1 0x40 ADD MLOAD PUSH3 0x392 PUSH1 0x20 SHL PUSH1 0x20 SHR JUMP JUMPDEST SWAP1 POP PUSH1 0x0 PUSH3 0xE9 DUP3 PUSH3 0x49C PUSH1 0x20 SHL PUSH1 0x20 SHR JUMP JUMPDEST SWAP1 POP DUP1 PUSH1 0x80 ADD MLOAD MLOAD PUSH1 0x7 DUP2 SWAP1 SSTORE POP DUP3 PUSH1 0x20 ADD MLOAD PUSH1 0x3 DUP2 SWAP1 SSTORE POP PUSH1 0x0 PUSH1 0x3 SLOAD EQ PUSH3 0x112 JUMPI PUSH1 0x0 DUP1 REVERT JUMPDEST PUSH1 0x7 SLOAD PUSH8 0xFFFFFFFFFFFFFFFF DUP2 GT ISZERO PUSH3 0x131 JUMPI PUSH3 0x130 PUSH3 0x16DA JUMP JUMPDEST JUMPDEST PUSH1 0x40 MLOAD SWAP1 DUP1 DUP3 MSTORE DUP1 PUSH1 0x20 MUL PUSH1 0x20 ADD DUP3 ADD PUSH1 0x40 MSTORE DUP1 ISZERO PUSH3 0x166 JUMPI DUP2 PUSH1 0x20 ADD JUMPDEST PUSH1 0x60 DUP2 MSTORE PUSH1 0x20 ADD SWAP1 PUSH1 0x1 SWAP1 SUB SWAP1 DUP2 PUSH3 0x150 JUMPI SWAP1 POP JUMPDEST POP PUSH1 0x1 PUSH1 0x0 PUSH1 0x2 SLOAD DUP2 MSTORE PUSH1 0x20 ADD SWAP1 DUP2 MSTORE PUSH1 0x20 ADD PUSH1 0x0 KECCAK256 SWAP1 DUP1 MLOAD SWAP1 PUSH1 0x20 ADD SWAP1 PUSH3 0x191 SWAP3 SWAP2 SWAP1 PUSH3 0xEBC JUMP JUMPDEST POP PUSH1 0x0 JUMPDEST PUSH1 0x7 SLOAD DUP2 PUSH1 0xFF AND LT ISZERO PUSH3 0x22B JUMPI DUP2 PUSH1 0x80 ADD MLOAD DUP2 PUSH1 0xFF AND DUP2 MLOAD DUP2 LT PUSH3 0x1C0 JUMPI PUSH3 0x1BF PUSH3 0x16AB JUMP JUMPDEST JUMPDEST PUSH1 0x20 MUL PUSH1 0x20 ADD ADD MLOAD PUSH1 0x1 PUSH1 0x0 PUSH1 0x2 SLOAD DUP2 MSTORE PUSH1 0x20 ADD SWAP1 DUP2 MSTORE PUSH1 0x20 ADD PUSH1 0x0 KECCAK256 DUP3 PUSH1 0xFF AND DUP2 SLOAD DUP2 LT PUSH3 0x1F5 JUMPI PUSH3 0x1F4 PUSH3 0x16AB JUMP JUMPDEST JUMPDEST SWAP1 PUSH1 0x0 MSTORE PUSH1 0x20 PUSH1 0x0 KECCAK256 ADD SWAP1 DUP1 MLOAD SWAP1 PUSH1 0x20 ADD SWAP1 PUSH3 0x214 SWAP3 SWAP2 SWAP1 PUSH3 0xF23 JUMP JUMPDEST POP DUP1 DUP1 PUSH3 0x222 SWAP1 PUSH3 0x15EF JUMP JUMPDEST SWAP2 POP POP PUSH3 0x195 JUMP JUMPDEST POP DUP4 PUSH1 0x0 DUP1 PUSH1 0x3 SLOAD DUP2 MSTORE PUSH1 0x20 ADD SWAP1 DUP2 MSTORE PUSH1 0x20 ADD PUSH1 0x0 KECCAK256 SWAP1 DUP1 MLOAD SWAP1 PUSH1 0x20 ADD SWAP1 PUSH3 0x256 SWAP3 SWAP2 SWAP1 PUSH3 0xF23 JUMP JUMPDEST POP POP POP POP POP JUMP JUMPDEST PUSH3 0x267 PUSH3 0xFB4 JUMP JUMPDEST PUSH1 0x0 PUSH3 0x294 PUSH3 0x283 DUP5 PUSH3 0x842 PUSH1 0x20 SHL PUSH3 0x1ABF OR PUSH1 0x20 SHR JUMP JUMPDEST PUSH3 0x872 PUSH1 0x20 SHL PUSH3 0x1AED OR PUSH1 0x20 SHR JUMP JUMPDEST SWAP1 POP PUSH1 0x0 DUP2 PUSH1 0x1 DUP2 MLOAD DUP2 LT PUSH3 0x2AF JUMPI PUSH3 0x2AE PUSH3 0x16AB JUMP JUMPDEST JUMPDEST PUSH1 0x20 MUL PUSH1 0x20 ADD ADD MLOAD SWAP1 POP PUSH1 0x0 DUP3 PUSH1 0x6 DUP2 MLOAD DUP2 LT PUSH3 0x2D2 JUMPI PUSH3 0x2D1 PUSH3 0x16AB JUMP JUMPDEST JUMPDEST PUSH1 0x20 MUL PUSH1 0x20 ADD ADD MLOAD SWAP1 POP PUSH1 0x0 DUP4 PUSH1 0xA DUP2 MLOAD DUP2 LT PUSH3 0x2F5 JUMPI PUSH3 0x2F4 PUSH3 0x16AB JUMP JUMPDEST JUMPDEST PUSH1 0x20 MUL PUSH1 0x20 ADD ADD MLOAD SWAP1 POP PUSH3 0x315 DUP4 PUSH3 0x9BA PUSH1 0x20 SHL PUSH3 0x1C02 OR PUSH1 0x20 SHR JUMP JUMPDEST DUP6 PUSH1 0x0 ADD SWAP1 PUSH20 0xFFFFFFFFFFFFFFFFFFFFFFFFFFFFFFFFFFFFFFFF AND SWAP1 DUP2 PUSH20 0xFFFFFFFFFFFFFFFFFFFFFFFFFFFFFFFFFFFFFFFF AND DUP2 MSTORE POP POP PUSH3 0x362 DUP3 PUSH3 0x9E6 PUSH1 0x20 SHL PUSH3 0x1C25 OR PUSH1 0x20 SHR JUMP JUMPDEST DUP6 PUSH1 0x20 ADD DUP2 DUP2 MSTORE POP POP PUSH3 0x381 DUP2 PUSH3 0xA4B PUSH1 0x20 SHL PUSH3 0x1C7F OR PUSH1 0x20 SHR JUMP JUMPDEST DUP6 PUSH1 0x40 ADD DUP2 SWAP1 MSTORE POP POP POP POP POP SWAP2 SWAP1 POP JUMP JUMPDEST PUSH1 0x60 PUSH1 0x20 DUP3 MLOAD PUSH3 0x3A4 SWAP2 SWAP1 PUSH3 0x1472 JUMP JUMPDEST PUSH8 0xFFFFFFFFFFFFFFFF DUP2 GT ISZERO PUSH3 0x3C0 JUMPI PUSH3 0x3BF PUSH3 0x16DA JUMP JUMPDEST JUMPDEST PUSH1 0x40 MLOAD SWAP1 DUP1 DUP3 MSTORE DUP1 PUSH1 0x1F ADD PUSH1 0x1F NOT AND PUSH1 0x20 ADD DUP3 ADD PUSH1 0x40 MSTORE DUP1 ISZERO PUSH3 0x3F3 JUMPI DUP2 PUSH1 0x20 ADD PUSH1 0x1 DUP3 MUL DUP1 CALLDATASIZE DUP4 CALLDATACOPY DUP1 DUP3 ADD SWAP2 POP POP SWAP1 POP JUMPDEST POP SWAP1 POP PUSH1 0x0 DUP1 PUSH1 0x20 SWAP1 POP JUMPDEST DUP4 MLOAD DUP2 LT ISZERO PUSH3 0x495 JUMPI DUP4 DUP2 DUP2 MLOAD DUP2 LT PUSH3 0x41E JUMPI PUSH3 0x41D PUSH3 0x16AB JUMP JUMPDEST JUMPDEST PUSH1 0x20 ADD ADD MLOAD PUSH1 0xF8 SHR PUSH1 0xF8 SHL DUP4 DUP4 DUP2 MLOAD DUP2 LT PUSH3 0x43F JUMPI PUSH3 0x43E PUSH3 0x16AB JUMP JUMPDEST JUMPDEST PUSH1 0x20 ADD ADD SWAP1 PUSH31 0xFFFFFFFFFFFFFFFFFFFFFFFFFFFFFFFFFFFFFFFFFFFFFFFFFFFFFFFFFFFFFF NOT AND SWAP1 DUP2 PUSH1 0x0 BYTE SWAP1 MSTORE8 POP PUSH1 0x1 DUP3 PUSH3 0x47D SWAP2 SWAP1 PUSH3 0x1245 JUMP JUMPDEST SWAP2 POP DUP1 DUP1 PUSH3 0x48C SWAP1 PUSH3 0x15A1 JUMP JUMPDEST SWAP2 POP POP PUSH3 0x3FE JUMP JUMPDEST POP POP SWAP2 SWAP1 POP JUMP JUMPDEST PUSH3 0x4A6 PUSH3 0xFEB JUMP JUMPDEST PUSH1 0x0 PUSH3 0x4D3 PUSH3 0x4C2 DUP5 PUSH3 0x842 PUSH1 0x20 SHL PUSH3 0x1ABF OR PUSH1 0x20 SHR JUMP JUMPDEST PUSH3 0x872 PUSH1 0x20 SHL PUSH3 0x1AED OR PUSH1 0x20 SHR JUMP JUMPDEST SWAP1 POP PUSH1 0x0 DUP2 PUSH1 0x1 DUP2 MLOAD DUP2 LT PUSH3 0x4EE JUMPI PUSH3 0x4ED PUSH3 0x16AB JUMP JUMPDEST JUMPDEST PUSH1 0x20 MUL PUSH1 0x20 ADD ADD MLOAD SWAP1 POP PUSH1 0x0 DUP3 PUSH1 0x2 DUP2 MLOAD DUP2 LT PUSH3 0x511 JUMPI PUSH3 0x510 PUSH3 0x16AB JUMP JUMPDEST JUMPDEST PUSH1 0x20 MUL PUSH1 0x20 ADD ADD MLOAD SWAP1 POP PUSH1 0x0 DUP4 PUSH1 0x3 DUP2 MLOAD DUP2 LT PUSH3 0x534 JUMPI PUSH3 0x533 PUSH3 0x16AB JUMP JUMPDEST JUMPDEST PUSH1 0x20 MUL PUSH1 0x20 ADD ADD MLOAD SWAP1 POP PUSH1 0x0 DUP5 PUSH1 0x4 DUP2 MLOAD DUP2 LT PUSH3 0x557 JUMPI PUSH3 0x556 PUSH3 0x16AB JUMP JUMPDEST JUMPDEST PUSH1 0x20 MUL PUSH1 0x20 ADD ADD MLOAD SWAP1 POP PUSH1 0x0 DUP6 PUSH1 0x5 DUP2 MLOAD DUP2 LT PUSH3 0x57A JUMPI PUSH3 0x579 PUSH3 0x16AB JUMP JUMPDEST JUMPDEST PUSH1 0x20 MUL PUSH1 0x20 ADD ADD MLOAD SWAP1 POP PUSH1 0x62 DUP6 PUSH1 0x0 ADD MLOAD GT ISZERO PUSH3 0x6A4 JUMPI PUSH1 0x0 PUSH1 0x62 PUSH1 0x2 DUP8 PUSH1 0x0 ADD MLOAD PUSH3 0x5A9 SWAP2 SWAP1 PUSH3 0x1472 JUMP JUMPDEST PUSH3 0x5B5 SWAP2 SWAP1 PUSH3 0x12A2 JUMP JUMPDEST SWAP1 POP DUP1 PUSH8 0xFFFFFFFFFFFFFFFF DUP2 GT ISZERO PUSH3 0x5D4 JUMPI PUSH3 0x5D3 PUSH3 0x16DA JUMP JUMPDEST JUMPDEST PUSH1 0x40 MLOAD SWAP1 DUP1 DUP3 MSTORE DUP1 PUSH1 0x20 MUL PUSH1 0x20 ADD DUP3 ADD PUSH1 0x40 MSTORE DUP1 ISZERO PUSH3 0x609 JUMPI DUP2 PUSH1 0x20 ADD JUMPDEST PUSH1 0x60 DUP2 MSTORE PUSH1 0x20 ADD SWAP1 PUSH1 0x1 SWAP1 SUB SWAP1 DUP2 PUSH3 0x5F3 JUMPI SWAP1 POP JUMPDEST POP DUP9 PUSH1 0x80 ADD DUP2 SWAP1 MSTORE POP PUSH1 0x0 JUMPDEST DUP2 DUP2 LT ISZERO PUSH3 0x6A1 JUMPI PUSH3 0x666 PUSH3 0x638 DUP9 PUSH3 0x872 PUSH1 0x20 SHL PUSH3 0x1AED OR PUSH1 0x20 SHR JUMP JUMPDEST DUP3 DUP2 MLOAD DUP2 LT PUSH3 0x64D JUMPI PUSH3 0x64C PUSH3 0x16AB JUMP JUMPDEST JUMPDEST PUSH1 0x20 MUL PUSH1 0x20 ADD ADD MLOAD PUSH3 0xA4B PUSH1 0x20 SHL PUSH3 0x1C7F OR PUSH1 0x20 SHR JUMP JUMPDEST DUP10 PUSH1 0x80 ADD MLOAD DUP3 DUP2 MLOAD DUP2 LT PUSH3 0x680 JUMPI PUSH3 0x67F PUSH3 0x16AB JUMP JUMPDEST JUMPDEST PUSH1 0x20 MUL PUSH1 0x20 ADD ADD DUP2 SWAP1 MSTORE POP DUP1 DUP1 PUSH3 0x698 SWAP1 PUSH3 0x15A1 JUMP JUMPDEST SWAP2 POP POP PUSH3 0x615 JUMP JUMPDEST POP POP JUMPDEST PUSH3 0x6BA DUP5 PUSH3 0x9E6 PUSH1 0x20 SHL PUSH3 0x1C25 OR PUSH1 0x20 SHR JUMP JUMPDEST DUP8 PUSH1 0x60 ADD DUP2 DUP2 MSTORE POP POP PUSH3 0x6D9 DUP4 PUSH3 0xA4B PUSH1 0x20 SHL PUSH3 0x1C7F OR PUSH1 0x20 SHR JUMP JUMPDEST DUP8 PUSH1 0x0 ADD DUP2 SWAP1 MSTORE POP PUSH3 0x72A PUSH3 0x6FB DUP4 PUSH3 0x872 PUSH1 0x20 SHL PUSH3 0x1AED OR PUSH1 0x20 SHR JUMP JUMPDEST PUSH1 0x1 DUP2 MLOAD DUP2 LT PUSH3 0x711 JUMPI PUSH3 0x710 PUSH3 0x16AB JUMP JUMPDEST JUMPDEST PUSH1 0x20 MUL PUSH1 0x20 ADD ADD MLOAD PUSH3 0xA4B PUSH1 0x20 SHL PUSH3 0x1C7F OR PUSH1 0x20 SHR JUMP JUMPDEST DUP8 PUSH1 0x20 ADD MLOAD PUSH1 0x0 ADD DUP2 SWAP1 MSTORE POP PUSH3 0x77F PUSH3 0x750 DUP4 PUSH3 0x872 PUSH1 0x20 SHL PUSH3 0x1AED OR PUSH1 0x20 SHR JUMP JUMPDEST PUSH1 0x0 DUP2 MLOAD DUP2 LT PUSH3 0x766 JUMPI PUSH3 0x765 PUSH3 0x16AB JUMP JUMPDEST JUMPDEST PUSH1 0x20 MUL PUSH1 0x20 ADD ADD MLOAD PUSH3 0x9E6 PUSH1 0x20 SHL PUSH3 0x1C25 OR PUSH1 0x20 SHR JUMP JUMPDEST DUP8 PUSH1 0x20 ADD MLOAD PUSH1 0x20 ADD DUP2 DUP2 MSTORE POP POP PUSH3 0x7D5 PUSH3 0x7A6 DUP3 PUSH3 0x872 PUSH1 0x20 SHL PUSH3 0x1AED OR PUSH1 0x20 SHR JUMP JUMPDEST PUSH1 0x1 DUP2 MLOAD DUP2 LT PUSH3 0x7BC JUMPI PUSH3 0x7BB PUSH3 0x16AB JUMP JUMPDEST JUMPDEST PUSH1 0x20 MUL PUSH1 0x20 ADD ADD MLOAD PUSH3 0xA4B PUSH1 0x20 SHL PUSH3 0x1C7F OR PUSH1 0x20 SHR JUMP JUMPDEST DUP8 PUSH1 0x40 ADD MLOAD PUSH1 0x0 ADD DUP2 SWAP1 MSTORE POP PUSH3 0x82A PUSH3 0x7FB DUP3 PUSH3 0x872 PUSH1 0x20 SHL PUSH3 0x1AED OR PUSH1 0x20 SHR JUMP JUMPDEST PUSH1 0x0 DUP2 MLOAD DUP2 LT PUSH3 0x811 JUMPI PUSH3 0x810 PUSH3 0x16AB JUMP JUMPDEST JUMPDEST PUSH1 0x20 MUL PUSH1 0x20 ADD ADD MLOAD PUSH3 0x9E6 PUSH1 0x20 SHL PUSH3 0x1C25 OR PUSH1 0x20 SHR JUMP JUMPDEST DUP8 PUSH1 0x40 ADD MLOAD PUSH1 0x20 ADD DUP2 DUP2 MSTORE POP POP POP POP POP POP POP POP SWAP2 SWAP1 POP JUMP JUMPDEST PUSH3 0x84C PUSH3 0x102A JUMP JUMPDEST PUSH1 0x0 PUSH1 0x20 DUP4 ADD SWAP1 POP PUSH1 0x40 MLOAD DUP1 PUSH1 0x40 ADD PUSH1 0x40 MSTORE DUP1 DUP5 MLOAD DUP2 MSTORE PUSH1 0x20 ADD DUP3 DUP2 MSTORE POP SWAP2 POP POP SWAP2 SWAP1 POP JUMP JUMPDEST PUSH1 0x60 PUSH3 0x885 DUP3 PUSH3 0xAF3 PUSH1 0x20 SHL PUSH1 0x20 SHR JUMP JUMPDEST PUSH3 0x88F JUMPI PUSH1 0x0 DUP1 REVERT JUMPDEST PUSH1 0x0 PUSH3 0x8A2 DUP4 PUSH3 0xB45 PUSH1 0x20 SHL PUSH1 0x20 SHR JUMP JUMPDEST SWAP1 POP PUSH1 0x0 DUP2 PUSH8 0xFFFFFFFFFFFFFFFF DUP2 GT ISZERO PUSH3 0x8C3 JUMPI PUSH3 0x8C2 PUSH3 0x16DA JUMP JUMPDEST JUMPDEST PUSH1 0x40 MLOAD SWAP1 DUP1 DUP3 MSTORE DUP1 PUSH1 0x20 MUL PUSH1 0x20 ADD DUP3 ADD PUSH1 0x40 MSTORE DUP1 ISZERO PUSH3 0x900 JUMPI DUP2 PUSH1 0x20 ADD JUMPDEST PUSH3 0x8EC PUSH3 0x102A JUMP JUMPDEST DUP2 MSTORE PUSH1 0x20 ADD SWAP1 PUSH1 0x1 SWAP1 SUB SWAP1 DUP2 PUSH3 0x8E2 JUMPI SWAP1 POP JUMPDEST POP SWAP1 POP PUSH1 0x0 PUSH3 0x91A DUP6 PUSH1 0x20 ADD MLOAD PUSH3 0xBEF PUSH1 0x20 SHL PUSH1 0x20 SHR JUMP JUMPDEST DUP6 PUSH1 0x20 ADD MLOAD PUSH3 0x92B SWAP2 SWAP1 PUSH3 0x1245 JUMP JUMPDEST SWAP1 POP PUSH1 0x0 DUP1 PUSH1 0x0 SWAP1 POP JUMPDEST DUP5 DUP2 LT ISZERO PUSH3 0x9AD JUMPI PUSH3 0x94F DUP4 PUSH3 0xCC2 PUSH1 0x20 SHL PUSH1 0x20 SHR JUMP JUMPDEST SWAP2 POP PUSH1 0x40 MLOAD DUP1 PUSH1 0x40 ADD PUSH1 0x40 MSTORE DUP1 DUP4 DUP2 MSTORE PUSH1 0x20 ADD DUP5 DUP2 MSTORE POP DUP5 DUP3 DUP2 MLOAD DUP2 LT PUSH3 0x97C JUMPI PUSH3 0x97B PUSH3 0x16AB JUMP JUMPDEST JUMPDEST PUSH1 0x20 MUL PUSH1 0x20 ADD ADD DUP2 SWAP1 MSTORE POP DUP2 DUP4 PUSH3 0x995 SWAP2 SWAP1 PUSH3 0x1245 JUMP JUMPDEST SWAP3 POP DUP1 DUP1 PUSH3 0x9A4 SWAP1 PUSH3 0x15A1 JUMP JUMPDEST SWAP2 POP POP PUSH3 0x935 JUMP JUMPDEST POP DUP3 SWAP5 POP POP POP POP POP SWAP2 SWAP1 POP JUMP JUMPDEST PUSH1 0x0 PUSH1 0x15 DUP3 PUSH1 0x0 ADD MLOAD EQ PUSH3 0x9CE JUMPI PUSH1 0x0 DUP1 REVERT JUMPDEST PUSH3 0x9DF DUP3 PUSH3 0x9E6 PUSH1 0x20 SHL PUSH1 0x20 SHR JUMP JUMPDEST SWAP1 POP SWAP2 SWAP1 POP JUMP JUMPDEST PUSH1 0x0 DUP1 DUP3 PUSH1 0x0 ADD MLOAD GT DUP1 ISZERO PUSH3 0xA01 JUMPI POP PUSH1 0x21 DUP3 PUSH1 0x0 ADD MLOAD GT ISZERO JUMPDEST PUSH3 0xA0B JUMPI PUSH1 0x0 DUP1 REVERT JUMPDEST PUSH1 0x0 DUP1 PUSH3 0xA1F DUP5 PUSH3 0xDAE PUSH1 0x20 SHL PUSH1 0x20 SHR JUMP JUMPDEST SWAP2 POP SWAP2 POP PUSH1 0x0 DUP3 MLOAD SWAP1 POP PUSH1 0x20 DUP3 LT ISZERO PUSH3 0xA40 JUMPI DUP2 PUSH1 0x20 SUB PUSH2 0x100 EXP DUP2 DIV SWAP1 POP JUMPDEST DUP1 SWAP4 POP POP POP POP SWAP2 SWAP1 POP JUMP JUMPDEST PUSH1 0x60 PUSH1 0x0 DUP3 PUSH1 0x0 ADD MLOAD GT PUSH3 0xA5F JUMPI PUSH1 0x0 DUP1 REVERT JUMPDEST PUSH1 0x0 DUP1 PUSH3 0xA73 DUP5 PUSH3 0xDAE PUSH1 0x20 SHL PUSH1 0x20 SHR JUMP JUMPDEST SWAP2 POP SWAP2 POP PUSH1 0x0 DUP2 PUSH8 0xFFFFFFFFFFFFFFFF DUP2 GT ISZERO PUSH3 0xA96 JUMPI PUSH3 0xA95 PUSH3 0x16DA JUMP JUMPDEST JUMPDEST PUSH1 0x40 MLOAD SWAP1 DUP1 DUP3 MSTORE DUP1 PUSH1 0x1F ADD PUSH1 0x1F NOT AND PUSH1 0x20 ADD DUP3 ADD PUSH1 0x40 MSTORE DUP1 ISZERO PUSH3 0xAC9 JUMPI DUP2 PUSH1 0x20 ADD PUSH1 0x1 DUP3 MUL DUP1 CALLDATASIZE DUP4 CALLDATACOPY DUP1 DUP3 ADD SWAP2 POP POP SWAP1 POP JUMPDEST POP SWAP1 POP PUSH1 0x0 DUP2 PUSH1 0x20 ADD SWAP1 POP PUSH3 0xAE7 DUP5 DUP3 DUP6 PUSH3 0xE04 PUSH1 0x20 SHL PUSH1 0x20 SHR JUMP JUMPDEST DUP2 SWAP5 POP POP POP POP POP SWAP2 SWAP1 POP JUMP JUMPDEST PUSH1 0x0 DUP1 DUP3 PUSH1 0x0 ADD MLOAD EQ ISZERO PUSH3 0xB0C JUMPI PUSH1 0x0 SWAP1 POP PUSH3 0xB40 JUMP JUMPDEST PUSH1 0x0 DUP1 DUP4 PUSH1 0x20 ADD MLOAD SWAP1 POP DUP1 MLOAD PUSH1 0x0 BYTE SWAP2 POP PUSH1 0xC0 PUSH1 0xFF AND DUP3 PUSH1 0xFF AND LT ISZERO PUSH3 0xB39 JUMPI PUSH1 0x0 SWAP3 POP POP POP PUSH3 0xB40 JUMP JUMPDEST PUSH1 0x1 SWAP3 POP POP POP JUMPDEST SWAP2 SWAP1 POP JUMP JUMPDEST PUSH1 0x0 DUP1 DUP3 PUSH1 0x0 ADD MLOAD EQ ISZERO PUSH3 0xB5E JUMPI PUSH1 0x0 SWAP1 POP PUSH3 0xBEA JUMP JUMPDEST PUSH1 0x0 DUP1 PUSH3 0xB76 DUP5 PUSH1 0x20 ADD MLOAD PUSH3 0xBEF PUSH1 0x20 SHL PUSH1 0x20 SHR JUMP JUMPDEST DUP5 PUSH1 0x20 ADD MLOAD PUSH3 0xB87 SWAP2 SWAP1 PUSH3 0x1245 JUMP JUMPDEST SWAP1 POP PUSH1 0x0 DUP5 PUSH1 0x0 ADD MLOAD DUP6 PUSH1 0x20 ADD MLOAD PUSH3 0xBA1 SWAP2 SWAP1 PUSH3 0x1245 JUMP JUMPDEST SWAP1 POP JUMPDEST DUP1 DUP3 LT ISZERO PUSH3 0xBE3 JUMPI PUSH3 0xBBE DUP3 PUSH3 0xCC2 PUSH1 0x20 SHL PUSH1 0x20 SHR JUMP JUMPDEST DUP3 PUSH3 0xBCB SWAP2 SWAP1 PUSH3 0x1245 JUMP JUMPDEST SWAP2 POP DUP3 DUP1 PUSH3 0xBDA SWAP1 PUSH3 0x15A1 JUMP JUMPDEST SWAP4 POP POP PUSH3 0xBA4 JUMP JUMPDEST DUP3 SWAP4 POP POP POP POP JUMPDEST SWAP2 SWAP1 POP JUMP JUMPDEST PUSH1 0x0 DUP1 DUP3 MLOAD PUSH1 0x0 BYTE SWAP1 POP PUSH1 0x80 PUSH1 0xFF AND DUP2 LT ISZERO PUSH3 0xC11 JUMPI PUSH1 0x0 SWAP2 POP POP PUSH3 0xCBD JUMP JUMPDEST PUSH1 0xB8 PUSH1 0xFF AND DUP2 LT DUP1 PUSH3 0xC38 JUMPI POP PUSH1 0xC0 PUSH1 0xFF AND DUP2 LT ISZERO DUP1 ISZERO PUSH3 0xC37 JUMPI POP PUSH1 0xF8 PUSH1 0xFF AND DUP2 LT JUMPDEST JUMPDEST ISZERO PUSH3 0xC49 JUMPI PUSH1 0x1 SWAP2 POP POP PUSH3 0xCBD JUMP JUMPDEST PUSH1 0xC0 PUSH1 0xFF AND DUP2 LT ISZERO PUSH3 0xC8C JUMPI PUSH1 0x1 DUP1 PUSH1 0xB8 PUSH3 0xC67 SWAP2 SWAP1 PUSH3 0x14AD JUMP JUMPDEST PUSH1 0xFF AND DUP3 PUSH3 0xC77 SWAP2 SWAP1 PUSH3 0x1472 JUMP JUMPDEST PUSH3 0xC83 SWAP2 SWAP1 PUSH3 0x1245 JUMP JUMPDEST SWAP2 POP POP PUSH3 0xCBD JUMP JUMPDEST PUSH1 0x1 DUP1 PUSH1 0xF8 PUSH3 0xC9D SWAP2 SWAP1 PUSH3 0x14AD JUMP JUMPDEST PUSH1 0xFF AND DUP3 PUSH3 0xCAD SWAP2 SWAP1 PUSH3 0x1472 JUMP JUMPDEST PUSH3 0xCB9 SWAP2 SWAP1 PUSH3 0x1245 JUMP JUMPDEST SWAP2 POP POP JUMPDEST SWAP2 SWAP1 POP JUMP JUMPDEST PUSH1 0x0 DUP1 PUSH1 0x0 DUP4 MLOAD PUSH1 0x0 BYTE SWAP1 POP PUSH1 0x80 PUSH1 0xFF AND DUP2 LT ISZERO PUSH3 0xCE5 JUMPI PUSH1 0x1 SWAP2 POP PUSH3 0xDA4 JUMP JUMPDEST PUSH1 0xB8 PUSH1 0xFF AND DUP2 LT ISZERO PUSH3 0xD1A JUMPI PUSH1 0x1 PUSH1 0x80 PUSH1 0xFF AND DUP3 PUSH3 0xD06 SWAP2 SWAP1 PUSH3 0x1472 JUMP JUMPDEST PUSH3 0xD12 SWAP2 SWAP1 PUSH3 0x1245 JUMP JUMPDEST SWAP2 POP PUSH3 0xDA3 JUMP JUMPDEST PUSH1 0xC0 PUSH1 0xFF AND DUP2 LT ISZERO PUSH3 0xD4C JUMPI PUSH1 0xB7 DUP2 SUB PUSH1 0x1 DUP6 ADD SWAP5 POP DUP1 PUSH1 0x20 SUB PUSH2 0x100 EXP DUP6 MLOAD DIV PUSH1 0x1 DUP3 ADD DUP2 ADD SWAP4 POP POP POP PUSH3 0xDA2 JUMP JUMPDEST PUSH1 0xF8 PUSH1 0xFF AND DUP2 LT ISZERO PUSH3 0xD81 JUMPI PUSH1 0x1 PUSH1 0xC0 PUSH1 0xFF AND DUP3 PUSH3 0xD6D SWAP2 SWAP1 PUSH3 0x1472 JUMP JUMPDEST PUSH3 0xD79 SWAP2 SWAP1 PUSH3 0x1245 JUMP JUMPDEST SWAP2 POP PUSH3 0xDA1 JUMP JUMPDEST PUSH1 0xF7 DUP2 SUB PUSH1 0x1 DUP6 ADD SWAP5 POP DUP1 PUSH1 0x20 SUB PUSH2 0x100 EXP DUP6 MLOAD DIV PUSH1 0x1 DUP3 ADD DUP2 ADD SWAP4 POP POP POP JUMPDEST JUMPDEST JUMPDEST JUMPDEST DUP2 SWAP3 POP POP POP SWAP2 SWAP1 POP JUMP JUMPDEST PUSH1 0x0 DUP1 PUSH1 0x0 PUSH3 0xDC8 DUP5 PUSH1 0x20 ADD MLOAD PUSH3 0xBEF PUSH1 0x20 SHL PUSH1 0x20 SHR JUMP JUMPDEST SWAP1 POP PUSH1 0x0 DUP2 DUP6 PUSH1 0x20 ADD MLOAD PUSH3 0xDDE SWAP2 SWAP1 PUSH3 0x1245 JUMP JUMPDEST SWAP1 POP PUSH1 0x0 DUP3 DUP7 PUSH1 0x0 ADD MLOAD PUSH3 0xDF4 SWAP2 SWAP1 PUSH3 0x1472 JUMP JUMPDEST SWAP1 POP DUP2 DUP2 SWAP5 POP SWAP5 POP POP POP POP SWAP2 POP SWAP2 JUMP JUMPDEST PUSH1 0x0 DUP2 EQ ISZERO PUSH3 0xE14 JUMPI PUSH3 0xEB7 JUMP JUMPDEST JUMPDEST PUSH1 0x20 PUSH1 0xFF AND DUP2 LT PUSH3 0xE67 JUMPI DUP3 MLOAD DUP3 MSTORE PUSH1 0x20 PUSH1 0xFF AND DUP4 PUSH3 0xE37 SWAP2 SWAP1 PUSH3 0x1245 JUMP JUMPDEST SWAP3 POP PUSH1 0x20 PUSH1 0xFF AND DUP3 PUSH3 0xE4B SWAP2 SWAP1 PUSH3 0x1245 JUMP JUMPDEST SWAP2 POP PUSH1 0x20 PUSH1 0xFF AND DUP2 PUSH3 0xE5F SWAP2 SWAP1 PUSH3 0x1472 JUMP JUMPDEST SWAP1 POP PUSH3 0xE15 JUMP JUMPDEST PUSH1 0x0 DUP2 GT ISZERO PUSH3 0xEB6 JUMPI PUSH1 0x0 PUSH1 0x1 DUP3 PUSH1 0x20 PUSH1 0xFF AND PUSH3 0xE87 SWAP2 SWAP1 PUSH3 0x1472 JUMP JUMPDEST PUSH2 0x100 PUSH3 0xE96 SWAP2 SWAP1 PUSH3 0x1335 JUMP JUMPDEST PUSH3 0xEA2 SWAP2 SWAP1 PUSH3 0x1472 JUMP JUMPDEST SWAP1 POP DUP1 NOT DUP5 MLOAD AND DUP2 DUP5 MLOAD AND DUP2 DUP2 OR DUP6 MSTORE POP POP POP JUMPDEST JUMPDEST POP POP POP JUMP JUMPDEST DUP3 DUP1 SLOAD DUP3 DUP3 SSTORE SWAP1 PUSH1 0x0 MSTORE PUSH1 0x20 PUSH1 0x0 KECCAK256 SWAP1 DUP2 ADD SWAP3 DUP3 ISZERO PUSH3 0xF10 JUMPI SWAP2 PUSH1 0x20 MUL DUP3 ADD JUMPDEST DUP3 DUP2 GT ISZERO PUSH3 0xF0F JUMPI DUP3 MLOAD DUP3 SWAP1 DUP1 MLOAD SWAP1 PUSH1 0x20 ADD SWAP1 PUSH3 0xEFE SWAP3 SWAP2 SWAP1 PUSH3 0xF23 JUMP JUMPDEST POP SWAP2 PUSH1 0x20 ADD SWAP2 SWAP1 PUSH1 0x1 ADD SWAP1 PUSH3 0xEDD JUMP JUMPDEST JUMPDEST POP SWAP1 POP PUSH3 0xF1F SWAP2 SWAP1 PUSH3 0x1044 JUMP JUMPDEST POP SWAP1 JUMP JUMPDEST DUP3 DUP1 SLOAD PUSH3 0xF31 SWAP1 PUSH3 0x1535 JUMP JUMPDEST SWAP1 PUSH1 0x0 MSTORE PUSH1 0x20 PUSH1 0x0 KECCAK256 SWAP1 PUSH1 0x1F ADD PUSH1 0x20 SWAP1 DIV DUP2 ADD SWAP3 DUP3 PUSH3 0xF55 JUMPI PUSH1 0x0 DUP6 SSTORE PUSH3 0xFA1 JUMP JUMPDEST DUP3 PUSH1 0x1F LT PUSH3 0xF70 JUMPI DUP1 MLOAD PUSH1 0xFF NOT AND DUP4 DUP1 ADD OR DUP6 SSTORE PUSH3 0xFA1 JUMP JUMPDEST DUP3 DUP1 ADD PUSH1 0x1 ADD DUP6 SSTORE DUP3 ISZERO PUSH3 0xFA1 JUMPI SWAP2 DUP3 ADD JUMPDEST DUP3 DUP2 GT ISZERO PUSH3 0xFA0 JUMPI DUP3 MLOAD DUP3 SSTORE SWAP2 PUSH1 0x20 ADD SWAP2 SWAP1 PUSH1 0x1 ADD SWAP1 PUSH3 0xF83 JUMP JUMPDEST JUMPDEST POP SWAP1 POP PUSH3 0xFB0 SWAP2 SWAP1 PUSH3 0x106C JUMP JUMPDEST POP SWAP1 JUMP JUMPDEST PUSH1 0x40 MLOAD DUP1 PUSH1 0x60 ADD PUSH1 0x40 MSTORE DUP1 PUSH1 0x0 PUSH20 0xFFFFFFFFFFFFFFFFFFFFFFFFFFFFFFFFFFFFFFFF AND DUP2 MSTORE PUSH1 0x20 ADD PUSH1 0x0 DUP2 MSTORE PUSH1 0x20 ADD PUSH1 0x60 DUP2 MSTORE POP SWAP1 JUMP JUMPDEST PUSH1 0x40 MLOAD DUP1 PUSH1 0xA0 ADD PUSH1 0x40 MSTORE DUP1 PUSH1 0x60 DUP2 MSTORE PUSH1 0x20 ADD PUSH3 0x1007 PUSH3 0x108B JUMP JUMPDEST DUP2 MSTORE PUSH1 0x20 ADD PUSH3 0x1016 PUSH3 0x108B JUMP JUMPDEST DUP2 MSTORE PUSH1 0x20 ADD PUSH1 0x0 DUP2 MSTORE PUSH1 0x20 ADD PUSH1 0x60 DUP2 MSTORE POP SWAP1 JUMP JUMPDEST PUSH1 0x40 MLOAD DUP1 PUSH1 0x40 ADD PUSH1 0x40 MSTORE DUP1 PUSH1 0x0 DUP2 MSTORE PUSH1 0x20 ADD PUSH1 0x0 DUP2 MSTORE POP SWAP1 JUMP JUMPDEST JUMPDEST DUP1 DUP3 GT ISZERO PUSH3 0x1068 JUMPI PUSH1 0x0 DUP2 DUP2 PUSH3 0x105E SWAP2 SWAP1 PUSH3 0x10A5 JUMP JUMPDEST POP PUSH1 0x1 ADD PUSH3 0x1045 JUMP JUMPDEST POP SWAP1 JUMP JUMPDEST JUMPDEST DUP1 DUP3 GT ISZERO PUSH3 0x1087 JUMPI PUSH1 0x0 DUP2 PUSH1 0x0 SWAP1 SSTORE POP PUSH1 0x1 ADD PUSH3 0x106D JUMP JUMPDEST POP SWAP1 JUMP JUMPDEST PUSH1 0x40 MLOAD DUP1 PUSH1 0x40 ADD PUSH1 0x40 MSTORE DUP1 PUSH1 0x60 DUP2 MSTORE PUSH1 0x20 ADD PUSH1 0x0 DUP2 MSTORE POP SWAP1 JUMP JUMPDEST POP DUP1 SLOAD PUSH3 0x10B3 SWAP1 PUSH3 0x1535 JUMP JUMPDEST PUSH1 0x0 DUP3 SSTORE DUP1 PUSH1 0x1F LT PUSH3 0x10C7 JUMPI POP PUSH3 0x10E8 JUMP JUMPDEST PUSH1 0x1F ADD PUSH1 0x20 SWAP1 DIV SWAP1 PUSH1 0x0 MSTORE PUSH1 0x20 PUSH1 0x0 KECCAK256 SWAP1 DUP2 ADD SWAP1 PUSH3 0x10E7 SWAP2 SWAP1 PUSH3 0x106C JUMP JUMPDEST JUMPDEST POP JUMP JUMPDEST PUSH1 0x0 PUSH3 0x1102 PUSH3 0x10FC DUP5 PUSH3 0x120F JUMP JUMPDEST PUSH3 0x11E6 JUMP JUMPDEST SWAP1 POP DUP3 DUP2 MSTORE PUSH1 0x20 DUP2 ADD DUP5 DUP5 DUP5 ADD GT ISZERO PUSH3 0x1121 JUMPI PUSH3 0x1120 PUSH3 0x170E JUMP JUMPDEST JUMPDEST PUSH3 0x112E DUP5 DUP3 DUP6 PUSH3 0x14FF JUMP JUMPDEST POP SWAP4 SWAP3 POP POP POP JUMP JUMPDEST PUSH1 0x0 DUP3 PUSH1 0x1F DUP4 ADD SLT PUSH3 0x114E JUMPI PUSH3 0x114D PUSH3 0x1709 JUMP JUMPDEST JUMPDEST DUP2 MLOAD PUSH3 0x1160 DUP5 DUP3 PUSH1 0x20 DUP7 ADD PUSH3 0x10EB JUMP JUMPDEST SWAP2 POP POP SWAP3 SWAP2 POP POP JUMP JUMPDEST PUSH1 0x0 DUP2 MLOAD SWAP1 POP PUSH3 0x117A DUP2 PUSH3 0x173B JUMP JUMPDEST SWAP3 SWAP2 POP POP JUMP JUMPDEST PUSH1 0x0 DUP1 PUSH1 0x40 DUP4 DUP6 SUB SLT ISZERO PUSH3 0x119A JUMPI PUSH3 0x1199 PUSH3 0x1718 JUMP JUMPDEST JUMPDEST PUSH1 0x0 DUP4 ADD MLOAD PUSH8 0xFFFFFFFFFFFFFFFF DUP2 GT ISZERO PUSH3 0x11BB JUMPI PUSH3 0x11BA PUSH3 0x1713 JUMP JUMPDEST JUMPDEST PUSH3 0x11C9 DUP6 DUP3 DUP7 ADD PUSH3 0x1136 JUMP JUMPDEST SWAP3 POP POP PUSH1 0x20 PUSH3 0x11DC DUP6 DUP3 DUP7 ADD PUSH3 0x1169 JUMP JUMPDEST SWAP2 POP POP SWAP3 POP SWAP3 SWAP1 POP JUMP JUMPDEST PUSH1 0x0 PUSH3 0x11F2 PUSH3 0x1205 JUMP JUMPDEST SWAP1 POP PUSH3 0x1200 DUP3 DUP3 PUSH3 0x156B JUMP JUMPDEST SWAP2 SWAP1 POP JUMP JUMPDEST PUSH1 0x0 PUSH1 0x40 MLOAD SWAP1 POP SWAP1 JUMP JUMPDEST PUSH1 0x0 PUSH8 0xFFFFFFFFFFFFFFFF DUP3 GT ISZERO PUSH3 0x122D JUMPI PUSH3 0x122C PUSH3 0x16DA JUMP JUMPDEST JUMPDEST PUSH3 0x1238 DUP3 PUSH3 0x171D JUMP JUMPDEST SWAP1 POP PUSH1 0x20 DUP2 ADD SWAP1 POP SWAP2 SWAP1 POP JUMP JUMPDEST PUSH1 0x0 PUSH3 0x1252 DUP3 PUSH3 0x14E8 JUMP JUMPDEST SWAP2 POP PUSH3 0x125F DUP4 PUSH3 0x14E8 JUMP JUMPDEST SWAP3 POP DUP3 PUSH32 0xFFFFFFFFFFFFFFFFFFFFFFFFFFFFFFFFFFFFFFFFFFFFFFFFFFFFFFFFFFFFFFFF SUB DUP3 GT ISZERO PUSH3 0x1297 JUMPI PUSH3 0x1296 PUSH3 0x161E JUMP JUMPDEST JUMPDEST DUP3 DUP3 ADD SWAP1 POP SWAP3 SWAP2 POP POP JUMP JUMPDEST PUSH1 0x0 PUSH3 0x12AF DUP3 PUSH3 0x14E8 JUMP JUMPDEST SWAP2 POP PUSH3 0x12BC DUP4 PUSH3 0x14E8 JUMP JUMPDEST SWAP3 POP DUP3 PUSH3 0x12CF JUMPI PUSH3 0x12CE PUSH3 0x164D JUMP JUMPDEST JUMPDEST DUP3 DUP3 DIV SWAP1 POP SWAP3 SWAP2 POP POP JUMP JUMPDEST PUSH1 0x0 DUP1 DUP3 SWAP2 POP DUP4 SWAP1 POP JUMPDEST PUSH1 0x1 DUP6 GT ISZERO PUSH3 0x132C JUMPI DUP1 DUP7 DIV DUP2 GT ISZERO PUSH3 0x1304 JUMPI PUSH3 0x1303 PUSH3 0x161E JUMP JUMPDEST JUMPDEST PUSH1 0x1 DUP6 AND ISZERO PUSH3 0x1314 JUMPI DUP1 DUP3 MUL SWAP2 POP JUMPDEST DUP1 DUP2 MUL SWAP1 POP PUSH3 0x1324 DUP6 PUSH3 0x172E JUMP JUMPDEST SWAP5 POP PUSH3 0x12E4 JUMP JUMPDEST SWAP5 POP SWAP5 SWAP3 POP POP POP JUMP JUMPDEST PUSH1 0x0 PUSH3 0x1342 DUP3 PUSH3 0x14E8 JUMP JUMPDEST SWAP2 POP PUSH3 0x134F DUP4 PUSH3 0x14E8 JUMP JUMPDEST SWAP3 POP PUSH3 0x137E PUSH32 0xFFFFFFFFFFFFFFFFFFFFFFFFFFFFFFFFFFFFFFFFFFFFFFFFFFFFFFFFFFFFFFFF DUP5 DUP5 PUSH3 0x1386 JUMP JUMPDEST SWAP1 POP SWAP3 SWAP2 POP POP JUMP JUMPDEST PUSH1 0x0 DUP3 PUSH3 0x1398 JUMPI PUSH1 0x1 SWAP1 POP PUSH3 0x146B JUMP JUMPDEST DUP2 PUSH3 0x13A8 JUMPI PUSH1 0x0 SWAP1 POP PUSH3 0x146B JUMP JUMPDEST DUP2 PUSH1 0x1 DUP2 EQ PUSH3 0x13C1 JUMPI PUSH1 0x2 DUP2 EQ PUSH3 0x13CC JUMPI PUSH3 0x1402 JUMP JUMPDEST PUSH1 0x1 SWAP2 POP POP PUSH3 0x146B JUMP JUMPDEST PUSH1 0xFF DUP5 GT ISZERO PUSH3 0x13E1 JUMPI PUSH3 0x13E0 PUSH3 0x161E JUMP JUMPDEST JUMPDEST DUP4 PUSH1 0x2 EXP SWAP2 POP DUP5 DUP3 GT ISZERO PUSH3 0x13FB JUMPI PUSH3 0x13FA PUSH3 0x161E JUMP JUMPDEST JUMPDEST POP PUSH3 0x146B JUMP JUMPDEST POP PUSH1 0x20 DUP4 LT PUSH2 0x133 DUP4 LT AND PUSH1 0x4E DUP5 LT PUSH1 0xB DUP5 LT AND OR ISZERO PUSH3 0x143C JUMPI DUP3 DUP3 EXP SWAP1 POP DUP4 DUP2 GT ISZERO PUSH3 0x1436 JUMPI PUSH3 0x1435 PUSH3 0x161E JUMP JUMPDEST JUMPDEST PUSH3 0x146B JUMP JUMPDEST PUSH3 0x144B DUP5 DUP5 DUP5 PUSH1 0x1 PUSH3 0x12DA JUMP JUMPDEST SWAP3 POP SWAP1 POP DUP2 DUP5 DIV DUP2 GT ISZERO PUSH3 0x1465 JUMPI PUSH3 0x1464 PUSH3 0x161E JUMP JUMPDEST JUMPDEST DUP2 DUP2 MUL SWAP1 POP JUMPDEST SWAP4 SWAP3 POP POP POP JUMP JUMPDEST PUSH1 0x0 PUSH3 0x147F DUP3 PUSH3 0x14E8 JUMP JUMPDEST SWAP2 POP PUSH3 0x148C DUP4 PUSH3 0x14E8 JUMP JUMPDEST SWAP3 POP DUP3 DUP3 LT ISZERO PUSH3 0x14A2 JUMPI PUSH3 0x14A1 PUSH3 0x161E JUMP JUMPDEST JUMPDEST DUP3 DUP3 SUB SWAP1 POP SWAP3 SWAP2 POP POP JUMP JUMPDEST PUSH1 0x0 PUSH3 0x14BA DUP3 PUSH3 0x14F2 JUMP JUMPDEST SWAP2 POP PUSH3 0x14C7 DUP4 PUSH3 0x14F2 JUMP JUMPDEST SWAP3 POP DUP3 DUP3 LT ISZERO PUSH3 0x14DD JUMPI PUSH3 0x14DC PUSH3 0x161E JUMP JUMPDEST JUMPDEST DUP3 DUP3 SUB SWAP1 POP SWAP3 SWAP2 POP POP JUMP JUMPDEST PUSH1 0x0 DUP2 SWAP1 POP SWAP2 SWAP1 POP JUMP JUMPDEST PUSH1 0x0 PUSH1 0xFF DUP3 AND SWAP1 POP SWAP2 SWAP1 POP JUMP JUMPDEST PUSH1 0x0 JUMPDEST DUP4 DUP2 LT ISZERO PUSH3 0x151F JUMPI DUP1 DUP3 ADD MLOAD DUP2 DUP5 ADD MSTORE PUSH1 0x20 DUP2 ADD SWAP1 POP PUSH3 0x1502 JUMP JUMPDEST DUP4 DUP2 GT ISZERO PUSH3 0x152F JUMPI PUSH1 0x0 DUP5 DUP5 ADD MSTORE JUMPDEST POP POP POP POP JUMP JUMPDEST PUSH1 0x0 PUSH1 0x2 DUP3 DIV SWAP1 POP PUSH1 0x1 DUP3 AND DUP1 PUSH3 0x154E JUMPI PUSH1 0x7F DUP3 AND SWAP2 POP JUMPDEST PUSH1 0x20 DUP3 LT DUP2 EQ ISZERO PUSH3 0x1565 JUMPI PUSH3 0x1564 PUSH3 0x167C JUMP JUMPDEST JUMPDEST POP SWAP2 SWAP1 POP JUMP JUMPDEST PUSH3 0x1576 DUP3 PUSH3 0x171D JUMP JUMPDEST DUP2 ADD DUP2 DUP2 LT PUSH8 0xFFFFFFFFFFFFFFFF DUP3 GT OR ISZERO PUSH3 0x1598 JUMPI PUSH3 0x1597 PUSH3 0x16DA JUMP JUMPDEST JUMPDEST DUP1 PUSH1 0x40 MSTORE POP POP POP JUMP JUMPDEST PUSH1 0x0 PUSH3 0x15AE DUP3 PUSH3 0x14E8 JUMP JUMPDEST SWAP2 POP PUSH32 0xFFFFFFFFFFFFFFFFFFFFFFFFFFFFFFFFFFFFFFFFFFFFFFFFFFFFFFFFFFFFFFFF DUP3 EQ ISZERO PUSH3 0x15E4 JUMPI PUSH3 0x15E3 PUSH3 0x161E JUMP JUMPDEST JUMPDEST PUSH1 0x1 DUP3 ADD SWAP1 POP SWAP2 SWAP1 POP JUMP JUMPDEST PUSH1 0x0 PUSH3 0x15FC DUP3 PUSH3 0x14F2 JUMP JUMPDEST SWAP2 POP PUSH1 0xFF DUP3 EQ ISZERO PUSH3 0x1613 JUMPI PUSH3 0x1612 PUSH3 0x161E JUMP JUMPDEST JUMPDEST PUSH1 0x1 DUP3 ADD SWAP1 POP SWAP2 SWAP1 POP JUMP JUMPDEST PUSH32 0x4E487B7100000000000000000000000000000000000000000000000000000000 PUSH1 0x0 MSTORE PUSH1 0x11 PUSH1 0x4 MSTORE PUSH1 0x24 PUSH1 0x0 REVERT JUMPDEST PUSH32 0x4E487B7100000000000000000000000000000000000000000000000000000000 PUSH1 0x0 MSTORE PUSH1 0x12 PUSH1 0x4 MSTORE PUSH1 0x24 PUSH1 0x0 REVERT JUMPDEST PUSH32 0x4E487B7100000000000000000000000000000000000000000000000000000000 PUSH1 0x0 MSTORE PUSH1 0x22 PUSH1 0x4 MSTORE PUSH1 0x24 PUSH1 0x0 REVERT JUMPDEST PUSH32 0x4E487B7100000000000000000000000000000000000000000000000000000000 PUSH1 0x0 MSTORE PUSH1 0x32 PUSH1 0x4 MSTORE PUSH1 0x24 PUSH1 0x0 REVERT JUMPDEST PUSH32 0x4E487B7100000000000000000000000000000000000000000000000000000000 PUSH1 0x0 MSTORE PUSH1 0x41 PUSH1 0x4 MSTORE PUSH1 0x24 PUSH1 0x0 REVERT JUMPDEST PUSH1 0x0 DUP1 REVERT JUMPDEST PUSH1 0x0 DUP1 REVERT JUMPDEST PUSH1 0x0 DUP1 REVERT JUMPDEST PUSH1 0x0 DUP1 REVERT JUMPDEST PUSH1 0x0 PUSH1 0x1F NOT PUSH1 0x1F DUP4 ADD AND SWAP1 POP SWAP2 SWAP1 POP JUMP JUMPDEST PUSH1 0x0 DUP2 PUSH1 0x1 SHR SWAP1 POP SWAP2 SWAP1 POP JUMP JUMPDEST PUSH3 0x1746 DUP2 PUSH3 0x14E8 JUMP JUMPDEST DUP2 EQ PUSH3 0x1752 JUMPI PUSH1 0x0 DUP1 REVERT JUMPDEST POP JUMP JUMPDEST PUSH2 0x3FC5 DUP1 PUSH3 0x1765 PUSH1 0x0 CODECOPY PUSH1 0x0 RETURN INVALID PUSH1 0x80 PUSH1 0x40 MSTORE CALLVALUE DUP1 ISZERO PUSH2 0x10 JUMPI PUSH1 0x0 DUP1 REVERT JUMPDEST POP PUSH1 0x4 CALLDATASIZE LT PUSH2 0xEA JUMPI PUSH1 0x0 CALLDATALOAD PUSH1 0xE0 SHR DUP1 PUSH4 0x5EF271C6 GT PUSH2 0x8C JUMPI DUP1 PUSH4 0xBBA8C1BA GT PUSH2 0x66 JUMPI DUP1 PUSH4 0xBBA8C1BA EQ PUSH2 0x2AD JUMPI DUP1 PUSH4 0xD872852E EQ PUSH2 0x2DE JUMPI DUP1 PUSH4 0xF219ACBF EQ PUSH2 0x30E JUMPI DUP1 PUSH4 0xF96B45C7 EQ PUSH2 0x32A JUMPI PUSH2 0xEA JUMP JUMPDEST DUP1 PUSH4 0x5EF271C6 EQ PUSH2 0x22C JUMPI DUP1 PUSH4 0x70FBF2C4 EQ PUSH2 0x25C JUMPI DUP1 PUSH4 0x9AC95237 EQ PUSH2 0x27D JUMPI PUSH2 0xEA JUMP JUMPDEST DUP1 PUSH4 0x2B0B6324 GT PUSH2 0xC8 JUMPI DUP1 PUSH4 0x2B0B6324 EQ PUSH2 0x180 JUMPI DUP1 PUSH4 0x2F315F9E EQ PUSH2 0x1B0 JUMPI DUP1 PUSH4 0x38EB059E EQ PUSH2 0x1E0 JUMPI DUP1 PUSH4 0x402C5C09 EQ PUSH2 0x1FC JUMPI PUSH2 0xEA JUMP JUMPDEST DUP1 PUSH4 0x647A0D3 EQ PUSH2 0xEF JUMPI DUP1 PUSH4 0x8EB6FC6 EQ PUSH2 0x11F JUMPI DUP1 PUSH4 0xB1DD55E EQ PUSH2 0x14F JUMPI JUMPDEST PUSH1 0x0 DUP1 REVERT JUMPDEST PUSH2 0x109 PUSH1 0x4 DUP1 CALLDATASIZE SUB DUP2 ADD SWAP1 PUSH2 0x104 SWAP2 SWAP1 PUSH2 0x2C4B JUMP JUMPDEST PUSH2 0x35A JUMP JUMPDEST PUSH1 0x40 MLOAD PUSH2 0x116 SWAP2 SWAP1 PUSH2 0x33CA JUMP JUMPDEST PUSH1 0x40 MLOAD DUP1 SWAP2 SUB SWAP1 RETURN JUMPDEST PUSH2 0x139 PUSH1 0x4 DUP1 CALLDATASIZE SUB DUP2 ADD SWAP1 PUSH2 0x134 SWAP2 SWAP1 PUSH2 0x2C4B JUMP JUMPDEST PUSH2 0x90F JUMP JUMPDEST PUSH1 0x40 MLOAD PUSH2 0x146 SWAP2 SWAP1 PUSH2 0x336A JUMP JUMPDEST PUSH1 0x40 MLOAD DUP1 SWAP2 SUB SWAP1 RETURN JUMPDEST PUSH2 0x169 PUSH1 0x4 DUP1 CALLDATASIZE SUB DUP2 ADD SWAP1 PUSH2 0x164 SWAP2 SWAP1 PUSH2 0x2ABF JUMP JUMPDEST PUSH2 0xAF0 JUMP JUMPDEST PUSH1 0x40 MLOAD PUSH2 0x177 SWAP3 SWAP2 SWAP1 PUSH2 0x35EB JUMP JUMPDEST PUSH1 0x40 MLOAD DUP1 SWAP2 SUB SWAP1 RETURN JUMPDEST PUSH2 0x19A PUSH1 0x4 DUP1 CALLDATASIZE SUB DUP2 ADD SWAP1 PUSH2 0x195 SWAP2 SWAP1 PUSH2 0x2D32 JUMP JUMPDEST PUSH2 0xB9E JUMP JUMPDEST PUSH1 0x40 MLOAD PUSH2 0x1A7 SWAP2 SWAP1 PUSH2 0x33CA JUMP JUMPDEST PUSH1 0x40 MLOAD DUP1 SWAP2 SUB SWAP1 RETURN JUMPDEST PUSH2 0x1CA PUSH1 0x4 DUP1 CALLDATASIZE SUB DUP2 ADD SWAP1 PUSH2 0x1C5 SWAP2 SWAP1 PUSH2 0x2B93 JUMP JUMPDEST PUSH2 0xC42 JUMP JUMPDEST PUSH1 0x40 MLOAD PUSH2 0x1D7 SWAP2 SWAP1 PUSH2 0x35A7 JUMP JUMPDEST PUSH1 0x40 MLOAD DUP1 SWAP2 SUB SWAP1 RETURN JUMPDEST PUSH2 0x1FA PUSH1 0x4 DUP1 CALLDATASIZE SUB DUP2 ADD SWAP1 PUSH2 0x1F5 SWAP2 SWAP1 PUSH2 0x2B37 JUMP JUMPDEST PUSH2 0xD2B JUMP JUMPDEST STOP JUMPDEST PUSH2 0x216 PUSH1 0x4 DUP1 CALLDATASIZE SUB DUP2 ADD SWAP1 PUSH2 0x211 SWAP2 SWAP1 PUSH2 0x2CC3 JUMP JUMPDEST PUSH2 0xF3B JUMP JUMPDEST PUSH1 0x40 MLOAD PUSH2 0x223 SWAP2 SWAP1 PUSH2 0x33CA JUMP JUMPDEST PUSH1 0x40 MLOAD DUP1 SWAP2 SUB SWAP1 RETURN JUMPDEST PUSH2 0x246 PUSH1 0x4 DUP1 CALLDATASIZE SUB DUP2 ADD SWAP1 PUSH2 0x241 SWAP2 SWAP1 PUSH2 0x2B93 JUMP JUMPDEST PUSH2 0x1183 JUMP JUMPDEST PUSH1 0x40 MLOAD PUSH2 0x253 SWAP2 SWAP1 PUSH2 0x35C9 JUMP JUMPDEST PUSH1 0x40 MLOAD DUP1 SWAP2 SUB SWAP1 RETURN JUMPDEST PUSH2 0x264 PUSH2 0x1442 JUMP JUMPDEST PUSH1 0x40 MLOAD PUSH2 0x274 SWAP5 SWAP4 SWAP3 SWAP2 SWAP1 PUSH2 0x3614 JUMP JUMPDEST PUSH1 0x40 MLOAD DUP1 SWAP2 SUB SWAP1 RETURN JUMPDEST PUSH2 0x297 PUSH1 0x4 DUP1 CALLDATASIZE SUB DUP2 ADD SWAP1 PUSH2 0x292 SWAP2 SWAP1 PUSH2 0x2D5F JUMP JUMPDEST PUSH2 0x1462 JUMP JUMPDEST PUSH1 0x40 MLOAD PUSH2 0x2A4 SWAP2 SWAP1 PUSH2 0x3318 JUMP JUMPDEST PUSH1 0x40 MLOAD DUP1 SWAP2 SUB SWAP1 RETURN JUMPDEST PUSH2 0x2C7 PUSH1 0x4 DUP1 CALLDATASIZE SUB DUP2 ADD SWAP1 PUSH2 0x2C2 SWAP2 SWAP1 PUSH2 0x2D32 JUMP JUMPDEST PUSH2 0x1670 JUMP JUMPDEST PUSH1 0x40 MLOAD PUSH2 0x2D5 SWAP3 SWAP2 SWAP1 PUSH2 0x333A JUMP JUMPDEST PUSH1 0x40 MLOAD DUP1 SWAP2 SUB SWAP1 RETURN JUMPDEST PUSH2 0x2F8 PUSH1 0x4 DUP1 CALLDATASIZE SUB DUP2 ADD SWAP1 PUSH2 0x2F3 SWAP2 SWAP1 PUSH2 0x2D32 JUMP JUMPDEST PUSH2 0x1852 JUMP JUMPDEST PUSH1 0x40 MLOAD PUSH2 0x305 SWAP2 SWAP1 PUSH2 0x3318 JUMP JUMPDEST PUSH1 0x40 MLOAD DUP1 SWAP2 SUB SWAP1 RETURN JUMPDEST PUSH2 0x328 PUSH1 0x4 DUP1 CALLDATASIZE SUB DUP2 ADD SWAP1 PUSH2 0x323 SWAP2 SWAP1 PUSH2 0x2DBB JUMP JUMPDEST PUSH2 0x193E JUMP JUMPDEST STOP JUMPDEST PUSH2 0x344 PUSH1 0x4 DUP1 CALLDATASIZE SUB DUP2 ADD SWAP1 PUSH2 0x33F SWAP2 SWAP1 PUSH2 0x2BDC JUMP JUMPDEST PUSH2 0x1A12 JUMP JUMPDEST PUSH1 0x40 MLOAD PUSH2 0x351 SWAP2 SWAP1 PUSH2 0x336A JUMP JUMPDEST PUSH1 0x40 MLOAD DUP1 SWAP2 SUB SWAP1 RETURN JUMPDEST PUSH1 0x60 PUSH2 0xFFFF DUP4 MLOAD LT PUSH2 0x3A1 JUMPI PUSH1 0x40 MLOAD PUSH32 0x8C379A000000000000000000000000000000000000000000000000000000000 DUP2 MSTORE PUSH1 0x4 ADD PUSH2 0x398 SWAP1 PUSH2 0x340C JUMP JUMPDEST PUSH1 0x40 MLOAD DUP1 SWAP2 SUB SWAP1 REVERT JUMPDEST DUP2 MLOAD DUP4 MLOAD GT PUSH2 0x3E5 JUMPI PUSH1 0x40 MLOAD PUSH32 0x8C379A000000000000000000000000000000000000000000000000000000000 DUP2 MSTORE PUSH1 0x4 ADD PUSH2 0x3DC SWAP1 PUSH2 0x33EC JUMP JUMPDEST PUSH1 0x40 MLOAD DUP1 SWAP2 SUB SWAP1 REVERT JUMPDEST PUSH1 0x0 PUSH1 0x2 DUP4 MLOAD PUSH2 0x3F5 SWAP2 SWAP1 PUSH2 0x3A30 JUMP JUMPDEST SWAP1 POP PUSH1 0x0 DUP1 DUP1 PUSH1 0x1 DUP5 DUP9 MLOAD PUSH2 0x40A SWAP2 SWAP1 PUSH2 0x3A30 JUMP JUMPDEST PUSH2 0x414 SWAP2 SWAP1 PUSH2 0x37A7 JUMP JUMPDEST SWAP1 POP PUSH2 0x101 DUP2 GT ISZERO PUSH2 0x5B7 JUMPI DUP1 PUSH8 0xFFFFFFFFFFFFFFFF DUP2 GT ISZERO PUSH2 0x43A JUMPI PUSH2 0x439 PUSH2 0x3CE4 JUMP JUMPDEST JUMPDEST PUSH1 0x40 MLOAD SWAP1 DUP1 DUP3 MSTORE DUP1 PUSH1 0x1F ADD PUSH1 0x1F NOT AND PUSH1 0x20 ADD DUP3 ADD PUSH1 0x40 MSTORE DUP1 ISZERO PUSH2 0x46C JUMPI DUP2 PUSH1 0x20 ADD PUSH1 0x1 DUP3 MUL DUP1 CALLDATASIZE DUP4 CALLDATACOPY DUP1 DUP3 ADD SWAP2 POP POP SWAP1 POP JUMPDEST POP SWAP5 POP PUSH1 0xF9 PUSH1 0xF8 SHL DUP6 DUP5 DUP2 MLOAD DUP2 LT PUSH2 0x487 JUMPI PUSH2 0x486 PUSH2 0x3CB5 JUMP JUMPDEST JUMPDEST PUSH1 0x20 ADD ADD SWAP1 PUSH31 0xFFFFFFFFFFFFFFFFFFFFFFFFFFFFFFFFFFFFFFFFFFFFFFFFFFFFFFFFFFFFFF NOT AND SWAP1 DUP2 PUSH1 0x0 BYTE SWAP1 MSTORE8 POP DUP3 DUP1 PUSH2 0x4C1 SWAP1 PUSH2 0x3BAE JUMP JUMPDEST SWAP4 POP POP PUSH1 0x3 DUP2 PUSH2 0x4D1 SWAP2 SWAP1 PUSH2 0x3A30 JUMP JUMPDEST PUSH1 0xF0 SHL PUSH1 0x0 PUSH1 0x2 DUP2 LT PUSH2 0x4E7 JUMPI PUSH2 0x4E6 PUSH2 0x3CB5 JUMP JUMPDEST JUMPDEST BYTE PUSH1 0xF8 SHL DUP6 DUP5 DUP2 MLOAD DUP2 LT PUSH2 0x4FE JUMPI PUSH2 0x4FD PUSH2 0x3CB5 JUMP JUMPDEST JUMPDEST PUSH1 0x20 ADD ADD SWAP1 PUSH31 0xFFFFFFFFFFFFFFFFFFFFFFFFFFFFFFFFFFFFFFFFFFFFFFFFFFFFFFFFFFFFFF NOT AND SWAP1 DUP2 PUSH1 0x0 BYTE SWAP1 MSTORE8 POP DUP3 DUP1 PUSH2 0x538 SWAP1 PUSH2 0x3BAE JUMP JUMPDEST SWAP4 POP POP PUSH1 0x3 DUP2 PUSH2 0x548 SWAP2 SWAP1 PUSH2 0x3A30 JUMP JUMPDEST PUSH1 0xF0 SHL PUSH1 0x1 PUSH1 0x2 DUP2 LT PUSH2 0x55E JUMPI PUSH2 0x55D PUSH2 0x3CB5 JUMP JUMPDEST JUMPDEST BYTE PUSH1 0xF8 SHL DUP6 DUP5 DUP2 MLOAD DUP2 LT PUSH2 0x575 JUMPI PUSH2 0x574 PUSH2 0x3CB5 JUMP JUMPDEST JUMPDEST PUSH1 0x20 ADD ADD SWAP1 PUSH31 0xFFFFFFFFFFFFFFFFFFFFFFFFFFFFFFFFFFFFFFFFFFFFFFFFFFFFFFFFFFFFFF NOT AND SWAP1 DUP2 PUSH1 0x0 BYTE SWAP1 MSTORE8 POP DUP3 DUP1 PUSH2 0x5AF SWAP1 PUSH2 0x3BAE JUMP JUMPDEST SWAP4 POP POP PUSH2 0x6C7 JUMP JUMPDEST PUSH1 0x1 DUP2 PUSH2 0x5C4 SWAP2 SWAP1 PUSH2 0x3A30 JUMP JUMPDEST PUSH8 0xFFFFFFFFFFFFFFFF DUP2 GT ISZERO PUSH2 0x5DD JUMPI PUSH2 0x5DC PUSH2 0x3CE4 JUMP JUMPDEST JUMPDEST PUSH1 0x40 MLOAD SWAP1 DUP1 DUP3 MSTORE DUP1 PUSH1 0x1F ADD PUSH1 0x1F NOT AND PUSH1 0x20 ADD DUP3 ADD PUSH1 0x40 MSTORE DUP1 ISZERO PUSH2 0x60F JUMPI DUP2 PUSH1 0x20 ADD PUSH1 0x1 DUP3 MUL DUP1 CALLDATASIZE DUP4 CALLDATACOPY DUP1 DUP3 ADD SWAP2 POP POP SWAP1 POP JUMPDEST POP SWAP5 POP PUSH1 0xF8 DUP1 SHL DUP6 DUP5 DUP2 MLOAD DUP2 LT PUSH2 0x629 JUMPI PUSH2 0x628 PUSH2 0x3CB5 JUMP JUMPDEST JUMPDEST PUSH1 0x20 ADD ADD SWAP1 PUSH31 0xFFFFFFFFFFFFFFFFFFFFFFFFFFFFFFFFFFFFFFFFFFFFFFFFFFFFFFFFFFFFFF NOT AND SWAP1 DUP2 PUSH1 0x0 BYTE SWAP1 MSTORE8 POP DUP3 DUP1 PUSH2 0x663 SWAP1 PUSH2 0x3BAE JUMP JUMPDEST SWAP4 POP POP PUSH1 0x2 DUP2 PUSH2 0x673 SWAP2 SWAP1 PUSH2 0x3A30 JUMP JUMPDEST PUSH1 0xF8 SHL DUP6 DUP5 DUP2 MLOAD DUP2 LT PUSH2 0x689 JUMPI PUSH2 0x688 PUSH2 0x3CB5 JUMP JUMPDEST JUMPDEST PUSH1 0x20 ADD ADD SWAP1 PUSH31 0xFFFFFFFFFFFFFFFFFFFFFFFFFFFFFFFFFFFFFFFFFFFFFFFFFFFFFFFFFFFFFF NOT AND SWAP1 DUP2 PUSH1 0x0 BYTE SWAP1 MSTORE8 POP DUP3 DUP1 PUSH2 0x6C3 SWAP1 PUSH2 0x3BAE JUMP JUMPDEST SWAP4 POP POP JUMPDEST PUSH1 0x0 JUMPDEST DUP8 MLOAD DUP2 LT ISZERO PUSH2 0x7E0 JUMPI PUSH1 0x0 JUMPDEST DUP6 DUP2 LT ISZERO PUSH2 0x7CC JUMPI DUP9 MLOAD DUP2 DUP4 PUSH2 0x6EC SWAP2 SWAP1 PUSH2 0x37A7 JUMP JUMPDEST EQ ISZERO PUSH2 0x700 JUMPI DUP9 SWAP7 POP POP POP POP POP POP POP PUSH2 0x909 JUMP JUMPDEST DUP8 PUSH1 0x2 DUP3 PUSH2 0x70E SWAP2 SWAP1 PUSH2 0x37A7 JUMP JUMPDEST DUP2 MLOAD DUP2 LT PUSH2 0x71F JUMPI PUSH2 0x71E PUSH2 0x3CB5 JUMP JUMPDEST JUMPDEST PUSH1 0x20 ADD ADD MLOAD PUSH1 0xF8 SHR PUSH1 0xF8 SHL PUSH31 0xFFFFFFFFFFFFFFFFFFFFFFFFFFFFFFFFFFFFFFFFFFFFFFFFFFFFFFFFFFFFFF NOT AND DUP10 DUP3 DUP5 PUSH2 0x759 SWAP2 SWAP1 PUSH2 0x37A7 JUMP JUMPDEST DUP2 MLOAD DUP2 LT PUSH2 0x76A JUMPI PUSH2 0x769 PUSH2 0x3CB5 JUMP JUMPDEST JUMPDEST PUSH1 0x20 ADD ADD MLOAD PUSH1 0xF8 SHR PUSH1 0xF8 SHL PUSH31 0xFFFFFFFFFFFFFFFFFFFFFFFFFFFFFFFFFFFFFFFFFFFFFFFFFFFFFFFFFFFFFF NOT AND EQ PUSH2 0x7A1 JUMPI PUSH2 0x7CC JUMP JUMPDEST PUSH1 0x1 DUP7 PUSH2 0x7AE SWAP2 SWAP1 PUSH2 0x3A30 JUMP JUMPDEST DUP2 EQ ISZERO PUSH2 0x7B9 JUMPI DUP2 SWAP4 POP JUMPDEST DUP1 DUP1 PUSH2 0x7C4 SWAP1 PUSH2 0x3BAE JUMP JUMPDEST SWAP2 POP POP PUSH2 0x6D6 JUMP JUMPDEST POP DUP1 DUP1 PUSH2 0x7D8 SWAP1 PUSH2 0x3BAE JUMP JUMPDEST SWAP2 POP POP PUSH2 0x6CA JUMP JUMPDEST POP PUSH1 0x0 PUSH2 0x101 DUP9 MLOAD GT ISZERO PUSH2 0x7F7 JUMPI PUSH1 0x3 SWAP1 POP PUSH2 0x7FC JUMP JUMPDEST PUSH1 0x2 SWAP1 POP JUMPDEST JUMPDEST DUP8 MLOAD DUP2 LT ISZERO PUSH2 0x903 JUMPI DUP3 DUP2 EQ ISZERO PUSH2 0x864 JUMPI PUSH1 0x80 PUSH1 0xF8 SHL DUP7 DUP3 DUP2 MLOAD DUP2 LT PUSH2 0x826 JUMPI PUSH2 0x825 PUSH2 0x3CB5 JUMP JUMPDEST JUMPDEST PUSH1 0x20 ADD ADD SWAP1 PUSH31 0xFFFFFFFFFFFFFFFFFFFFFFFFFFFFFFFFFFFFFFFFFFFFFFFFFFFFFFFFFFFFFF NOT AND SWAP1 DUP2 PUSH1 0x0 BYTE SWAP1 MSTORE8 POP DUP4 DUP1 PUSH2 0x860 SWAP1 PUSH2 0x3BAE JUMP JUMPDEST SWAP5 POP POP JUMPDEST DUP3 DUP2 LT DUP1 PUSH2 0x87C JUMPI POP DUP5 DUP4 PUSH2 0x879 SWAP2 SWAP1 PUSH2 0x37A7 JUMP JUMPDEST DUP2 GT JUMPDEST ISZERO PUSH2 0x8F0 JUMPI DUP8 DUP2 DUP2 MLOAD DUP2 LT PUSH2 0x894 JUMPI PUSH2 0x893 PUSH2 0x3CB5 JUMP JUMPDEST JUMPDEST PUSH1 0x20 ADD ADD MLOAD PUSH1 0xF8 SHR PUSH1 0xF8 SHL DUP7 DUP6 DUP2 MLOAD DUP2 LT PUSH2 0x8B2 JUMPI PUSH2 0x8B1 PUSH2 0x3CB5 JUMP JUMPDEST JUMPDEST PUSH1 0x20 ADD ADD SWAP1 PUSH31 0xFFFFFFFFFFFFFFFFFFFFFFFFFFFFFFFFFFFFFFFFFFFFFFFFFFFFFFFFFFFFFF NOT AND SWAP1 DUP2 PUSH1 0x0 BYTE SWAP1 MSTORE8 POP DUP4 DUP1 PUSH2 0x8EC SWAP1 PUSH2 0x3BAE JUMP JUMPDEST SWAP5 POP POP JUMPDEST DUP1 DUP1 PUSH2 0x8FB SWAP1 PUSH2 0x3BAE JUMP JUMPDEST SWAP2 POP POP PUSH2 0x7FD JUMP JUMPDEST POP POP POP POP POP JUMPDEST SWAP3 SWAP2 POP POP JUMP JUMPDEST PUSH1 0x0 DUP1 PUSH1 0x1 SWAP1 POP PUSH1 0x0 PUSH2 0x921 DUP6 PUSH2 0xC42 JUMP JUMPDEST SWAP1 POP PUSH1 0x0 PUSH2 0x932 DUP3 PUSH1 0x40 ADD MLOAD PUSH2 0x1D12 JUMP JUMPDEST SWAP1 POP PUSH1 0x0 PUSH2 0x93F DUP3 PUSH2 0x1183 JUMP JUMPDEST SWAP1 POP PUSH1 0x0 DUP7 PUSH1 0x40 MLOAD PUSH1 0x20 ADD PUSH2 0x954 SWAP2 SWAP1 PUSH2 0x3301 JUMP JUMPDEST PUSH1 0x40 MLOAD PUSH1 0x20 DUP2 DUP4 SUB SUB DUP2 MSTORE SWAP1 PUSH1 0x40 MSTORE DUP1 MLOAD SWAP1 PUSH1 0x20 ADD KECCAK256 SWAP1 POP PUSH2 0x97F DUP3 PUSH1 0x0 ADD MLOAD DUP3 DUP7 PUSH1 0x0 ADD MLOAD PUSH2 0x1A12 JUMP JUMPDEST SWAP5 POP PUSH1 0x0 ISZERO ISZERO DUP6 ISZERO ISZERO EQ ISZERO PUSH2 0x9C9 JUMPI PUSH1 0x40 MLOAD PUSH32 0x8C379A000000000000000000000000000000000000000000000000000000000 DUP2 MSTORE PUSH1 0x4 ADD PUSH2 0x9C0 SWAP1 PUSH2 0x345A JUMP JUMPDEST PUSH1 0x40 MLOAD DUP1 SWAP2 SUB SWAP1 REVERT JUMPDEST PUSH32 0xC3B556354C088FBB43886EB83C2A04BC7089663F964D22BE308197A236F5B870 PUSH1 0x1 PUSH1 0x40 MLOAD PUSH2 0x9F9 SWAP2 SWAP1 PUSH2 0x3559 JUMP JUMPDEST PUSH1 0x40 MLOAD DUP1 SWAP2 SUB SWAP1 LOG1 PUSH1 0x0 PUSH1 0x5 SLOAD DUP6 PUSH1 0x20 ADD MLOAD PUSH2 0xA15 SWAP2 SWAP1 PUSH2 0x3BF7 JUMP JUMPDEST EQ ISZERO PUSH2 0xA6B JUMPI PUSH2 0xA2D DUP3 PUSH1 0x60 ADD MLOAD DUP4 PUSH1 0x80 ADD MLOAD PUSH2 0x1462 JUMP JUMPDEST POP PUSH32 0xC3B556354C088FBB43886EB83C2A04BC7089663F964D22BE308197A236F5B870 PUSH1 0x1 PUSH1 0x40 MLOAD PUSH2 0xA5E SWAP2 SWAP1 PUSH2 0x352B JUMP JUMPDEST PUSH1 0x40 MLOAD DUP1 SWAP2 SUB SWAP1 LOG1 PUSH2 0xA6C JUMP JUMPDEST JUMPDEST PUSH1 0x1 PUSH1 0x3 SLOAD PUSH2 0xA7B SWAP2 SWAP1 PUSH2 0x37A7 JUMP JUMPDEST PUSH1 0x3 DUP2 SWAP1 SSTORE POP DUP8 PUSH1 0x0 DUP1 PUSH1 0x3 SLOAD DUP2 MSTORE PUSH1 0x20 ADD SWAP1 DUP2 MSTORE PUSH1 0x20 ADD PUSH1 0x0 KECCAK256 SWAP1 DUP1 MLOAD SWAP1 PUSH1 0x20 ADD SWAP1 PUSH2 0xAA9 SWAP3 SWAP2 SWAP1 PUSH2 0x2732 JUMP JUMPDEST POP PUSH32 0xC3B556354C088FBB43886EB83C2A04BC7089663F964D22BE308197A236F5B870 PUSH1 0x1 PUSH1 0x40 MLOAD PUSH2 0xADA SWAP2 SWAP1 PUSH2 0x34AF JUMP JUMPDEST PUSH1 0x40 MLOAD DUP1 SWAP2 SUB SWAP1 LOG1 DUP5 SWAP6 POP POP POP POP POP POP SWAP3 SWAP2 POP POP JUMP JUMPDEST PUSH1 0x0 DUP1 DUP4 MLOAD DUP4 MLOAD EQ PUSH2 0xB01 JUMPI PUSH1 0x0 DUP1 REVERT JUMPDEST DUP3 MLOAD PUSH1 0x6 SLOAD GT PUSH2 0xB10 JUMPI PUSH1 0x0 DUP1 REVERT JUMPDEST PUSH1 0x0 JUMPDEST DUP5 MLOAD DUP2 LT ISZERO PUSH2 0xB8D JUMPI PUSH1 0x0 PUSH2 0xB5C DUP7 DUP4 DUP2 MLOAD DUP2 LT PUSH2 0xB34 JUMPI PUSH2 0xB33 PUSH2 0x3CB5 JUMP JUMPDEST JUMPDEST PUSH1 0x20 MUL PUSH1 0x20 ADD ADD MLOAD DUP7 DUP5 DUP2 MLOAD DUP2 LT PUSH2 0xB4F JUMPI PUSH2 0xB4E PUSH2 0x3CB5 JUMP JUMPDEST JUMPDEST PUSH1 0x20 MUL PUSH1 0x20 ADD ADD MLOAD PUSH2 0x90F JUMP JUMPDEST SWAP1 POP PUSH1 0x0 ISZERO ISZERO DUP2 ISZERO ISZERO EQ ISZERO PUSH2 0xB79 JUMPI DUP2 PUSH1 0x0 SWAP4 POP SWAP4 POP POP POP PUSH2 0xB97 JUMP JUMPDEST POP DUP1 DUP1 PUSH2 0xB85 SWAP1 PUSH2 0x3BAE JUMP JUMPDEST SWAP2 POP POP PUSH2 0xB13 JUMP JUMPDEST POP DUP4 MLOAD PUSH1 0x1 SWAP2 POP SWAP2 POP JUMPDEST SWAP3 POP SWAP3 SWAP1 POP JUMP JUMPDEST PUSH1 0x60 PUSH1 0x0 DUP1 DUP4 DUP2 MSTORE PUSH1 0x20 ADD SWAP1 DUP2 MSTORE PUSH1 0x20 ADD PUSH1 0x0 KECCAK256 DUP1 SLOAD PUSH2 0xBBD SWAP1 PUSH2 0x3B4B JUMP JUMPDEST DUP1 PUSH1 0x1F ADD PUSH1 0x20 DUP1 SWAP2 DIV MUL PUSH1 0x20 ADD PUSH1 0x40 MLOAD SWAP1 DUP2 ADD PUSH1 0x40 MSTORE DUP1 SWAP3 SWAP2 SWAP1 DUP2 DUP2 MSTORE PUSH1 0x20 ADD DUP3 DUP1 SLOAD PUSH2 0xBE9 SWAP1 PUSH2 0x3B4B JUMP JUMPDEST DUP1 ISZERO PUSH2 0xC36 JUMPI DUP1 PUSH1 0x1F LT PUSH2 0xC0B JUMPI PUSH2 0x100 DUP1 DUP4 SLOAD DIV MUL DUP4 MSTORE SWAP2 PUSH1 0x20 ADD SWAP2 PUSH2 0xC36 JUMP JUMPDEST DUP3 ADD SWAP2 SWAP1 PUSH1 0x0 MSTORE PUSH1 0x20 PUSH1 0x0 KECCAK256 SWAP1 JUMPDEST DUP2 SLOAD DUP2 MSTORE SWAP1 PUSH1 0x1 ADD SWAP1 PUSH1 0x20 ADD DUP1 DUP4 GT PUSH2 0xC19 JUMPI DUP3 SWAP1 SUB PUSH1 0x1F AND DUP3 ADD SWAP2 JUMPDEST POP POP POP POP POP SWAP1 POP SWAP2 SWAP1 POP JUMP JUMPDEST PUSH2 0xC4A PUSH2 0x27B8 JUMP JUMPDEST PUSH1 0x0 PUSH2 0xC5D PUSH2 0xC58 DUP5 PUSH2 0x1ABF JUMP JUMPDEST PUSH2 0x1AED JUMP JUMPDEST SWAP1 POP PUSH1 0x0 DUP2 PUSH1 0x1 DUP2 MLOAD DUP2 LT PUSH2 0xC75 JUMPI PUSH2 0xC74 PUSH2 0x3CB5 JUMP JUMPDEST JUMPDEST PUSH1 0x20 MUL PUSH1 0x20 ADD ADD MLOAD SWAP1 POP PUSH1 0x0 DUP3 PUSH1 0x6 DUP2 MLOAD DUP2 LT PUSH2 0xC95 JUMPI PUSH2 0xC94 PUSH2 0x3CB5 JUMP JUMPDEST JUMPDEST PUSH1 0x20 MUL PUSH1 0x20 ADD ADD MLOAD SWAP1 POP PUSH1 0x0 DUP4 PUSH1 0xA DUP2 MLOAD DUP2 LT PUSH2 0xCB5 JUMPI PUSH2 0xCB4 PUSH2 0x3CB5 JUMP JUMPDEST JUMPDEST PUSH1 0x20 MUL PUSH1 0x20 ADD ADD MLOAD SWAP1 POP PUSH2 0xCC8 DUP4 PUSH2 0x1C02 JUMP JUMPDEST DUP6 PUSH1 0x0 ADD SWAP1 PUSH20 0xFFFFFFFFFFFFFFFFFFFFFFFFFFFFFFFFFFFFFFFF AND SWAP1 DUP2 PUSH20 0xFFFFFFFFFFFFFFFFFFFFFFFFFFFFFFFFFFFFFFFF AND DUP2 MSTORE POP POP PUSH2 0xD08 DUP3 PUSH2 0x1C25 JUMP JUMPDEST DUP6 PUSH1 0x20 ADD DUP2 DUP2 MSTORE POP POP PUSH2 0xD1A DUP2 PUSH2 0x1C7F JUMP JUMPDEST DUP6 PUSH1 0x40 ADD DUP2 SWAP1 MSTORE POP POP POP POP POP SWAP2 SWAP1 POP JUMP JUMPDEST PUSH1 0x4 PUSH1 0x0 SWAP1 SLOAD SWAP1 PUSH2 0x100 EXP SWAP1 DIV PUSH20 0xFFFFFFFFFFFFFFFFFFFFFFFFFFFFFFFFFFFFFFFF AND PUSH20 0xFFFFFFFFFFFFFFFFFFFFFFFFFFFFFFFFFFFFFFFF AND CALLER PUSH20 0xFFFFFFFFFFFFFFFFFFFFFFFFFFFFFFFFFFFFFFFF AND EQ PUSH2 0xDBB JUMPI PUSH1 0x40 MLOAD PUSH32 0x8C379A000000000000000000000000000000000000000000000000000000000 DUP2 MSTORE PUSH1 0x4 ADD PUSH2 0xDB2 SWAP1 PUSH2 0x350B JUMP JUMPDEST PUSH1 0x40 MLOAD DUP1 SWAP2 SUB SWAP1 REVERT JUMPDEST PUSH32 0x7E35A8EDAE38B8A190422EE5A99AAC1F0C00B995A42EB279C0099A723B1452F6 DUP2 PUSH1 0x40 MLOAD PUSH2 0xDEA SWAP2 SWAP1 PUSH2 0x34DD JUMP JUMPDEST PUSH1 0x40 MLOAD DUP1 SWAP2 SUB SWAP1 LOG1 DUP2 MLOAD PUSH8 0xFFFFFFFFFFFFFFFF DUP2 GT ISZERO PUSH2 0xE0D JUMPI PUSH2 0xE0C PUSH2 0x3CE4 JUMP JUMPDEST JUMPDEST PUSH1 0x40 MLOAD SWAP1 DUP1 DUP3 MSTORE DUP1 PUSH1 0x20 MUL PUSH1 0x20 ADD DUP3 ADD PUSH1 0x40 MSTORE DUP1 ISZERO PUSH2 0xE40 JUMPI DUP2 PUSH1 0x20 ADD JUMPDEST PUSH1 0x60 DUP2 MSTORE PUSH1 0x20 ADD SWAP1 PUSH1 0x1 SWAP1 SUB SWAP1 DUP2 PUSH2 0xE2B JUMPI SWAP1 POP JUMPDEST POP PUSH1 0x1 PUSH1 0x0 DUP4 DUP2 MSTORE PUSH1 0x20 ADD SWAP1 DUP2 MSTORE PUSH1 0x20 ADD PUSH1 0x0 KECCAK256 SWAP1 DUP1 MLOAD SWAP1 PUSH1 0x20 ADD SWAP1 PUSH2 0xE67 SWAP3 SWAP2 SWAP1 PUSH2 0x27EF JUMP JUMPDEST POP PUSH1 0x0 JUMPDEST DUP3 MLOAD DUP2 LT ISZERO PUSH2 0xF36 JUMPI PUSH32 0x944698551C4702C21C8EAA8ADE89FC5FFB01B0038278D66FFEE40AD677BB970D DUP4 DUP3 DUP2 MLOAD DUP2 LT PUSH2 0xEA8 JUMPI PUSH2 0xEA7 PUSH2 0x3CB5 JUMP JUMPDEST JUMPDEST PUSH1 0x20 MUL PUSH1 0x20 ADD ADD MLOAD PUSH1 0x40 MLOAD PUSH2 0xEBD SWAP2 SWAP1 PUSH2 0x347A JUMP JUMPDEST PUSH1 0x40 MLOAD DUP1 SWAP2 SUB SWAP1 LOG1 DUP3 DUP2 DUP2 MLOAD DUP2 LT PUSH2 0xED8 JUMPI PUSH2 0xED7 PUSH2 0x3CB5 JUMP JUMPDEST JUMPDEST PUSH1 0x20 MUL PUSH1 0x20 ADD ADD MLOAD PUSH1 0x1 PUSH1 0x0 DUP5 DUP2 MSTORE PUSH1 0x20 ADD SWAP1 DUP2 MSTORE PUSH1 0x20 ADD PUSH1 0x0 KECCAK256 DUP3 DUP2 SLOAD DUP2 LT PUSH2 0xF05 JUMPI PUSH2 0xF04 PUSH2 0x3CB5 JUMP JUMPDEST JUMPDEST SWAP1 PUSH1 0x0 MSTORE PUSH1 0x20 PUSH1 0x0 KECCAK256 ADD SWAP1 DUP1 MLOAD SWAP1 PUSH1 0x20 ADD SWAP1 PUSH2 0xF22 SWAP3 SWAP2 SWAP1 PUSH2 0x2732 JUMP JUMPDEST POP DUP1 DUP1 PUSH2 0xF2E SWAP1 PUSH2 0x3BAE JUMP JUMPDEST SWAP2 POP POP PUSH2 0xE6B JUMP JUMPDEST POP POP POP JUMP JUMPDEST PUSH1 0x60 PUSH1 0x0 PUSH2 0xF48 DUP5 PUSH2 0x1E0A JUMP JUMPDEST SWAP1 POP PUSH1 0x0 PUSH2 0xF55 DUP7 PUSH2 0x1E24 JUMP JUMPDEST SWAP1 POP PUSH1 0x0 PUSH2 0xF62 DUP6 PUSH2 0x1E0A JUMP JUMPDEST SWAP1 POP PUSH1 0x0 DUP2 MLOAD DUP4 MLOAD DUP6 MLOAD PUSH2 0xF76 SWAP2 SWAP1 PUSH2 0x37A7 JUMP JUMPDEST PUSH2 0xF80 SWAP2 SWAP1 PUSH2 0x37A7 JUMP JUMPDEST PUSH8 0xFFFFFFFFFFFFFFFF DUP2 GT ISZERO PUSH2 0xF99 JUMPI PUSH2 0xF98 PUSH2 0x3CE4 JUMP JUMPDEST JUMPDEST PUSH1 0x40 MLOAD SWAP1 DUP1 DUP3 MSTORE DUP1 PUSH1 0x1F ADD PUSH1 0x1F NOT AND PUSH1 0x20 ADD DUP3 ADD PUSH1 0x40 MSTORE DUP1 ISZERO PUSH2 0xFCB JUMPI DUP2 PUSH1 0x20 ADD PUSH1 0x1 DUP3 MUL DUP1 CALLDATASIZE DUP4 CALLDATACOPY DUP1 DUP3 ADD SWAP2 POP POP SWAP1 POP JUMPDEST POP SWAP5 POP PUSH1 0x0 JUMPDEST DUP5 MLOAD DUP2 LT ISZERO PUSH2 0x105B JUMPI DUP5 DUP2 DUP2 MLOAD DUP2 LT PUSH2 0xFED JUMPI PUSH2 0xFEC PUSH2 0x3CB5 JUMP JUMPDEST JUMPDEST PUSH1 0x20 ADD ADD MLOAD PUSH1 0xF8 SHR PUSH1 0xF8 SHL DUP7 DUP4 DUP2 MLOAD DUP2 LT PUSH2 0x100B JUMPI PUSH2 0x100A PUSH2 0x3CB5 JUMP JUMPDEST JUMPDEST PUSH1 0x20 ADD ADD SWAP1 PUSH31 0xFFFFFFFFFFFFFFFFFFFFFFFFFFFFFFFFFFFFFFFFFFFFFFFFFFFFFFFFFFFFFF NOT AND SWAP1 DUP2 PUSH1 0x0 BYTE SWAP1 MSTORE8 POP DUP2 DUP1 PUSH2 0x1045 SWAP1 PUSH2 0x3BAE JUMP JUMPDEST SWAP3 POP POP DUP1 DUP1 PUSH2 0x1053 SWAP1 PUSH2 0x3BAE JUMP JUMPDEST SWAP2 POP POP PUSH2 0xFD1 JUMP JUMPDEST POP PUSH1 0x0 JUMPDEST DUP4 MLOAD DUP2 LT ISZERO PUSH2 0x10E9 JUMPI DUP4 DUP2 DUP2 MLOAD DUP2 LT PUSH2 0x107B JUMPI PUSH2 0x107A PUSH2 0x3CB5 JUMP JUMPDEST JUMPDEST PUSH1 0x20 ADD ADD MLOAD PUSH1 0xF8 SHR PUSH1 0xF8 SHL DUP7 DUP4 DUP2 MLOAD DUP2 LT PUSH2 0x1099 JUMPI PUSH2 0x1098 PUSH2 0x3CB5 JUMP JUMPDEST JUMPDEST PUSH1 0x20 ADD ADD SWAP1 PUSH31 0xFFFFFFFFFFFFFFFFFFFFFFFFFFFFFFFFFFFFFFFFFFFFFFFFFFFFFFFFFFFFFF NOT AND SWAP1 DUP2 PUSH1 0x0 BYTE SWAP1 MSTORE8 POP DUP2 DUP1 PUSH2 0x10D3 SWAP1 PUSH2 0x3BAE JUMP JUMPDEST SWAP3 POP POP DUP1 DUP1 PUSH2 0x10E1 SWAP1 PUSH2 0x3BAE JUMP JUMPDEST SWAP2 POP POP PUSH2 0x105F JUMP JUMPDEST POP PUSH1 0x0 JUMPDEST DUP3 MLOAD DUP2 LT ISZERO PUSH2 0x1177 JUMPI DUP3 DUP2 DUP2 MLOAD DUP2 LT PUSH2 0x1109 JUMPI PUSH2 0x1108 PUSH2 0x3CB5 JUMP JUMPDEST JUMPDEST PUSH1 0x20 ADD ADD MLOAD PUSH1 0xF8 SHR PUSH1 0xF8 SHL DUP7 DUP4 DUP2 MLOAD DUP2 LT PUSH2 0x1127 JUMPI PUSH2 0x1126 PUSH2 0x3CB5 JUMP JUMPDEST JUMPDEST PUSH1 0x20 ADD ADD SWAP1 PUSH31 0xFFFFFFFFFFFFFFFFFFFFFFFFFFFFFFFFFFFFFFFFFFFFFFFFFFFFFFFFFFFFFF NOT AND SWAP1 DUP2 PUSH1 0x0 BYTE SWAP1 MSTORE8 POP DUP2 DUP1 PUSH2 0x1161 SWAP1 PUSH2 0x3BAE JUMP JUMPDEST SWAP3 POP POP DUP1 DUP1 PUSH2 0x116F SWAP1 PUSH2 0x3BAE JUMP JUMPDEST SWAP2 POP POP PUSH2 0x10ED JUMP JUMPDEST POP POP POP POP POP SWAP4 SWAP3 POP POP POP JUMP JUMPDEST PUSH2 0x118B PUSH2 0x284F JUMP JUMPDEST PUSH1 0x0 PUSH2 0x119E PUSH2 0x1199 DUP5 PUSH2 0x1ABF JUMP JUMPDEST PUSH2 0x1AED JUMP JUMPDEST SWAP1 POP PUSH1 0x0 DUP2 PUSH1 0x1 DUP2 MLOAD DUP2 LT PUSH2 0x11B6 JUMPI PUSH2 0x11B5 PUSH2 0x3CB5 JUMP JUMPDEST JUMPDEST PUSH1 0x20 MUL PUSH1 0x20 ADD ADD MLOAD SWAP1 POP PUSH1 0x0 DUP3 PUSH1 0x2 DUP2 MLOAD DUP2 LT PUSH2 0x11D6 JUMPI PUSH2 0x11D5 PUSH2 0x3CB5 JUMP JUMPDEST JUMPDEST PUSH1 0x20 MUL PUSH1 0x20 ADD ADD MLOAD SWAP1 POP PUSH1 0x0 DUP4 PUSH1 0x3 DUP2 MLOAD DUP2 LT PUSH2 0x11F6 JUMPI PUSH2 0x11F5 PUSH2 0x3CB5 JUMP JUMPDEST JUMPDEST PUSH1 0x20 MUL PUSH1 0x20 ADD ADD MLOAD SWAP1 POP PUSH1 0x0 DUP5 PUSH1 0x4 DUP2 MLOAD DUP2 LT PUSH2 0x1216 JUMPI PUSH2 0x1215 PUSH2 0x3CB5 JUMP JUMPDEST JUMPDEST PUSH1 0x20 MUL PUSH1 0x20 ADD ADD MLOAD SWAP1 POP PUSH1 0x0 DUP6 PUSH1 0x5 DUP2 MLOAD DUP2 LT PUSH2 0x1236 JUMPI PUSH2 0x1235 PUSH2 0x3CB5 JUMP JUMPDEST JUMPDEST PUSH1 0x20 MUL PUSH1 0x20 ADD ADD MLOAD SWAP1 POP PUSH1 0x62 DUP6 PUSH1 0x0 ADD MLOAD GT ISZERO PUSH2 0x1332 JUMPI PUSH1 0x0 PUSH1 0x62 PUSH1 0x2 DUP8 PUSH1 0x0 ADD MLOAD PUSH2 0x1262 SWAP2 SWAP1 PUSH2 0x3A30 JUMP JUMPDEST PUSH2 0x126C SWAP2 SWAP1 PUSH2 0x3834 JUMP JUMPDEST SWAP1 POP DUP1 PUSH8 0xFFFFFFFFFFFFFFFF DUP2 GT ISZERO PUSH2 0x1288 JUMPI PUSH2 0x1287 PUSH2 0x3CE4 JUMP JUMPDEST JUMPDEST PUSH1 0x40 MLOAD SWAP1 DUP1 DUP3 MSTORE DUP1 PUSH1 0x20 MUL PUSH1 0x20 ADD DUP3 ADD PUSH1 0x40 MSTORE DUP1 ISZERO PUSH2 0x12BB JUMPI DUP2 PUSH1 0x20 ADD JUMPDEST PUSH1 0x60 DUP2 MSTORE PUSH1 0x20 ADD SWAP1 PUSH1 0x1 SWAP1 SUB SWAP1 DUP2 PUSH2 0x12A6 JUMPI SWAP1 POP JUMPDEST POP DUP9 PUSH1 0x80 ADD DUP2 SWAP1 MSTORE POP PUSH1 0x0 JUMPDEST DUP2 DUP2 LT ISZERO PUSH2 0x132F JUMPI PUSH2 0x12FA PUSH2 0x12DB DUP9 PUSH2 0x1AED JUMP JUMPDEST DUP3 DUP2 MLOAD DUP2 LT PUSH2 0x12ED JUMPI PUSH2 0x12EC PUSH2 0x3CB5 JUMP JUMPDEST JUMPDEST PUSH1 0x20 MUL PUSH1 0x20 ADD ADD MLOAD PUSH2 0x1C7F JUMP JUMPDEST DUP10 PUSH1 0x80 ADD MLOAD DUP3 DUP2 MLOAD DUP2 LT PUSH2 0x1311 JUMPI PUSH2 0x1310 PUSH2 0x3CB5 JUMP JUMPDEST JUMPDEST PUSH1 0x20 MUL PUSH1 0x20 ADD ADD DUP2 SWAP1 MSTORE POP DUP1 DUP1 PUSH2 0x1327 SWAP1 PUSH2 0x3BAE JUMP JUMPDEST SWAP2 POP POP PUSH2 0x12C7 JUMP JUMPDEST POP POP JUMPDEST PUSH2 0x133B DUP5 PUSH2 0x1C25 JUMP JUMPDEST DUP8 PUSH1 0x60 ADD DUP2 DUP2 MSTORE POP POP PUSH2 0x134D DUP4 PUSH2 0x1C7F JUMP JUMPDEST DUP8 PUSH1 0x0 ADD DUP2 SWAP1 MSTORE POP PUSH2 0x1381 PUSH2 0x1361 DUP4 PUSH2 0x1AED JUMP JUMPDEST PUSH1 0x1 DUP2 MLOAD DUP2 LT PUSH2 0x1374 JUMPI PUSH2 0x1373 PUSH2 0x3CB5 JUMP JUMPDEST JUMPDEST PUSH1 0x20 MUL PUSH1 0x20 ADD ADD MLOAD PUSH2 0x1C7F JUMP JUMPDEST DUP8 PUSH1 0x20 ADD MLOAD PUSH1 0x0 ADD DUP2 SWAP1 MSTORE POP PUSH2 0x13B9 PUSH2 0x1399 DUP4 PUSH2 0x1AED JUMP JUMPDEST PUSH1 0x0 DUP2 MLOAD DUP2 LT PUSH2 0x13AC JUMPI PUSH2 0x13AB PUSH2 0x3CB5 JUMP JUMPDEST JUMPDEST PUSH1 0x20 MUL PUSH1 0x20 ADD ADD MLOAD PUSH2 0x1C25 JUMP JUMPDEST DUP8 PUSH1 0x20 ADD MLOAD PUSH1 0x20 ADD DUP2 DUP2 MSTORE POP POP PUSH2 0x13F2 PUSH2 0x13D2 DUP3 PUSH2 0x1AED JUMP JUMPDEST PUSH1 0x1 DUP2 MLOAD DUP2 LT PUSH2 0x13E5 JUMPI PUSH2 0x13E4 PUSH2 0x3CB5 JUMP JUMPDEST JUMPDEST PUSH1 0x20 MUL PUSH1 0x20 ADD ADD MLOAD PUSH2 0x1C7F JUMP JUMPDEST DUP8 PUSH1 0x40 ADD MLOAD PUSH1 0x0 ADD DUP2 SWAP1 MSTORE POP PUSH2 0x142A PUSH2 0x140A DUP3 PUSH2 0x1AED JUMP JUMPDEST PUSH1 0x0 DUP2 MLOAD DUP2 LT PUSH2 0x141D JUMPI PUSH2 0x141C PUSH2 0x3CB5 JUMP JUMPDEST JUMPDEST PUSH1 0x20 MUL PUSH1 0x20 ADD ADD MLOAD PUSH2 0x1C25 JUMP JUMPDEST DUP8 PUSH1 0x40 ADD MLOAD PUSH1 0x20 ADD DUP2 DUP2 MSTORE POP POP POP POP POP POP POP POP SWAP2 SWAP1 POP JUMP JUMPDEST PUSH1 0x0 DUP1 PUSH1 0x0 DUP1 PUSH1 0x6 SLOAD PUSH1 0x2 SLOAD PUSH1 0x3 SLOAD PUSH1 0x7 SLOAD SWAP4 POP SWAP4 POP SWAP4 POP SWAP4 POP SWAP1 SWAP2 SWAP3 SWAP4 JUMP JUMPDEST PUSH1 0x60 PUSH1 0x0 DUP1 PUSH2 0x1470 DUP6 PUSH2 0x1670 JUMP JUMPDEST SWAP2 POP SWAP2 POP DUP4 MLOAD DUP2 PUSH1 0xFF AND PUSH2 0x1484 SWAP2 SWAP1 PUSH2 0x37A7 JUMP JUMPDEST PUSH8 0xFFFFFFFFFFFFFFFF DUP2 GT ISZERO PUSH2 0x149D JUMPI PUSH2 0x149C PUSH2 0x3CE4 JUMP JUMPDEST JUMPDEST PUSH1 0x40 MLOAD SWAP1 DUP1 DUP3 MSTORE DUP1 PUSH1 0x20 MUL PUSH1 0x20 ADD DUP3 ADD PUSH1 0x40 MSTORE DUP1 ISZERO PUSH2 0x14D0 JUMPI DUP2 PUSH1 0x20 ADD JUMPDEST PUSH1 0x60 DUP2 MSTORE PUSH1 0x20 ADD SWAP1 PUSH1 0x1 SWAP1 SUB SWAP1 DUP2 PUSH2 0x14BB JUMPI SWAP1 POP JUMPDEST POP SWAP3 POP PUSH1 0x0 DUP1 JUMPDEST DUP4 MLOAD DUP2 LT ISZERO PUSH2 0x15FE JUMPI PUSH1 0x0 DUP5 DUP3 DUP2 MLOAD DUP2 LT PUSH2 0x14F5 JUMPI PUSH2 0x14F4 PUSH2 0x3CB5 JUMP JUMPDEST JUMPDEST PUSH1 0x20 MUL PUSH1 0x20 ADD ADD MLOAD EQ ISZERO PUSH2 0x15EB JUMPI PUSH1 0x1 PUSH1 0x0 PUSH1 0x2 SLOAD DUP2 MSTORE PUSH1 0x20 ADD SWAP1 DUP2 MSTORE PUSH1 0x20 ADD PUSH1 0x0 KECCAK256 DUP2 DUP2 SLOAD DUP2 LT PUSH2 0x152A JUMPI PUSH2 0x1529 PUSH2 0x3CB5 JUMP JUMPDEST JUMPDEST SWAP1 PUSH1 0x0 MSTORE PUSH1 0x20 PUSH1 0x0 KECCAK256 ADD DUP1 SLOAD PUSH2 0x153F SWAP1 PUSH2 0x3B4B JUMP JUMPDEST DUP1 PUSH1 0x1F ADD PUSH1 0x20 DUP1 SWAP2 DIV MUL PUSH1 0x20 ADD PUSH1 0x40 MLOAD SWAP1 DUP2 ADD PUSH1 0x40 MSTORE DUP1 SWAP3 SWAP2 SWAP1 DUP2 DUP2 MSTORE PUSH1 0x20 ADD DUP3 DUP1 SLOAD PUSH2 0x156B SWAP1 PUSH2 0x3B4B JUMP JUMPDEST DUP1 ISZERO PUSH2 0x15B8 JUMPI DUP1 PUSH1 0x1F LT PUSH2 0x158D JUMPI PUSH2 0x100 DUP1 DUP4 SLOAD DIV MUL DUP4 MSTORE SWAP2 PUSH1 0x20 ADD SWAP2 PUSH2 0x15B8 JUMP JUMPDEST DUP3 ADD SWAP2 SWAP1 PUSH1 0x0 MSTORE PUSH1 0x20 PUSH1 0x0 KECCAK256 SWAP1 JUMPDEST DUP2 SLOAD DUP2 MSTORE SWAP1 PUSH1 0x1 ADD SWAP1 PUSH1 0x20 ADD DUP1 DUP4 GT PUSH2 0x159B JUMPI DUP3 SWAP1 SUB PUSH1 0x1F AND DUP3 ADD SWAP2 JUMPDEST POP POP POP POP POP DUP6 DUP4 DUP2 MLOAD DUP2 LT PUSH2 0x15D0 JUMPI PUSH2 0x15CF PUSH2 0x3CB5 JUMP JUMPDEST JUMPDEST PUSH1 0x20 MUL PUSH1 0x20 ADD ADD DUP2 SWAP1 MSTORE POP PUSH1 0x1 DUP3 PUSH2 0x15E8 SWAP2 SWAP1 PUSH2 0x37A7 JUMP JUMPDEST SWAP2 POP JUMPDEST DUP1 DUP1 PUSH2 0x15F6 SWAP1 PUSH2 0x3BAE JUMP JUMPDEST SWAP2 POP POP PUSH2 0x14D7 JUMP JUMPDEST POP PUSH1 0x0 JUMPDEST DUP6 MLOAD DUP2 LT ISZERO PUSH2 0x1666 JUMPI DUP6 DUP2 DUP2 MLOAD DUP2 LT PUSH2 0x161E JUMPI PUSH2 0x161D PUSH2 0x3CB5 JUMP JUMPDEST JUMPDEST PUSH1 0x20 MUL PUSH1 0x20 ADD ADD MLOAD DUP6 DUP4 DUP2 MLOAD DUP2 LT PUSH2 0x1639 JUMPI PUSH2 0x1638 PUSH2 0x3CB5 JUMP JUMPDEST JUMPDEST PUSH1 0x20 MUL PUSH1 0x20 ADD ADD DUP2 SWAP1 MSTORE POP PUSH1 0x1 DUP3 PUSH2 0x1651 SWAP2 SWAP1 PUSH2 0x37A7 JUMP JUMPDEST SWAP2 POP DUP1 DUP1 PUSH2 0x165E SWAP1 PUSH2 0x3BAE JUMP JUMPDEST SWAP2 POP POP PUSH2 0x1602 JUMP JUMPDEST POP POP POP POP SWAP3 SWAP2 POP POP JUMP JUMPDEST PUSH1 0x60 PUSH1 0x0 PUSH1 0x7 SLOAD PUSH8 0xFFFFFFFFFFFFFFFF DUP2 GT ISZERO PUSH2 0x1690 JUMPI PUSH2 0x168F PUSH2 0x3CE4 JUMP JUMPDEST JUMPDEST PUSH1 0x40 MLOAD SWAP1 DUP1 DUP3 MSTORE DUP1 PUSH1 0x20 MUL PUSH1 0x20 ADD DUP3 ADD PUSH1 0x40 MSTORE DUP1 ISZERO PUSH2 0x16BE JUMPI DUP2 PUSH1 0x20 ADD PUSH1 0x20 DUP3 MUL DUP1 CALLDATASIZE DUP4 CALLDATACOPY DUP1 DUP3 ADD SWAP2 POP POP SWAP1 POP JUMPDEST POP SWAP2 POP PUSH1 0x0 JUMPDEST PUSH1 0x0 DUP5 GT ISZERO PUSH2 0x1776 JUMPI PUSH1 0x1 PUSH1 0x2 DUP6 PUSH2 0x16DC SWAP2 SWAP1 PUSH2 0x3BF7 JUMP JUMPDEST EQ ISZERO PUSH2 0x1723 JUMPI PUSH1 0x2 PUSH1 0x1 DUP6 PUSH2 0x16F1 SWAP2 SWAP1 PUSH2 0x3A30 JUMP JUMPDEST PUSH2 0x16FB SWAP2 SWAP1 PUSH2 0x3834 JUMP JUMPDEST SWAP4 POP PUSH1 0x1 DUP4 DUP3 DUP2 MLOAD DUP2 LT PUSH2 0x1712 JUMPI PUSH2 0x1711 PUSH2 0x3CB5 JUMP JUMPDEST JUMPDEST PUSH1 0x20 MUL PUSH1 0x20 ADD ADD DUP2 DUP2 MSTORE POP POP PUSH2 0x1763 JUMP JUMPDEST PUSH1 0x2 DUP5 PUSH2 0x1730 SWAP2 SWAP1 PUSH2 0x3834 JUMP JUMPDEST SWAP4 POP PUSH1 0x0 DUP4 DUP3 DUP2 MLOAD DUP2 LT PUSH2 0x1747 JUMPI PUSH2 0x1746 PUSH2 0x3CB5 JUMP JUMPDEST JUMPDEST PUSH1 0x20 MUL PUSH1 0x20 ADD ADD DUP2 DUP2 MSTORE POP POP PUSH1 0x1 DUP3 PUSH2 0x1760 SWAP2 SWAP1 PUSH2 0x37FD JUMP JUMPDEST SWAP2 POP JUMPDEST DUP1 DUP1 PUSH2 0x176E SWAP1 PUSH2 0x3BAE JUMP JUMPDEST SWAP2 POP POP PUSH2 0x16C4 JUMP JUMPDEST POP PUSH1 0x0 JUMPDEST PUSH1 0x2 DUP4 MLOAD PUSH2 0x1788 SWAP2 SWAP1 PUSH2 0x3834 JUMP JUMPDEST DUP2 LT ISZERO PUSH2 0x184C JUMPI PUSH1 0x0 DUP4 DUP3 DUP2 MLOAD DUP2 LT PUSH2 0x17A4 JUMPI PUSH2 0x17A3 PUSH2 0x3CB5 JUMP JUMPDEST JUMPDEST PUSH1 0x20 MUL PUSH1 0x20 ADD ADD MLOAD SWAP1 POP DUP4 DUP3 PUSH1 0x1 DUP7 MLOAD PUSH2 0x17BE SWAP2 SWAP1 PUSH2 0x3A30 JUMP JUMPDEST PUSH2 0x17C8 SWAP2 SWAP1 PUSH2 0x3A30 JUMP JUMPDEST DUP2 MLOAD DUP2 LT PUSH2 0x17D9 JUMPI PUSH2 0x17D8 PUSH2 0x3CB5 JUMP JUMPDEST JUMPDEST PUSH1 0x20 MUL PUSH1 0x20 ADD ADD MLOAD DUP5 DUP4 DUP2 MLOAD DUP2 LT PUSH2 0x17F4 JUMPI PUSH2 0x17F3 PUSH2 0x3CB5 JUMP JUMPDEST JUMPDEST PUSH1 0x20 MUL PUSH1 0x20 ADD ADD DUP2 DUP2 MSTORE POP POP DUP1 DUP5 DUP4 PUSH1 0x1 DUP8 MLOAD PUSH2 0x1811 SWAP2 SWAP1 PUSH2 0x3A30 JUMP JUMPDEST PUSH2 0x181B SWAP2 SWAP1 PUSH2 0x3A30 JUMP JUMPDEST DUP2 MLOAD DUP2 LT PUSH2 0x182C JUMPI PUSH2 0x182B PUSH2 0x3CB5 JUMP JUMPDEST JUMPDEST PUSH1 0x20 MUL PUSH1 0x20 ADD ADD DUP2 DUP2 MSTORE POP POP POP DUP1 DUP1 PUSH2 0x1844 SWAP1 PUSH2 0x3BAE JUMP JUMPDEST SWAP2 POP POP PUSH2 0x177A JUMP JUMPDEST POP SWAP2 POP SWAP2 JUMP JUMPDEST PUSH1 0x60 PUSH1 0x1 PUSH1 0x0 DUP4 DUP2 MSTORE PUSH1 0x20 ADD SWAP1 DUP2 MSTORE PUSH1 0x20 ADD PUSH1 0x0 KECCAK256 DUP1 SLOAD DUP1 PUSH1 0x20 MUL PUSH1 0x20 ADD PUSH1 0x40 MLOAD SWAP1 DUP2 ADD PUSH1 0x40 MSTORE DUP1 SWAP3 SWAP2 SWAP1 DUP2 DUP2 MSTORE PUSH1 0x20 ADD PUSH1 0x0 SWAP1 JUMPDEST DUP3 DUP3 LT ISZERO PUSH2 0x1933 JUMPI DUP4 DUP3 SWAP1 PUSH1 0x0 MSTORE PUSH1 0x20 PUSH1 0x0 KECCAK256 ADD DUP1 SLOAD PUSH2 0x18A6 SWAP1 PUSH2 0x3B4B JUMP JUMPDEST DUP1 PUSH1 0x1F ADD PUSH1 0x20 DUP1 SWAP2 DIV MUL PUSH1 0x20 ADD PUSH1 0x40 MLOAD SWAP1 DUP2 ADD PUSH1 0x40 MSTORE DUP1 SWAP3 SWAP2 SWAP1 DUP2 DUP2 MSTORE PUSH1 0x20 ADD DUP3 DUP1 SLOAD PUSH2 0x18D2 SWAP1 PUSH2 0x3B4B JUMP JUMPDEST DUP1 ISZERO PUSH2 0x191F JUMPI DUP1 PUSH1 0x1F LT PUSH2 0x18F4 JUMPI PUSH2 0x100 DUP1 DUP4 SLOAD DIV MUL DUP4 MSTORE SWAP2 PUSH1 0x20 ADD SWAP2 PUSH2 0x191F JUMP JUMPDEST DUP3 ADD SWAP2 SWAP1 PUSH1 0x0 MSTORE PUSH1 0x20 PUSH1 0x0 KECCAK256 SWAP1 JUMPDEST DUP2 SLOAD DUP2 MSTORE SWAP1 PUSH1 0x1 ADD SWAP1 PUSH1 0x20 ADD DUP1 DUP4 GT PUSH2 0x1902 JUMPI DUP3 SWAP1 SUB PUSH1 0x1F AND DUP3 ADD SWAP2 JUMPDEST POP POP POP POP POP DUP2 MSTORE PUSH1 0x20 ADD SWAP1 PUSH1 0x1 ADD SWAP1 PUSH2 0x1887 JUMP JUMPDEST POP POP POP POP SWAP1 POP SWAP2 SWAP1 POP JUMP JUMPDEST PUSH1 0x4 PUSH1 0x0 SWAP1 SLOAD SWAP1 PUSH2 0x100 EXP SWAP1 DIV PUSH20 0xFFFFFFFFFFFFFFFFFFFFFFFFFFFFFFFFFFFFFFFF AND PUSH20 0xFFFFFFFFFFFFFFFFFFFFFFFFFFFFFFFFFFFFFFFF AND CALLER PUSH20 0xFFFFFFFFFFFFFFFFFFFFFFFFFFFFFFFFFFFFFFFF AND EQ PUSH2 0x19CE JUMPI PUSH1 0x40 MLOAD PUSH32 0x8C379A000000000000000000000000000000000000000000000000000000000 DUP2 MSTORE PUSH1 0x4 ADD PUSH2 0x19C5 SWAP1 PUSH2 0x350B JUMP JUMPDEST PUSH1 0x40 MLOAD DUP1 SWAP2 SUB SWAP1 REVERT JUMPDEST PUSH32 0x7E35A8EDAE38B8A190422EE5A99AAC1F0C00B995A42EB279C0099A723B1452F6 DUP2 PUSH1 0x40 MLOAD PUSH2 0x19FD SWAP2 SWAP1 PUSH2 0x342C JUMP JUMPDEST PUSH1 0x40 MLOAD DUP1 SWAP2 SUB SWAP1 LOG1 DUP1 PUSH1 0xFF AND PUSH1 0x6 DUP2 SWAP1 SSTORE POP POP JUMP JUMPDEST PUSH1 0x0 DUP1 PUSH1 0x0 DUP1 PUSH2 0x1A21 DUP8 PUSH2 0x1E8B JUMP JUMPDEST SWAP3 POP SWAP3 POP SWAP3 POP PUSH1 0x1B DUP2 PUSH2 0x1A34 SWAP2 SWAP1 PUSH2 0x37FD JUMP JUMPDEST SWAP1 POP PUSH1 0x1 DUP7 DUP3 DUP6 DUP6 PUSH1 0x40 MLOAD PUSH1 0x0 DUP2 MSTORE PUSH1 0x20 ADD PUSH1 0x40 MSTORE PUSH1 0x40 MLOAD PUSH2 0x1A59 SWAP5 SWAP4 SWAP3 SWAP2 SWAP1 PUSH2 0x3385 JUMP JUMPDEST PUSH1 0x20 PUSH1 0x40 MLOAD PUSH1 0x20 DUP2 SUB SWAP1 DUP1 DUP5 SUB SWAP1 DUP6 GAS STATICCALL ISZERO DUP1 ISZERO PUSH2 0x1A7B JUMPI RETURNDATASIZE PUSH1 0x0 DUP1 RETURNDATACOPY RETURNDATASIZE PUSH1 0x0 REVERT JUMPDEST POP POP POP PUSH1 0x20 PUSH1 0x40 MLOAD SUB MLOAD PUSH20 0xFFFFFFFFFFFFFFFFFFFFFFFFFFFFFFFFFFFFFFFF AND DUP6 PUSH20 0xFFFFFFFFFFFFFFFFFFFFFFFFFFFFFFFFFFFFFFFF AND EQ SWAP4 POP POP POP POP SWAP4 SWAP3 POP POP POP JUMP JUMPDEST PUSH2 0x1AC7 PUSH2 0x288A JUMP JUMPDEST PUSH1 0x0 PUSH1 0x20 DUP4 ADD SWAP1 POP PUSH1 0x40 MLOAD DUP1 PUSH1 0x40 ADD PUSH1 0x40 MSTORE DUP1 DUP5 MLOAD DUP2 MSTORE PUSH1 0x20 ADD DUP3 DUP2 MSTORE POP SWAP2 POP POP SWAP2 SWAP1 POP JUMP JUMPDEST PUSH1 0x60 PUSH2 0x1AF8 DUP3 PUSH2 0x1EF3 JUMP JUMPDEST PUSH2 0x1B01 JUMPI PUSH1 0x0 DUP1 REVERT JUMPDEST PUSH1 0x0 PUSH2 0x1B0C DUP4 PUSH2 0x1F41 JUMP JUMPDEST SWAP1 POP PUSH1 0x0 DUP2 PUSH8 0xFFFFFFFFFFFFFFFF DUP2 GT ISZERO PUSH2 0x1B2A JUMPI PUSH2 0x1B29 PUSH2 0x3CE4 JUMP JUMPDEST JUMPDEST PUSH1 0x40 MLOAD SWAP1 DUP1 DUP3 MSTORE DUP1 PUSH1 0x20 MUL PUSH1 0x20 ADD DUP3 ADD PUSH1 0x40 MSTORE DUP1 ISZERO PUSH2 0x1B63 JUMPI DUP2 PUSH1 0x20 ADD JUMPDEST PUSH2 0x1B50 PUSH2 0x288A JUMP JUMPDEST DUP2 MSTORE PUSH1 0x20 ADD SWAP1 PUSH1 0x1 SWAP1 SUB SWAP1 DUP2 PUSH2 0x1B48 JUMPI SWAP1 POP JUMPDEST POP SWAP1 POP PUSH1 0x0 PUSH2 0x1B75 DUP6 PUSH1 0x20 ADD MLOAD PUSH2 0x1FCF JUMP JUMPDEST DUP6 PUSH1 0x20 ADD MLOAD PUSH2 0x1B84 SWAP2 SWAP1 PUSH2 0x37A7 JUMP JUMPDEST SWAP1 POP PUSH1 0x0 DUP1 PUSH1 0x0 SWAP1 POP JUMPDEST DUP5 DUP2 LT ISZERO PUSH2 0x1BF5 JUMPI PUSH2 0x1B9F DUP4 PUSH2 0x208E JUMP JUMPDEST SWAP2 POP PUSH1 0x40 MLOAD DUP1 PUSH1 0x40 ADD PUSH1 0x40 MSTORE DUP1 DUP4 DUP2 MSTORE PUSH1 0x20 ADD DUP5 DUP2 MSTORE POP DUP5 DUP3 DUP2 MLOAD DUP2 LT PUSH2 0x1BC9 JUMPI PUSH2 0x1BC8 PUSH2 0x3CB5 JUMP JUMPDEST JUMPDEST PUSH1 0x20 MUL PUSH1 0x20 ADD ADD DUP2 SWAP1 MSTORE POP DUP2 DUP4 PUSH2 0x1BE0 SWAP2 SWAP1 PUSH2 0x37A7 JUMP JUMPDEST SWAP3 POP DUP1 DUP1 PUSH2 0x1BED SWAP1 PUSH2 0x3BAE JUMP JUMPDEST SWAP2 POP POP PUSH2 0x1B8E JUMP JUMPDEST POP DUP3 SWAP5 POP POP POP POP POP SWAP2 SWAP1 POP JUMP JUMPDEST PUSH1 0x0 PUSH1 0x15 DUP3 PUSH1 0x0 ADD MLOAD EQ PUSH2 0x1C15 JUMPI PUSH1 0x0 DUP1 REVERT JUMPDEST PUSH2 0x1C1E DUP3 PUSH2 0x1C25 JUMP JUMPDEST SWAP1 POP SWAP2 SWAP1 POP JUMP JUMPDEST PUSH1 0x0 DUP1 DUP3 PUSH1 0x0 ADD MLOAD GT DUP1 ISZERO PUSH2 0x1C3F JUMPI POP PUSH1 0x21 DUP3 PUSH1 0x0 ADD MLOAD GT ISZERO JUMPDEST PUSH2 0x1C48 JUMPI PUSH1 0x0 DUP1 REVERT JUMPDEST PUSH1 0x0 DUP1 PUSH2 0x1C54 DUP5 PUSH2 0x216A JUMP JUMPDEST SWAP2 POP SWAP2 POP PUSH1 0x0 DUP3 MLOAD SWAP1 POP PUSH1 0x20 DUP3 LT ISZERO PUSH2 0x1C74 JUMPI DUP2 PUSH1 0x20 SUB PUSH2 0x100 EXP DUP2 DIV SWAP1 POP JUMPDEST DUP1 SWAP4 POP POP POP POP SWAP2 SWAP1 POP JUMP JUMPDEST PUSH1 0x60 PUSH1 0x0 DUP3 PUSH1 0x0 ADD MLOAD GT PUSH2 0x1C92 JUMPI PUSH1 0x0 DUP1 REVERT JUMPDEST PUSH1 0x0 DUP1 PUSH2 0x1C9E DUP5 PUSH2 0x216A JUMP JUMPDEST SWAP2 POP SWAP2 POP PUSH1 0x0 DUP2 PUSH8 0xFFFFFFFFFFFFFFFF DUP2 GT ISZERO PUSH2 0x1CBE JUMPI PUSH2 0x1CBD PUSH2 0x3CE4 JUMP JUMPDEST JUMPDEST PUSH1 0x40 MLOAD SWAP1 DUP1 DUP3 MSTORE DUP1 PUSH1 0x1F ADD PUSH1 0x1F NOT AND PUSH1 0x20 ADD DUP3 ADD PUSH1 0x40 MSTORE DUP1 ISZERO PUSH2 0x1CF0 JUMPI DUP2 PUSH1 0x20 ADD PUSH1 0x1 DUP3 MUL DUP1 CALLDATASIZE DUP4 CALLDATACOPY DUP1 DUP3 ADD SWAP2 POP POP SWAP1 POP JUMPDEST POP SWAP1 POP PUSH1 0x0 DUP2 PUSH1 0x20 ADD SWAP1 POP PUSH2 0x1D06 DUP5 DUP3 DUP6 PUSH2 0x21B4 JUMP JUMPDEST DUP2 SWAP5 POP POP POP POP POP SWAP2 SWAP1 POP JUMP JUMPDEST PUSH1 0x60 PUSH1 0x20 DUP3 MLOAD PUSH2 0x1D22 SWAP2 SWAP1 PUSH2 0x3A30 JUMP JUMPDEST PUSH8 0xFFFFFFFFFFFFFFFF DUP2 GT ISZERO PUSH2 0x1D3B JUMPI PUSH2 0x1D3A PUSH2 0x3CE4 JUMP JUMPDEST JUMPDEST PUSH1 0x40 MLOAD SWAP1 DUP1 DUP3 MSTORE DUP1 PUSH1 0x1F ADD PUSH1 0x1F NOT AND PUSH1 0x20 ADD DUP3 ADD PUSH1 0x40 MSTORE DUP1 ISZERO PUSH2 0x1D6D JUMPI DUP2 PUSH1 0x20 ADD PUSH1 0x1 DUP3 MUL DUP1 CALLDATASIZE DUP4 CALLDATACOPY DUP1 DUP3 ADD SWAP2 POP POP SWAP1 POP JUMPDEST POP SWAP1 POP PUSH1 0x0 DUP1 PUSH1 0x20 SWAP1 POP JUMPDEST DUP4 MLOAD DUP2 LT ISZERO PUSH2 0x1E03 JUMPI DUP4 DUP2 DUP2 MLOAD DUP2 LT PUSH2 0x1D94 JUMPI PUSH2 0x1D93 PUSH2 0x3CB5 JUMP JUMPDEST JUMPDEST PUSH1 0x20 ADD ADD MLOAD PUSH1 0xF8 SHR PUSH1 0xF8 SHL DUP4 DUP4 DUP2 MLOAD DUP2 LT PUSH2 0x1DB2 JUMPI PUSH2 0x1DB1 PUSH2 0x3CB5 JUMP JUMPDEST JUMPDEST PUSH1 0x20 ADD ADD SWAP1 PUSH31 0xFFFFFFFFFFFFFFFFFFFFFFFFFFFFFFFFFFFFFFFFFFFFFFFFFFFFFFFFFFFFFF NOT AND SWAP1 DUP2 PUSH1 0x0 BYTE SWAP1 MSTORE8 POP PUSH1 0x1 DUP3 PUSH2 0x1DEE SWAP2 SWAP1 PUSH2 0x37A7 JUMP JUMPDEST SWAP2 POP DUP1 DUP1 PUSH2 0x1DFB SWAP1 PUSH2 0x3BAE JUMP JUMPDEST SWAP2 POP POP PUSH2 0x1D78 JUMP JUMPDEST POP POP SWAP2 SWAP1 POP JUMP JUMPDEST PUSH1 0x60 PUSH2 0x1E1D PUSH2 0x1E18 DUP4 PUSH2 0x225B JUMP JUMPDEST PUSH2 0x1E24 JUMP JUMPDEST SWAP1 POP SWAP2 SWAP1 POP JUMP JUMPDEST PUSH1 0x60 DUP1 PUSH1 0x1 DUP4 MLOAD EQ DUP1 ISZERO PUSH2 0x1E5D JUMPI POP PUSH1 0x80 DUP4 PUSH1 0x0 DUP2 MLOAD DUP2 LT PUSH2 0x1E49 JUMPI PUSH2 0x1E48 PUSH2 0x3CB5 JUMP JUMPDEST JUMPDEST PUSH1 0x20 ADD ADD MLOAD PUSH1 0xF8 SHR PUSH1 0xF8 SHL PUSH1 0xF8 SHR PUSH1 0xFF AND GT ISZERO JUMPDEST ISZERO PUSH2 0x1E6A JUMPI DUP3 SWAP1 POP PUSH2 0x1E82 JUMP JUMPDEST PUSH2 0x1E7F PUSH2 0x1E79 DUP5 MLOAD PUSH1 0x80 PUSH2 0x2417 JUMP JUMPDEST DUP5 PUSH2 0x26A8 JUMP JUMPDEST SWAP1 POP JUMPDEST DUP1 SWAP2 POP POP SWAP2 SWAP1 POP JUMP JUMPDEST PUSH1 0x0 DUP1 PUSH1 0x0 PUSH1 0x41 DUP5 MLOAD EQ PUSH2 0x1ED4 JUMPI PUSH1 0x40 MLOAD PUSH32 0x8C379A000000000000000000000000000000000000000000000000000000000 DUP2 MSTORE PUSH1 0x4 ADD PUSH2 0x1ECB SWAP1 PUSH2 0x3587 JUMP JUMPDEST PUSH1 0x40 MLOAD DUP1 SWAP2 SUB SWAP1 REVERT JUMPDEST PUSH1 0x20 DUP5 ADD MLOAD SWAP3 POP PUSH1 0x40 DUP5 ADD MLOAD SWAP2 POP PUSH1 0x60 DUP5 ADD MLOAD PUSH1 0x0 BYTE SWAP1 POP SWAP2 SWAP4 SWAP1 SWAP3 POP JUMP JUMPDEST PUSH1 0x0 DUP1 DUP3 PUSH1 0x0 ADD MLOAD EQ ISZERO PUSH2 0x1F0A JUMPI PUSH1 0x0 SWAP1 POP PUSH2 0x1F3C JUMP JUMPDEST PUSH1 0x0 DUP1 DUP4 PUSH1 0x20 ADD MLOAD SWAP1 POP DUP1 MLOAD PUSH1 0x0 BYTE SWAP2 POP PUSH1 0xC0 PUSH1 0xFF AND DUP3 PUSH1 0xFF AND LT ISZERO PUSH2 0x1F35 JUMPI PUSH1 0x0 SWAP3 POP POP POP PUSH2 0x1F3C JUMP JUMPDEST PUSH1 0x1 SWAP3 POP POP POP JUMPDEST SWAP2 SWAP1 POP JUMP JUMPDEST PUSH1 0x0 DUP1 DUP3 PUSH1 0x0 ADD MLOAD EQ ISZERO PUSH2 0x1F58 JUMPI PUSH1 0x0 SWAP1 POP PUSH2 0x1FCA JUMP JUMPDEST PUSH1 0x0 DUP1 PUSH2 0x1F68 DUP5 PUSH1 0x20 ADD MLOAD PUSH2 0x1FCF JUMP JUMPDEST DUP5 PUSH1 0x20 ADD MLOAD PUSH2 0x1F77 SWAP2 SWAP1 PUSH2 0x37A7 JUMP JUMPDEST SWAP1 POP PUSH1 0x0 DUP5 PUSH1 0x0 ADD MLOAD DUP6 PUSH1 0x20 ADD MLOAD PUSH2 0x1F8F SWAP2 SWAP1 PUSH2 0x37A7 JUMP JUMPDEST SWAP1 POP JUMPDEST DUP1 DUP3 LT ISZERO PUSH2 0x1FC3 JUMPI PUSH2 0x1FA3 DUP3 PUSH2 0x208E JUMP JUMPDEST DUP3 PUSH2 0x1FAE SWAP2 SWAP1 PUSH2 0x37A7 JUMP JUMPDEST SWAP2 POP DUP3 DUP1 PUSH2 0x1FBB SWAP1 PUSH2 0x3BAE JUMP JUMPDEST SWAP4 POP POP PUSH2 0x1F92 JUMP JUMPDEST DUP3 SWAP4 POP POP POP POP JUMPDEST SWAP2 SWAP1 POP JUMP JUMPDEST PUSH1 0x0 DUP1 DUP3 MLOAD PUSH1 0x0 BYTE SWAP1 POP PUSH1 0x80 PUSH1 0xFF AND DUP2 LT ISZERO PUSH2 0x1FEF JUMPI PUSH1 0x0 SWAP2 POP POP PUSH2 0x2089 JUMP JUMPDEST PUSH1 0xB8 PUSH1 0xFF AND DUP2 LT DUP1 PUSH2 0x2014 JUMPI POP PUSH1 0xC0 PUSH1 0xFF AND DUP2 LT ISZERO DUP1 ISZERO PUSH2 0x2013 JUMPI POP PUSH1 0xF8 PUSH1 0xFF AND DUP2 LT JUMPDEST JUMPDEST ISZERO PUSH2 0x2023 JUMPI PUSH1 0x1 SWAP2 POP POP PUSH2 0x2089 JUMP JUMPDEST PUSH1 0xC0 PUSH1 0xFF AND DUP2 LT ISZERO PUSH2 0x205E JUMPI PUSH1 0x1 DUP1 PUSH1 0xB8 PUSH2 0x203E SWAP2 SWAP1 PUSH2 0x3A64 JUMP JUMPDEST PUSH1 0xFF AND DUP3 PUSH2 0x204C SWAP2 SWAP1 PUSH2 0x3A30 JUMP JUMPDEST PUSH2 0x2056 SWAP2 SWAP1 PUSH2 0x37A7 JUMP JUMPDEST SWAP2 POP POP PUSH2 0x2089 JUMP JUMPDEST PUSH1 0x1 DUP1 PUSH1 0xF8 PUSH2 0x206D SWAP2 SWAP1 PUSH2 0x3A64 JUMP JUMPDEST PUSH1 0xFF AND DUP3 PUSH2 0x207B SWAP2 SWAP1 PUSH2 0x3A30 JUMP JUMPDEST PUSH2 0x2085 SWAP2 SWAP1 PUSH2 0x37A7 JUMP JUMPDEST SWAP2 POP POP JUMPDEST SWAP2 SWAP1 POP JUMP JUMPDEST PUSH1 0x0 DUP1 PUSH1 0x0 DUP4 MLOAD PUSH1 0x0 BYTE SWAP1 POP PUSH1 0x80 PUSH1 0xFF AND DUP2 LT ISZERO PUSH2 0x20AF JUMPI PUSH1 0x1 SWAP2 POP PUSH2 0x2160 JUMP JUMPDEST PUSH1 0xB8 PUSH1 0xFF AND DUP2 LT ISZERO PUSH2 0x20DE JUMPI PUSH1 0x1 PUSH1 0x80 PUSH1 0xFF AND DUP3 PUSH2 0x20CD SWAP2 SWAP1 PUSH2 0x3A30 JUMP JUMPDEST PUSH2 0x20D7 SWAP2 SWAP1 PUSH2 0x37A7 JUMP JUMPDEST SWAP2 POP PUSH2 0x215F JUMP JUMPDEST PUSH1 0xC0 PUSH1 0xFF AND DUP2 LT ISZERO PUSH2 0x210E JUMPI PUSH1 0xB7 DUP2 SUB PUSH1 0x1 DUP6 ADD SWAP5 POP DUP1 PUSH1 0x20 SUB PUSH2 0x100 EXP DUP6 MLOAD DIV PUSH1 0x1 DUP3 ADD DUP2 ADD SWAP4 POP POP POP PUSH2 0x215E JUMP JUMPDEST PUSH1 0xF8 PUSH1 0xFF AND DUP2 LT ISZERO PUSH2 0x213D JUMPI PUSH1 0x1 PUSH1 0xC0 PUSH1 0xFF AND DUP3 PUSH2 0x212C SWAP2 SWAP1 PUSH2 0x3A30 JUMP JUMPDEST PUSH2 0x2136 SWAP2 SWAP1 PUSH2 0x37A7 JUMP JUMPDEST SWAP2 POP PUSH2 0x215D JUMP JUMPDEST PUSH1 0xF7 DUP2 SUB PUSH1 0x1 DUP6 ADD SWAP5 POP DUP1 PUSH1 0x20 SUB PUSH2 0x100 EXP DUP6 MLOAD DIV PUSH1 0x1 DUP3 ADD DUP2 ADD SWAP4 POP POP POP JUMPDEST JUMPDEST JUMPDEST JUMPDEST DUP2 SWAP3 POP POP POP SWAP2 SWAP1 POP JUMP JUMPDEST PUSH1 0x0 DUP1 PUSH1 0x0 PUSH2 0x217C DUP5 PUSH1 0x20 ADD MLOAD PUSH2 0x1FCF JUMP JUMPDEST SWAP1 POP PUSH1 0x0 DUP2 DUP6 PUSH1 0x20 ADD MLOAD PUSH2 0x2190 SWAP2 SWAP1 PUSH2 0x37A7 JUMP JUMPDEST SWAP1 POP PUSH1 0x0 DUP3 DUP7 PUSH1 0x0 ADD MLOAD PUSH2 0x21A4 SWAP2 SWAP1 PUSH2 0x3A30 JUMP JUMPDEST SWAP1 POP DUP2 DUP2 SWAP5 POP SWAP5 POP POP POP POP SWAP2 POP SWAP2 JUMP JUMPDEST PUSH1 0x0 DUP2 EQ ISZERO PUSH2 0x21C2 JUMPI PUSH2 0x2256 JUMP JUMPDEST JUMPDEST PUSH1 0x20 PUSH1 0xFF AND DUP2 LT PUSH2 0x220D JUMPI DUP3 MLOAD DUP3 MSTORE PUSH1 0x20 PUSH1 0xFF AND DUP4 PUSH2 0x21E2 SWAP2 SWAP1 PUSH2 0x37A7 JUMP JUMPDEST SWAP3 POP PUSH1 0x20 PUSH1 0xFF AND DUP3 PUSH2 0x21F4 SWAP2 SWAP1 PUSH2 0x37A7 JUMP JUMPDEST SWAP2 POP PUSH1 0x20 PUSH1 0xFF AND DUP2 PUSH2 0x2206 SWAP2 SWAP1 PUSH2 0x3A30 JUMP JUMPDEST SWAP1 POP PUSH2 0x21C3 JUMP JUMPDEST PUSH1 0x0 DUP2 GT ISZERO PUSH2 0x2255 JUMPI PUSH1 0x0 PUSH1 0x1 DUP3 PUSH1 0x20 PUSH1 0xFF AND PUSH2 0x222A SWAP2 SWAP1 PUSH2 0x3A30 JUMP JUMPDEST PUSH2 0x100 PUSH2 0x2237 SWAP2 SWAP1 PUSH2 0x38B8 JUMP JUMPDEST PUSH2 0x2241 SWAP2 SWAP1 PUSH2 0x3A30 JUMP JUMPDEST SWAP1 POP DUP1 NOT DUP5 MLOAD AND DUP2 DUP5 MLOAD AND DUP2 DUP2 OR DUP6 MSTORE POP POP POP JUMPDEST JUMPDEST POP POP POP JUMP JUMPDEST PUSH1 0x60 PUSH1 0x0 PUSH1 0x20 PUSH8 0xFFFFFFFFFFFFFFFF DUP2 GT ISZERO PUSH2 0x227A JUMPI PUSH2 0x2279 PUSH2 0x3CE4 JUMP JUMPDEST JUMPDEST PUSH1 0x40 MLOAD SWAP1 DUP1 DUP3 MSTORE DUP1 PUSH1 0x1F ADD PUSH1 0x1F NOT AND PUSH1 0x20 ADD DUP3 ADD PUSH1 0x40 MSTORE DUP1 ISZERO PUSH2 0x22AC JUMPI DUP2 PUSH1 0x20 ADD PUSH1 0x1 DUP3 MUL DUP1 CALLDATASIZE DUP4 CALLDATACOPY DUP1 DUP3 ADD SWAP2 POP POP SWAP1 POP JUMPDEST POP SWAP1 POP DUP3 PUSH1 0x20 DUP3 ADD MSTORE PUSH1 0x0 JUMPDEST PUSH1 0x20 DUP2 LT ISZERO PUSH2 0x2323 JUMPI PUSH1 0x0 PUSH1 0xF8 SHL DUP3 DUP3 DUP2 MLOAD DUP2 LT PUSH2 0x22D9 JUMPI PUSH2 0x22D8 PUSH2 0x3CB5 JUMP JUMPDEST JUMPDEST PUSH1 0x20 ADD ADD MLOAD PUSH1 0xF8 SHR PUSH1 0xF8 SHL PUSH31 0xFFFFFFFFFFFFFFFFFFFFFFFFFFFFFFFFFFFFFFFFFFFFFFFFFFFFFFFFFFFFFF NOT AND EQ PUSH2 0x2310 JUMPI PUSH2 0x2323 JUMP JUMPDEST DUP1 DUP1 PUSH2 0x231B SWAP1 PUSH2 0x3BAE JUMP JUMPDEST SWAP2 POP POP PUSH2 0x22B8 JUMP JUMPDEST PUSH1 0x0 DUP2 PUSH1 0x20 PUSH2 0x2332 SWAP2 SWAP1 PUSH2 0x3A30 JUMP JUMPDEST PUSH8 0xFFFFFFFFFFFFFFFF DUP2 GT ISZERO PUSH2 0x234B JUMPI PUSH2 0x234A PUSH2 0x3CE4 JUMP JUMPDEST JUMPDEST PUSH1 0x40 MLOAD SWAP1 DUP1 DUP3 MSTORE DUP1 PUSH1 0x1F ADD PUSH1 0x1F NOT AND PUSH1 0x20 ADD DUP3 ADD PUSH1 0x40 MSTORE DUP1 ISZERO PUSH2 0x237D JUMPI DUP2 PUSH1 0x20 ADD PUSH1 0x1 DUP3 MUL DUP1 CALLDATASIZE DUP4 CALLDATACOPY DUP1 DUP3 ADD SWAP2 POP POP SWAP1 POP JUMPDEST POP SWAP1 POP PUSH1 0x0 JUMPDEST DUP2 MLOAD DUP2 LT ISZERO PUSH2 0x240B JUMPI DUP4 DUP4 DUP1 PUSH2 0x2398 SWAP1 PUSH2 0x3BAE JUMP JUMPDEST SWAP5 POP DUP2 MLOAD DUP2 LT PUSH2 0x23AB JUMPI PUSH2 0x23AA PUSH2 0x3CB5 JUMP JUMPDEST JUMPDEST PUSH1 0x20 ADD ADD MLOAD PUSH1 0xF8 SHR PUSH1 0xF8 SHL DUP3 DUP3 DUP2 MLOAD DUP2 LT PUSH2 0x23C9 JUMPI PUSH2 0x23C8 PUSH2 0x3CB5 JUMP JUMPDEST JUMPDEST PUSH1 0x20 ADD ADD SWAP1 PUSH31 0xFFFFFFFFFFFFFFFFFFFFFFFFFFFFFFFFFFFFFFFFFFFFFFFFFFFFFFFFFFFFFF NOT AND SWAP1 DUP2 PUSH1 0x0 BYTE SWAP1 MSTORE8 POP DUP1 DUP1 PUSH2 0x2403 SWAP1 PUSH2 0x3BAE JUMP JUMPDEST SWAP2 POP POP PUSH2 0x2383 JUMP JUMPDEST POP DUP1 SWAP4 POP POP POP POP SWAP2 SWAP1 POP JUMP JUMPDEST PUSH1 0x60 DUP1 PUSH1 0x38 DUP5 LT ISZERO PUSH2 0x24E1 JUMPI PUSH1 0x1 PUSH8 0xFFFFFFFFFFFFFFFF DUP2 GT ISZERO PUSH2 0x243E JUMPI PUSH2 0x243D PUSH2 0x3CE4 JUMP JUMPDEST JUMPDEST PUSH1 0x40 MLOAD SWAP1 DUP1 DUP3 MSTORE DUP1 PUSH1 0x1F ADD PUSH1 0x1F NOT AND PUSH1 0x20 ADD DUP3 ADD PUSH1 0x40 MSTORE DUP1 ISZERO PUSH2 0x2470 JUMPI DUP2 PUSH1 0x20 ADD PUSH1 0x1 DUP3 MUL DUP1 CALLDATASIZE DUP4 CALLDATACOPY DUP1 DUP3 ADD SWAP2 POP POP SWAP1 POP JUMPDEST POP SWAP1 POP DUP3 DUP5 PUSH2 0x247F SWAP2 SWAP1 PUSH2 0x37A7 JUMP JUMPDEST PUSH1 0x0 SHL PUSH1 0x1F PUSH1 0x20 DUP2 LT PUSH2 0x2495 JUMPI PUSH2 0x2494 PUSH2 0x3CB5 JUMP JUMPDEST JUMPDEST BYTE PUSH1 0xF8 SHL DUP2 PUSH1 0x0 DUP2 MLOAD DUP2 LT PUSH2 0x24AD JUMPI PUSH2 0x24AC PUSH2 0x3CB5 JUMP JUMPDEST JUMPDEST PUSH1 0x20 ADD ADD SWAP1 PUSH31 0xFFFFFFFFFFFFFFFFFFFFFFFFFFFFFFFFFFFFFFFFFFFFFFFFFFFFFFFFFFFFFF NOT AND SWAP1 DUP2 PUSH1 0x0 BYTE SWAP1 MSTORE8 POP PUSH2 0x269E JUMP JUMPDEST PUSH1 0x0 DUP1 PUSH1 0x1 SWAP1 POP JUMPDEST PUSH1 0x0 DUP2 DUP8 PUSH2 0x24F7 SWAP2 SWAP1 PUSH2 0x3834 JUMP JUMPDEST EQ PUSH2 0x251F JUMPI DUP2 DUP1 PUSH2 0x2507 SWAP1 PUSH2 0x3BAE JUMP JUMPDEST SWAP3 POP POP PUSH2 0x100 DUP2 PUSH2 0x2518 SWAP2 SWAP1 PUSH2 0x39D6 JUMP JUMPDEST SWAP1 POP PUSH2 0x24E9 JUMP JUMPDEST PUSH1 0x1 DUP3 PUSH2 0x252C SWAP2 SWAP1 PUSH2 0x37A7 JUMP JUMPDEST PUSH8 0xFFFFFFFFFFFFFFFF DUP2 GT ISZERO PUSH2 0x2545 JUMPI PUSH2 0x2544 PUSH2 0x3CE4 JUMP JUMPDEST JUMPDEST PUSH1 0x40 MLOAD SWAP1 DUP1 DUP3 MSTORE DUP1 PUSH1 0x1F ADD PUSH1 0x1F NOT AND PUSH1 0x20 ADD DUP3 ADD PUSH1 0x40 MSTORE DUP1 ISZERO PUSH2 0x2577 JUMPI DUP2 PUSH1 0x20 ADD PUSH1 0x1 DUP3 MUL DUP1 CALLDATASIZE DUP4 CALLDATACOPY DUP1 DUP3 ADD SWAP2 POP POP SWAP1 POP JUMPDEST POP SWAP3 POP PUSH1 0x37 DUP6 DUP4 PUSH2 0x2588 SWAP2 SWAP1 PUSH2 0x37A7 JUMP JUMPDEST PUSH2 0x2592 SWAP2 SWAP1 PUSH2 0x37A7 JUMP JUMPDEST PUSH1 0x0 SHL PUSH1 0x1F PUSH1 0x20 DUP2 LT PUSH2 0x25A8 JUMPI PUSH2 0x25A7 PUSH2 0x3CB5 JUMP JUMPDEST JUMPDEST BYTE PUSH1 0xF8 SHL DUP4 PUSH1 0x0 DUP2 MLOAD DUP2 LT PUSH2 0x25C0 JUMPI PUSH2 0x25BF PUSH2 0x3CB5 JUMP JUMPDEST JUMPDEST PUSH1 0x20 ADD ADD SWAP1 PUSH31 0xFFFFFFFFFFFFFFFFFFFFFFFFFFFFFFFFFFFFFFFFFFFFFFFFFFFFFFFFFFFFFF NOT AND SWAP1 DUP2 PUSH1 0x0 BYTE SWAP1 MSTORE8 POP PUSH1 0x1 SWAP1 POP JUMPDEST DUP2 DUP2 GT PUSH2 0x269B JUMPI PUSH2 0x100 DUP2 DUP4 PUSH2 0x260A SWAP2 SWAP1 PUSH2 0x3A30 JUMP JUMPDEST PUSH2 0x100 PUSH2 0x2617 SWAP2 SWAP1 PUSH2 0x38B8 JUMP JUMPDEST DUP8 PUSH2 0x2622 SWAP2 SWAP1 PUSH2 0x3834 JUMP JUMPDEST PUSH2 0x262C SWAP2 SWAP1 PUSH2 0x3BF7 JUMP JUMPDEST PUSH1 0x0 SHL PUSH1 0x1F PUSH1 0x20 DUP2 LT PUSH2 0x2642 JUMPI PUSH2 0x2641 PUSH2 0x3CB5 JUMP JUMPDEST JUMPDEST BYTE PUSH1 0xF8 SHL DUP4 DUP3 DUP2 MLOAD DUP2 LT PUSH2 0x2659 JUMPI PUSH2 0x2658 PUSH2 0x3CB5 JUMP JUMPDEST JUMPDEST PUSH1 0x20 ADD ADD SWAP1 PUSH31 0xFFFFFFFFFFFFFFFFFFFFFFFFFFFFFFFFFFFFFFFFFFFFFFFFFFFFFFFFFFFFFF NOT AND SWAP1 DUP2 PUSH1 0x0 BYTE SWAP1 MSTORE8 POP DUP1 DUP1 PUSH2 0x2693 SWAP1 PUSH2 0x3BAE JUMP JUMPDEST SWAP2 POP POP PUSH2 0x25F4 JUMP JUMPDEST POP POP JUMPDEST DUP1 SWAP2 POP POP SWAP3 SWAP2 POP POP JUMP JUMPDEST PUSH1 0x60 DUP1 PUSH1 0x40 MLOAD SWAP1 POP DUP4 MLOAD DUP1 DUP3 MSTORE PUSH1 0x20 DUP3 ADD DUP2 DUP2 ADD PUSH1 0x20 DUP8 ADD JUMPDEST DUP2 DUP4 LT ISZERO PUSH2 0x26DE JUMPI DUP1 MLOAD DUP4 MSTORE PUSH1 0x20 DUP4 ADD SWAP3 POP PUSH1 0x20 DUP2 ADD SWAP1 POP PUSH2 0x26C1 JUMP JUMPDEST POP DUP6 MLOAD SWAP3 POP DUP4 MLOAD DUP4 ADD DUP5 MSTORE DUP1 SWAP2 POP DUP3 DUP3 ADD SWAP1 POP PUSH1 0x20 DUP7 ADD JUMPDEST DUP2 DUP4 LT ISZERO PUSH2 0x2713 JUMPI DUP1 MLOAD DUP4 MSTORE PUSH1 0x20 DUP4 ADD SWAP3 POP PUSH1 0x20 DUP2 ADD SWAP1 POP PUSH2 0x26F6 JUMP JUMPDEST POP PUSH1 0x1F NOT PUSH1 0x1F DUP9 MLOAD DUP6 ADD ISZERO DUP4 ADD ADD AND PUSH1 0x40 MSTORE POP POP POP DUP1 SWAP2 POP POP SWAP3 SWAP2 POP POP JUMP JUMPDEST DUP3 DUP1 SLOAD PUSH2 0x273E SWAP1 PUSH2 0x3B4B JUMP JUMPDEST SWAP1 PUSH1 0x0 MSTORE PUSH1 0x20 PUSH1 0x0 KECCAK256 SWAP1 PUSH1 0x1F ADD PUSH1 0x20 SWAP1 DIV DUP2 ADD SWAP3 DUP3 PUSH2 0x2760 JUMPI PUSH1 0x0 DUP6 SSTORE PUSH2 0x27A7 JUMP JUMPDEST DUP3 PUSH1 0x1F LT PUSH2 0x2779 JUMPI DUP1 MLOAD PUSH1 0xFF NOT AND DUP4 DUP1 ADD OR DUP6 SSTORE PUSH2 0x27A7 JUMP JUMPDEST DUP3 DUP1 ADD PUSH1 0x1 ADD DUP6 SSTORE DUP3 ISZERO PUSH2 0x27A7 JUMPI SWAP2 DUP3 ADD JUMPDEST DUP3 DUP2 GT ISZERO PUSH2 0x27A6 JUMPI DUP3 MLOAD DUP3 SSTORE SWAP2 PUSH1 0x20 ADD SWAP2 SWAP1 PUSH1 0x1 ADD SWAP1 PUSH2 0x278B JUMP JUMPDEST JUMPDEST POP SWAP1 POP PUSH2 0x27B4 SWAP2 SWAP1 PUSH2 0x28A4 JUMP JUMPDEST POP SWAP1 JUMP JUMPDEST PUSH1 0x40 MLOAD DUP1 PUSH1 0x60 ADD PUSH1 0x40 MSTORE DUP1 PUSH1 0x0 PUSH20 0xFFFFFFFFFFFFFFFFFFFFFFFFFFFFFFFFFFFFFFFF AND DUP2 MSTORE PUSH1 0x20 ADD PUSH1 0x0 DUP2 MSTORE PUSH1 0x20 ADD PUSH1 0x60 DUP2 MSTORE POP SWAP1 JUMP JUMPDEST DUP3 DUP1 SLOAD DUP3 DUP3 SSTORE SWAP1 PUSH1 0x0 MSTORE PUSH1 0x20 PUSH1 0x0 KECCAK256 SWAP1 DUP2 ADD SWAP3 DUP3 ISZERO PUSH2 0x283E JUMPI SWAP2 PUSH1 0x20 MUL DUP3 ADD JUMPDEST DUP3 DUP2 GT ISZERO PUSH2 0x283D JUMPI DUP3 MLOAD DUP3 SWAP1 DUP1 MLOAD SWAP1 PUSH1 0x20 ADD SWAP1 PUSH2 0x282D SWAP3 SWAP2 SWAP1 PUSH2 0x2732 JUMP JUMPDEST POP SWAP2 PUSH1 0x20 ADD SWAP2 SWAP1 PUSH1 0x1 ADD SWAP1 PUSH2 0x280F JUMP JUMPDEST JUMPDEST POP SWAP1 POP PUSH2 0x284B SWAP2 SWAP1 PUSH2 0x28C1 JUMP JUMPDEST POP SWAP1 JUMP JUMPDEST PUSH1 0x40 MLOAD DUP1 PUSH1 0xA0 ADD PUSH1 0x40 MSTORE DUP1 PUSH1 0x60 DUP2 MSTORE PUSH1 0x20 ADD PUSH2 0x2869 PUSH2 0x28E5 JUMP JUMPDEST DUP2 MSTORE PUSH1 0x20 ADD PUSH2 0x2876 PUSH2 0x28E5 JUMP JUMPDEST DUP2 MSTORE PUSH1 0x20 ADD PUSH1 0x0 DUP2 MSTORE PUSH1 0x20 ADD PUSH1 0x60 DUP2 MSTORE POP SWAP1 JUMP JUMPDEST PUSH1 0x40 MLOAD DUP1 PUSH1 0x40 ADD PUSH1 0x40 MSTORE DUP1 PUSH1 0x0 DUP2 MSTORE PUSH1 0x20 ADD PUSH1 0x0 DUP2 MSTORE POP SWAP1 JUMP JUMPDEST JUMPDEST DUP1 DUP3 GT ISZERO PUSH2 0x28BD JUMPI PUSH1 0x0 DUP2 PUSH1 0x0 SWAP1 SSTORE POP PUSH1 0x1 ADD PUSH2 0x28A5 JUMP JUMPDEST POP SWAP1 JUMP JUMPDEST JUMPDEST DUP1 DUP3 GT ISZERO PUSH2 0x28E1 JUMPI PUSH1 0x0 DUP2 DUP2 PUSH2 0x28D8 SWAP2 SWAP1 PUSH2 0x28FF JUMP JUMPDEST POP PUSH1 0x1 ADD PUSH2 0x28C2 JUMP JUMPDEST POP SWAP1 JUMP JUMPDEST PUSH1 0x40 MLOAD DUP1 PUSH1 0x40 ADD PUSH1 0x40 MSTORE DUP1 PUSH1 0x60 DUP2 MSTORE PUSH1 0x20 ADD PUSH1 0x0 DUP2 MSTORE POP SWAP1 JUMP JUMPDEST POP DUP1 SLOAD PUSH2 0x290B SWAP1 PUSH2 0x3B4B JUMP JUMPDEST PUSH1 0x0 DUP3 SSTORE DUP1 PUSH1 0x1F LT PUSH2 0x291D JUMPI POP PUSH2 0x293C JUMP JUMPDEST PUSH1 0x1F ADD PUSH1 0x20 SWAP1 DIV SWAP1 PUSH1 0x0 MSTORE PUSH1 0x20 PUSH1 0x0 KECCAK256 SWAP1 DUP2 ADD SWAP1 PUSH2 0x293B SWAP2 SWAP1 PUSH2 0x28A4 JUMP JUMPDEST JUMPDEST POP JUMP JUMPDEST PUSH1 0x0 PUSH2 0x2952 PUSH2 0x294D DUP5 PUSH2 0x367E JUMP JUMPDEST PUSH2 0x3659 JUMP JUMPDEST SWAP1 POP DUP1 DUP4 DUP3 MSTORE PUSH1 0x20 DUP3 ADD SWAP1 POP DUP3 DUP6 PUSH1 0x20 DUP7 MUL DUP3 ADD GT ISZERO PUSH2 0x2975 JUMPI PUSH2 0x2974 PUSH2 0x3D18 JUMP JUMPDEST JUMPDEST PUSH1 0x0 JUMPDEST DUP6 DUP2 LT ISZERO PUSH2 0x29C3 JUMPI DUP2 CALLDATALOAD PUSH8 0xFFFFFFFFFFFFFFFF DUP2 GT ISZERO PUSH2 0x299B JUMPI PUSH2 0x299A PUSH2 0x3D13 JUMP JUMPDEST JUMPDEST DUP1 DUP7 ADD PUSH2 0x29A8 DUP10 DUP3 PUSH2 0x2A67 JUMP JUMPDEST DUP6 MSTORE PUSH1 0x20 DUP6 ADD SWAP5 POP PUSH1 0x20 DUP5 ADD SWAP4 POP POP POP PUSH1 0x1 DUP2 ADD SWAP1 POP PUSH2 0x2978 JUMP JUMPDEST POP POP POP SWAP4 SWAP3 POP POP POP JUMP JUMPDEST PUSH1 0x0 PUSH2 0x29E0 PUSH2 0x29DB DUP5 PUSH2 0x36AA JUMP JUMPDEST PUSH2 0x3659 JUMP JUMPDEST SWAP1 POP DUP3 DUP2 MSTORE PUSH1 0x20 DUP2 ADD DUP5 DUP5 DUP5 ADD GT ISZERO PUSH2 0x29FC JUMPI PUSH2 0x29FB PUSH2 0x3D1D JUMP JUMPDEST JUMPDEST PUSH2 0x2A07 DUP5 DUP3 DUP6 PUSH2 0x3B09 JUMP JUMPDEST POP SWAP4 SWAP3 POP POP POP JUMP JUMPDEST PUSH1 0x0 DUP2 CALLDATALOAD SWAP1 POP PUSH2 0x2A1E DUP2 PUSH2 0x3F33 JUMP JUMPDEST SWAP3 SWAP2 POP POP JUMP JUMPDEST PUSH1 0x0 DUP3 PUSH1 0x1F DUP4 ADD SLT PUSH2 0x2A39 JUMPI PUSH2 0x2A38 PUSH2 0x3D13 JUMP JUMPDEST JUMPDEST DUP2 CALLDATALOAD PUSH2 0x2A49 DUP5 DUP3 PUSH1 0x20 DUP7 ADD PUSH2 0x293F JUMP JUMPDEST SWAP2 POP POP SWAP3 SWAP2 POP POP JUMP JUMPDEST PUSH1 0x0 DUP2 CALLDATALOAD SWAP1 POP PUSH2 0x2A61 DUP2 PUSH2 0x3F4A JUMP JUMPDEST SWAP3 SWAP2 POP POP JUMP JUMPDEST PUSH1 0x0 DUP3 PUSH1 0x1F DUP4 ADD SLT PUSH2 0x2A7C JUMPI PUSH2 0x2A7B PUSH2 0x3D13 JUMP JUMPDEST JUMPDEST DUP2 CALLDATALOAD PUSH2 0x2A8C DUP5 DUP3 PUSH1 0x20 DUP7 ADD PUSH2 0x29CD JUMP JUMPDEST SWAP2 POP POP SWAP3 SWAP2 POP POP JUMP JUMPDEST PUSH1 0x0 DUP2 CALLDATALOAD SWAP1 POP PUSH2 0x2AA4 DUP2 PUSH2 0x3F61 JUMP JUMPDEST SWAP3 SWAP2 POP POP JUMP JUMPDEST PUSH1 0x0 DUP2 CALLDATALOAD SWAP1 POP PUSH2 0x2AB9 DUP2 PUSH2 0x3F78 JUMP JUMPDEST SWAP3 SWAP2 POP POP JUMP JUMPDEST PUSH1 0x0 DUP1 PUSH1 0x40 DUP4 DUP6 SUB SLT ISZERO PUSH2 0x2AD6 JUMPI PUSH2 0x2AD5 PUSH2 0x3D27 JUMP JUMPDEST JUMPDEST PUSH1 0x0 DUP4 ADD CALLDATALOAD PUSH8 0xFFFFFFFFFFFFFFFF DUP2 GT ISZERO PUSH2 0x2AF4 JUMPI PUSH2 0x2AF3 PUSH2 0x3D22 JUMP JUMPDEST JUMPDEST PUSH2 0x2B00 DUP6 DUP3 DUP7 ADD PUSH2 0x2A24 JUMP JUMPDEST SWAP3 POP POP PUSH1 0x20 DUP4 ADD CALLDATALOAD PUSH8 0xFFFFFFFFFFFFFFFF DUP2 GT ISZERO PUSH2 0x2B21 JUMPI PUSH2 0x2B20 PUSH2 0x3D22 JUMP JUMPDEST JUMPDEST PUSH2 0x2B2D DUP6 DUP3 DUP7 ADD PUSH2 0x2A24 JUMP JUMPDEST SWAP2 POP POP SWAP3 POP SWAP3 SWAP1 POP JUMP JUMPDEST PUSH1 0x0 DUP1 PUSH1 0x40 DUP4 DUP6 SUB SLT ISZERO PUSH2 0x2B4E JUMPI PUSH2 0x2B4D PUSH2 0x3D27 JUMP JUMPDEST JUMPDEST PUSH1 0x0 DUP4 ADD CALLDATALOAD PUSH8 0xFFFFFFFFFFFFFFFF DUP2 GT ISZERO PUSH2 0x2B6C JUMPI PUSH2 0x2B6B PUSH2 0x3D22 JUMP JUMPDEST JUMPDEST PUSH2 0x2B78 DUP6 DUP3 DUP7 ADD PUSH2 0x2A24 JUMP JUMPDEST SWAP3 POP POP PUSH1 0x20 PUSH2 0x2B89 DUP6 DUP3 DUP7 ADD PUSH2 0x2A95 JUMP JUMPDEST SWAP2 POP POP SWAP3 POP SWAP3 SWAP1 POP JUMP JUMPDEST PUSH1 0x0 PUSH1 0x20 DUP3 DUP5 SUB SLT ISZERO PUSH2 0x2BA9 JUMPI PUSH2 0x2BA8 PUSH2 0x3D27 JUMP JUMPDEST JUMPDEST PUSH1 0x0 DUP3 ADD CALLDATALOAD PUSH8 0xFFFFFFFFFFFFFFFF DUP2 GT ISZERO PUSH2 0x2BC7 JUMPI PUSH2 0x2BC6 PUSH2 0x3D22 JUMP JUMPDEST JUMPDEST PUSH2 0x2BD3 DUP5 DUP3 DUP6 ADD PUSH2 0x2A67 JUMP JUMPDEST SWAP2 POP POP SWAP3 SWAP2 POP POP JUMP JUMPDEST PUSH1 0x0 DUP1 PUSH1 0x0 PUSH1 0x60 DUP5 DUP7 SUB SLT ISZERO PUSH2 0x2BF5 JUMPI PUSH2 0x2BF4 PUSH2 0x3D27 JUMP JUMPDEST JUMPDEST PUSH1 0x0 DUP5 ADD CALLDATALOAD PUSH8 0xFFFFFFFFFFFFFFFF DUP2 GT ISZERO PUSH2 0x2C13 JUMPI PUSH2 0x2C12 PUSH2 0x3D22 JUMP JUMPDEST JUMPDEST PUSH2 0x2C1F DUP7 DUP3 DUP8 ADD PUSH2 0x2A67 JUMP JUMPDEST SWAP4 POP POP PUSH1 0x20 PUSH2 0x2C30 DUP7 DUP3 DUP8 ADD PUSH2 0x2A52 JUMP JUMPDEST SWAP3 POP POP PUSH1 0x40 PUSH2 0x2C41 DUP7 DUP3 DUP8 ADD PUSH2 0x2A0F JUMP JUMPDEST SWAP2 POP POP SWAP3 POP SWAP3 POP SWAP3 JUMP JUMPDEST PUSH1 0x0 DUP1 PUSH1 0x40 DUP4 DUP6 SUB SLT ISZERO PUSH2 0x2C62 JUMPI PUSH2 0x2C61 PUSH2 0x3D27 JUMP JUMPDEST JUMPDEST PUSH1 0x0 DUP4 ADD CALLDATALOAD PUSH8 0xFFFFFFFFFFFFFFFF DUP2 GT ISZERO PUSH2 0x2C80 JUMPI PUSH2 0x2C7F PUSH2 0x3D22 JUMP JUMPDEST JUMPDEST PUSH2 0x2C8C DUP6 DUP3 DUP7 ADD PUSH2 0x2A67 JUMP JUMPDEST SWAP3 POP POP PUSH1 0x20 DUP4 ADD CALLDATALOAD PUSH8 0xFFFFFFFFFFFFFFFF DUP2 GT ISZERO PUSH2 0x2CAD JUMPI PUSH2 0x2CAC PUSH2 0x3D22 JUMP JUMPDEST JUMPDEST PUSH2 0x2CB9 DUP6 DUP3 DUP7 ADD PUSH2 0x2A67 JUMP JUMPDEST SWAP2 POP POP SWAP3 POP SWAP3 SWAP1 POP JUMP JUMPDEST PUSH1 0x0 DUP1 PUSH1 0x0 PUSH1 0x60 DUP5 DUP7 SUB SLT ISZERO PUSH2 0x2CDC JUMPI PUSH2 0x2CDB PUSH2 0x3D27 JUMP JUMPDEST JUMPDEST PUSH1 0x0 DUP5 ADD CALLDATALOAD PUSH8 0xFFFFFFFFFFFFFFFF DUP2 GT ISZERO PUSH2 0x2CFA JUMPI PUSH2 0x2CF9 PUSH2 0x3D22 JUMP JUMPDEST JUMPDEST PUSH2 0x2D06 DUP7 DUP3 DUP8 ADD PUSH2 0x2A67 JUMP JUMPDEST SWAP4 POP POP PUSH1 0x20 PUSH2 0x2D17 DUP7 DUP3 DUP8 ADD PUSH2 0x2A95 JUMP JUMPDEST SWAP3 POP POP PUSH1 0x40 PUSH2 0x2D28 DUP7 DUP3 DUP8 ADD PUSH2 0x2A95 JUMP JUMPDEST SWAP2 POP POP SWAP3 POP SWAP3 POP SWAP3 JUMP JUMPDEST PUSH1 0x0 PUSH1 0x20 DUP3 DUP5 SUB SLT ISZERO PUSH2 0x2D48 JUMPI PUSH2 0x2D47 PUSH2 0x3D27 JUMP JUMPDEST JUMPDEST PUSH1 0x0 PUSH2 0x2D56 DUP5 DUP3 DUP6 ADD PUSH2 0x2A95 JUMP JUMPDEST SWAP2 POP POP SWAP3 SWAP2 POP POP JUMP JUMPDEST PUSH1 0x0 DUP1 PUSH1 0x40 DUP4 DUP6 SUB SLT ISZERO PUSH2 0x2D76 JUMPI PUSH2 0x2D75 PUSH2 0x3D27 JUMP JUMPDEST JUMPDEST PUSH1 0x0 PUSH2 0x2D84 DUP6 DUP3 DUP7 ADD PUSH2 0x2A95 JUMP JUMPDEST SWAP3 POP POP PUSH1 0x20 DUP4 ADD CALLDATALOAD PUSH8 0xFFFFFFFFFFFFFFFF DUP2 GT ISZERO PUSH2 0x2DA5 JUMPI PUSH2 0x2DA4 PUSH2 0x3D22 JUMP JUMPDEST JUMPDEST PUSH2 0x2DB1 DUP6 DUP3 DUP7 ADD PUSH2 0x2A24 JUMP JUMPDEST SWAP2 POP POP SWAP3 POP SWAP3 SWAP1 POP JUMP JUMPDEST PUSH1 0x0 PUSH1 0x20 DUP3 DUP5 SUB SLT ISZERO PUSH2 0x2DD1 JUMPI PUSH2 0x2DD0 PUSH2 0x3D27 JUMP JUMPDEST JUMPDEST PUSH1 0x0 PUSH2 0x2DDF DUP5 DUP3 DUP6 ADD PUSH2 0x2AAA JUMP JUMPDEST SWAP2 POP POP SWAP3 SWAP2 POP POP JUMP JUMPDEST PUSH1 0x0 PUSH2 0x2DF4 DUP4 DUP4 PUSH2 0x2F89 JUMP JUMPDEST SWAP1 POP SWAP3 SWAP2 POP POP JUMP JUMPDEST PUSH1 0x0 PUSH2 0x2E08 DUP4 DUP4 PUSH2 0x32C5 JUMP JUMPDEST PUSH1 0x20 DUP4 ADD SWAP1 POP SWAP3 SWAP2 POP POP JUMP JUMPDEST PUSH2 0x2E1D DUP2 PUSH2 0x3A98 JUMP JUMPDEST DUP3 MSTORE POP POP JUMP JUMPDEST PUSH1 0x0 PUSH2 0x2E2E DUP3 PUSH2 0x36FB JUMP JUMPDEST PUSH2 0x2E38 DUP2 DUP6 PUSH2 0x3736 JUMP JUMPDEST SWAP4 POP DUP4 PUSH1 0x20 DUP3 MUL DUP6 ADD PUSH2 0x2E4A DUP6 PUSH2 0x36DB JUMP JUMPDEST DUP1 PUSH1 0x0 JUMPDEST DUP6 DUP2 LT ISZERO PUSH2 0x2E86 JUMPI DUP5 DUP5 SUB DUP10 MSTORE DUP2 MLOAD PUSH2 0x2E67 DUP6 DUP3 PUSH2 0x2DE8 JUMP JUMPDEST SWAP5 POP PUSH2 0x2E72 DUP4 PUSH2 0x371C JUMP JUMPDEST SWAP3 POP PUSH1 0x20 DUP11 ADD SWAP10 POP POP PUSH1 0x1 DUP2 ADD SWAP1 POP PUSH2 0x2E4E JUMP JUMPDEST POP DUP3 SWAP8 POP DUP8 SWAP6 POP POP POP POP POP POP SWAP3 SWAP2 POP POP JUMP JUMPDEST PUSH1 0x0 PUSH2 0x2EA3 DUP3 PUSH2 0x36FB JUMP JUMPDEST PUSH2 0x2EAD DUP2 DUP6 PUSH2 0x3747 JUMP JUMPDEST SWAP4 POP DUP4 PUSH1 0x20 DUP3 MUL DUP6 ADD PUSH2 0x2EBF DUP6 PUSH2 0x36DB JUMP JUMPDEST DUP1 PUSH1 0x0 JUMPDEST DUP6 DUP2 LT ISZERO PUSH2 0x2EFB JUMPI DUP5 DUP5 SUB DUP10 MSTORE DUP2 MLOAD PUSH2 0x2EDC DUP6 DUP3 PUSH2 0x2DE8 JUMP JUMPDEST SWAP5 POP PUSH2 0x2EE7 DUP4 PUSH2 0x371C JUMP JUMPDEST SWAP3 POP PUSH1 0x20 DUP11 ADD SWAP10 POP POP PUSH1 0x1 DUP2 ADD SWAP1 POP PUSH2 0x2EC3 JUMP JUMPDEST POP DUP3 SWAP8 POP DUP8 SWAP6 POP POP POP POP POP POP SWAP3 SWAP2 POP POP JUMP JUMPDEST PUSH1 0x0 PUSH2 0x2F18 DUP3 PUSH2 0x3706 JUMP JUMPDEST PUSH2 0x2F22 DUP2 DUP6 PUSH2 0x3758 JUMP JUMPDEST SWAP4 POP PUSH2 0x2F2D DUP4 PUSH2 0x36EB JUMP JUMPDEST DUP1 PUSH1 0x0 JUMPDEST DUP4 DUP2 LT ISZERO PUSH2 0x2F5E JUMPI DUP2 MLOAD PUSH2 0x2F45 DUP9 DUP3 PUSH2 0x2DFC JUMP JUMPDEST SWAP8 POP PUSH2 0x2F50 DUP4 PUSH2 0x3729 JUMP JUMPDEST SWAP3 POP POP PUSH1 0x1 DUP2 ADD SWAP1 POP PUSH2 0x2F31 JUMP JUMPDEST POP DUP6 SWAP4 POP POP POP POP SWAP3 SWAP2 POP POP JUMP JUMPDEST PUSH2 0x2F74 DUP2 PUSH2 0x3AAA JUMP JUMPDEST DUP3 MSTORE POP POP JUMP JUMPDEST PUSH2 0x2F83 DUP2 PUSH2 0x3AB6 JUMP JUMPDEST DUP3 MSTORE POP POP JUMP JUMPDEST PUSH1 0x0 PUSH2 0x2F94 DUP3 PUSH2 0x3711 JUMP JUMPDEST PUSH2 0x2F9E DUP2 DUP6 PUSH2 0x3769 JUMP JUMPDEST SWAP4 POP PUSH2 0x2FAE DUP2 DUP6 PUSH1 0x20 DUP7 ADD PUSH2 0x3B18 JUMP JUMPDEST PUSH2 0x2FB7 DUP2 PUSH2 0x3D2C JUMP JUMPDEST DUP5 ADD SWAP2 POP POP SWAP3 SWAP2 POP POP JUMP JUMPDEST PUSH1 0x0 PUSH2 0x2FCD DUP3 PUSH2 0x3711 JUMP JUMPDEST PUSH2 0x2FD7 DUP2 DUP6 PUSH2 0x377A JUMP JUMPDEST SWAP4 POP PUSH2 0x2FE7 DUP2 DUP6 PUSH1 0x20 DUP7 ADD PUSH2 0x3B18 JUMP JUMPDEST PUSH2 0x2FF0 DUP2 PUSH2 0x3D2C JUMP JUMPDEST DUP5 ADD SWAP2 POP POP SWAP3 SWAP2 POP POP JUMP JUMPDEST PUSH1 0x0 PUSH2 0x3006 DUP3 PUSH2 0x3711 JUMP JUMPDEST PUSH2 0x3010 DUP2 DUP6 PUSH2 0x378B JUMP JUMPDEST SWAP4 POP PUSH2 0x3020 DUP2 DUP6 PUSH1 0x20 DUP7 ADD PUSH2 0x3B18 JUMP JUMPDEST DUP1 DUP5 ADD SWAP2 POP POP SWAP3 SWAP2 POP POP JUMP JUMPDEST PUSH1 0x0 PUSH2 0x3039 PUSH1 0xD DUP4 PUSH2 0x3796 JUMP JUMPDEST SWAP2 POP PUSH2 0x3044 DUP3 PUSH2 0x3D4A JUMP JUMPDEST PUSH1 0x20 DUP3 ADD SWAP1 POP SWAP2 SWAP1 POP JUMP JUMPDEST PUSH1 0x0 PUSH2 0x305C PUSH1 0x29 DUP4 PUSH2 0x3796 JUMP JUMPDEST SWAP2 POP PUSH2 0x3067 DUP3 PUSH2 0x3D73 JUMP JUMPDEST PUSH1 0x40 DUP3 ADD SWAP1 POP SWAP2 SWAP1 POP JUMP JUMPDEST PUSH1 0x0 PUSH2 0x307F PUSH1 0xD DUP4 PUSH2 0x3796 JUMP JUMPDEST SWAP2 POP PUSH2 0x308A DUP3 PUSH2 0x3DC2 JUMP JUMPDEST PUSH1 0x20 DUP3 ADD SWAP1 POP SWAP2 SWAP1 POP JUMP JUMPDEST PUSH1 0x0 PUSH2 0x30A2 PUSH1 0x13 DUP4 PUSH2 0x3796 JUMP JUMPDEST SWAP2 POP PUSH2 0x30AD DUP3 PUSH2 0x3DEB JUMP JUMPDEST PUSH1 0x20 DUP3 ADD SWAP1 POP SWAP2 SWAP1 POP JUMP JUMPDEST PUSH1 0x0 PUSH2 0x30C5 PUSH1 0x10 DUP4 PUSH2 0x3796 JUMP JUMPDEST SWAP2 POP PUSH2 0x30D0 DUP3 PUSH2 0x3E14 JUMP JUMPDEST PUSH1 0x20 DUP3 ADD SWAP1 POP SWAP2 SWAP1 POP JUMP JUMPDEST PUSH1 0x0 PUSH2 0x30E8 PUSH1 0x11 DUP4 PUSH2 0x3796 JUMP JUMPDEST SWAP2 POP PUSH2 0x30F3 DUP3 PUSH2 0x3E3D JUMP JUMPDEST PUSH1 0x20 DUP3 ADD SWAP1 POP SWAP2 SWAP1 POP JUMP JUMPDEST PUSH1 0x0 PUSH2 0x310B PUSH1 0xD DUP4 PUSH2 0x3796 JUMP JUMPDEST SWAP2 POP PUSH2 0x3116 DUP3 PUSH2 0x3E66 JUMP JUMPDEST PUSH1 0x20 DUP3 ADD SWAP1 POP SWAP2 SWAP1 POP JUMP JUMPDEST PUSH1 0x0 PUSH2 0x312E PUSH1 0x8 DUP4 PUSH2 0x3796 JUMP JUMPDEST SWAP2 POP PUSH2 0x3139 DUP3 PUSH2 0x3E8F JUMP JUMPDEST PUSH1 0x20 DUP3 ADD SWAP1 POP SWAP2 SWAP1 POP JUMP JUMPDEST PUSH1 0x0 PUSH2 0x3151 PUSH1 0x15 DUP4 PUSH2 0x3796 JUMP JUMPDEST SWAP2 POP PUSH2 0x315C DUP3 PUSH2 0x3EB8 JUMP JUMPDEST PUSH1 0x20 DUP3 ADD SWAP1 POP SWAP2 SWAP1 POP JUMP JUMPDEST PUSH1 0x0 PUSH2 0x3174 PUSH1 0x13 DUP4 PUSH2 0x3796 JUMP JUMPDEST SWAP2 POP PUSH2 0x317F DUP3 PUSH2 0x3EE1 JUMP JUMPDEST PUSH1 0x20 DUP3 ADD SWAP1 POP SWAP2 SWAP1 POP JUMP JUMPDEST PUSH1 0x0 PUSH2 0x3197 PUSH1 0x18 DUP4 PUSH2 0x3796 JUMP JUMPDEST SWAP2 POP PUSH2 0x31A2 DUP3 PUSH2 0x3F0A JUMP JUMPDEST PUSH1 0x20 DUP3 ADD SWAP1 POP SWAP2 SWAP1 POP JUMP JUMPDEST PUSH1 0x0 PUSH1 0x60 DUP4 ADD PUSH1 0x0 DUP4 ADD MLOAD PUSH2 0x31C5 PUSH1 0x0 DUP7 ADD DUP3 PUSH2 0x2E14 JUMP JUMPDEST POP PUSH1 0x20 DUP4 ADD MLOAD PUSH2 0x31D8 PUSH1 0x20 DUP7 ADD DUP3 PUSH2 0x32C5 JUMP JUMPDEST POP PUSH1 0x40 DUP4 ADD MLOAD DUP5 DUP3 SUB PUSH1 0x40 DUP7 ADD MSTORE PUSH2 0x31F0 DUP3 DUP3 PUSH2 0x2F89 JUMP JUMPDEST SWAP2 POP POP DUP1 SWAP2 POP POP SWAP3 SWAP2 POP POP JUMP JUMPDEST PUSH1 0x0 PUSH1 0x40 DUP4 ADD PUSH1 0x0 DUP4 ADD MLOAD DUP5 DUP3 SUB PUSH1 0x0 DUP7 ADD MSTORE PUSH2 0x321A DUP3 DUP3 PUSH2 0x2F89 JUMP JUMPDEST SWAP2 POP POP PUSH1 0x20 DUP4 ADD MLOAD PUSH2 0x322F PUSH1 0x20 DUP7 ADD DUP3 PUSH2 0x32C5 JUMP JUMPDEST POP DUP1 SWAP2 POP POP SWAP3 SWAP2 POP POP JUMP JUMPDEST PUSH1 0x0 PUSH1 0xA0 DUP4 ADD PUSH1 0x0 DUP4 ADD MLOAD DUP5 DUP3 SUB PUSH1 0x0 DUP7 ADD MSTORE PUSH2 0x3257 DUP3 DUP3 PUSH2 0x2F89 JUMP JUMPDEST SWAP2 POP POP PUSH1 0x20 DUP4 ADD MLOAD DUP5 DUP3 SUB PUSH1 0x20 DUP7 ADD MSTORE PUSH2 0x3271 DUP3 DUP3 PUSH2 0x31FD JUMP JUMPDEST SWAP2 POP POP PUSH1 0x40 DUP4 ADD MLOAD DUP5 DUP3 SUB PUSH1 0x40 DUP7 ADD MSTORE PUSH2 0x328B DUP3 DUP3 PUSH2 0x31FD JUMP JUMPDEST SWAP2 POP POP PUSH1 0x60 DUP4 ADD MLOAD PUSH2 0x32A0 PUSH1 0x60 DUP7 ADD DUP3 PUSH2 0x32C5 JUMP JUMPDEST POP PUSH1 0x80 DUP4 ADD MLOAD DUP5 DUP3 SUB PUSH1 0x80 DUP7 ADD MSTORE PUSH2 0x32B8 DUP3 DUP3 PUSH2 0x2E23 JUMP JUMPDEST SWAP2 POP POP DUP1 SWAP2 POP POP SWAP3 SWAP2 POP POP JUMP JUMPDEST PUSH2 0x32CE DUP2 PUSH2 0x3AE0 JUMP JUMPDEST DUP3 MSTORE POP POP JUMP JUMPDEST PUSH2 0x32DD DUP2 PUSH2 0x3AE0 JUMP JUMPDEST DUP3 MSTORE POP POP JUMP JUMPDEST PUSH2 0x32EC DUP2 PUSH2 0x3AF7 JUMP JUMPDEST DUP3 MSTORE POP POP JUMP JUMPDEST PUSH2 0x32FB DUP2 PUSH2 0x3AEA JUMP JUMPDEST DUP3 MSTORE POP POP JUMP JUMPDEST PUSH1 0x0 PUSH2 0x330D DUP3 DUP5 PUSH2 0x2FFB JUMP JUMPDEST SWAP2 POP DUP2 SWAP1 POP SWAP3 SWAP2 POP POP JUMP JUMPDEST PUSH1 0x0 PUSH1 0x20 DUP3 ADD SWAP1 POP DUP2 DUP2 SUB PUSH1 0x0 DUP4 ADD MSTORE PUSH2 0x3332 DUP2 DUP5 PUSH2 0x2E98 JUMP JUMPDEST SWAP1 POP SWAP3 SWAP2 POP POP JUMP JUMPDEST PUSH1 0x0 PUSH1 0x40 DUP3 ADD SWAP1 POP DUP2 DUP2 SUB PUSH1 0x0 DUP4 ADD MSTORE PUSH2 0x3354 DUP2 DUP6 PUSH2 0x2F0D JUMP JUMPDEST SWAP1 POP PUSH2 0x3363 PUSH1 0x20 DUP4 ADD DUP5 PUSH2 0x32F2 JUMP JUMPDEST SWAP4 SWAP3 POP POP POP JUMP JUMPDEST PUSH1 0x0 PUSH1 0x20 DUP3 ADD SWAP1 POP PUSH2 0x337F PUSH1 0x0 DUP4 ADD DUP5 PUSH2 0x2F6B JUMP JUMPDEST SWAP3 SWAP2 POP POP JUMP JUMPDEST PUSH1 0x0 PUSH1 0x80 DUP3 ADD SWAP1 POP PUSH2 0x339A PUSH1 0x0 DUP4 ADD DUP8 PUSH2 0x2F7A JUMP JUMPDEST PUSH2 0x33A7 PUSH1 0x20 DUP4 ADD DUP7 PUSH2 0x32F2 JUMP JUMPDEST PUSH2 0x33B4 PUSH1 0x40 DUP4 ADD DUP6 PUSH2 0x2F7A JUMP JUMPDEST PUSH2 0x33C1 PUSH1 0x60 DUP4 ADD DUP5 PUSH2 0x2F7A JUMP JUMPDEST SWAP6 SWAP5 POP POP POP POP POP JUMP JUMPDEST PUSH1 0x0 PUSH1 0x20 DUP3 ADD SWAP1 POP DUP2 DUP2 SUB PUSH1 0x0 DUP4 ADD MSTORE PUSH2 0x33E4 DUP2 DUP5 PUSH2 0x2FC2 JUMP JUMPDEST SWAP1 POP SWAP3 SWAP2 POP POP JUMP JUMPDEST PUSH1 0x0 PUSH1 0x20 DUP3 ADD SWAP1 POP DUP2 DUP2 SUB PUSH1 0x0 DUP4 ADD MSTORE PUSH2 0x3405 DUP2 PUSH2 0x302C JUMP JUMPDEST SWAP1 POP SWAP2 SWAP1 POP JUMP JUMPDEST PUSH1 0x0 PUSH1 0x20 DUP3 ADD SWAP1 POP DUP2 DUP2 SUB PUSH1 0x0 DUP4 ADD MSTORE PUSH2 0x3425 DUP2 PUSH2 0x304F JUMP JUMPDEST SWAP1 POP SWAP2 SWAP1 POP JUMP JUMPDEST PUSH1 0x0 PUSH1 0x40 DUP3 ADD SWAP1 POP DUP2 DUP2 SUB PUSH1 0x0 DUP4 ADD MSTORE PUSH2 0x3445 DUP2 PUSH2 0x3072 JUMP JUMPDEST SWAP1 POP PUSH2 0x3454 PUSH1 0x20 DUP4 ADD DUP5 PUSH2 0x32E3 JUMP JUMPDEST SWAP3 SWAP2 POP POP JUMP JUMPDEST PUSH1 0x0 PUSH1 0x20 DUP3 ADD SWAP1 POP DUP2 DUP2 SUB PUSH1 0x0 DUP4 ADD MSTORE PUSH2 0x3473 DUP2 PUSH2 0x3095 JUMP JUMPDEST SWAP1 POP SWAP2 SWAP1 POP JUMP JUMPDEST PUSH1 0x0 PUSH1 0x40 DUP3 ADD SWAP1 POP DUP2 DUP2 SUB PUSH1 0x0 DUP4 ADD MSTORE PUSH2 0x3493 DUP2 PUSH2 0x30B8 JUMP JUMPDEST SWAP1 POP DUP2 DUP2 SUB PUSH1 0x20 DUP4 ADD MSTORE PUSH2 0x34A7 DUP2 DUP5 PUSH2 0x2FC2 JUMP JUMPDEST SWAP1 POP SWAP3 SWAP2 POP POP JUMP JUMPDEST PUSH1 0x0 PUSH1 0x40 DUP3 ADD SWAP1 POP DUP2 DUP2 SUB PUSH1 0x0 DUP4 ADD MSTORE PUSH2 0x34C8 DUP2 PUSH2 0x30DB JUMP JUMPDEST SWAP1 POP PUSH2 0x34D7 PUSH1 0x20 DUP4 ADD DUP5 PUSH2 0x2F6B JUMP JUMPDEST SWAP3 SWAP2 POP POP JUMP JUMPDEST PUSH1 0x0 PUSH1 0x40 DUP3 ADD SWAP1 POP DUP2 DUP2 SUB PUSH1 0x0 DUP4 ADD MSTORE PUSH2 0x34F6 DUP2 PUSH2 0x30FE JUMP JUMPDEST SWAP1 POP PUSH2 0x3505 PUSH1 0x20 DUP4 ADD DUP5 PUSH2 0x32D4 JUMP JUMPDEST SWAP3 SWAP2 POP POP JUMP JUMPDEST PUSH1 0x0 PUSH1 0x20 DUP3 ADD SWAP1 POP DUP2 DUP2 SUB PUSH1 0x0 DUP4 ADD MSTORE PUSH2 0x3524 DUP2 PUSH2 0x3121 JUMP JUMPDEST SWAP1 POP SWAP2 SWAP1 POP JUMP JUMPDEST PUSH1 0x0 PUSH1 0x40 DUP3 ADD SWAP1 POP DUP2 DUP2 SUB PUSH1 0x0 DUP4 ADD MSTORE PUSH2 0x3544 DUP2 PUSH2 0x3144 JUMP JUMPDEST SWAP1 POP PUSH2 0x3553 PUSH1 0x20 DUP4 ADD DUP5 PUSH2 0x2F6B JUMP JUMPDEST SWAP3 SWAP2 POP POP JUMP JUMPDEST PUSH1 0x0 PUSH1 0x40 DUP3 ADD SWAP1 POP DUP2 DUP2 SUB PUSH1 0x0 DUP4 ADD MSTORE PUSH2 0x3572 DUP2 PUSH2 0x3167 JUMP JUMPDEST SWAP1 POP PUSH2 0x3581 PUSH1 0x20 DUP4 ADD DUP5 PUSH2 0x2F6B JUMP JUMPDEST SWAP3 SWAP2 POP POP JUMP JUMPDEST PUSH1 0x0 PUSH1 0x20 DUP3 ADD SWAP1 POP DUP2 DUP2 SUB PUSH1 0x0 DUP4 ADD MSTORE PUSH2 0x35A0 DUP2 PUSH2 0x318A JUMP JUMPDEST SWAP1 POP SWAP2 SWAP1 POP JUMP JUMPDEST PUSH1 0x0 PUSH1 0x20 DUP3 ADD SWAP1 POP DUP2 DUP2 SUB PUSH1 0x0 DUP4 ADD MSTORE PUSH2 0x35C1 DUP2 DUP5 PUSH2 0x31AD JUMP JUMPDEST SWAP1 POP SWAP3 SWAP2 POP POP JUMP JUMPDEST PUSH1 0x0 PUSH1 0x20 DUP3 ADD SWAP1 POP DUP2 DUP2 SUB PUSH1 0x0 DUP4 ADD MSTORE PUSH2 0x35E3 DUP2 DUP5 PUSH2 0x323A JUMP JUMPDEST SWAP1 POP SWAP3 SWAP2 POP POP JUMP JUMPDEST PUSH1 0x0 PUSH1 0x40 DUP3 ADD SWAP1 POP PUSH2 0x3600 PUSH1 0x0 DUP4 ADD DUP6 PUSH2 0x32D4 JUMP JUMPDEST PUSH2 0x360D PUSH1 0x20 DUP4 ADD DUP5 PUSH2 0x2F6B JUMP JUMPDEST SWAP4 SWAP3 POP POP POP JUMP JUMPDEST PUSH1 0x0 PUSH1 0x80 DUP3 ADD SWAP1 POP PUSH2 0x3629 PUSH1 0x0 DUP4 ADD DUP8 PUSH2 0x32D4 JUMP JUMPDEST PUSH2 0x3636 PUSH1 0x20 DUP4 ADD DUP7 PUSH2 0x32D4 JUMP JUMPDEST PUSH2 0x3643 PUSH1 0x40 DUP4 ADD DUP6 PUSH2 0x32D4 JUMP JUMPDEST PUSH2 0x3650 PUSH1 0x60 DUP4 ADD DUP5 PUSH2 0x32D4 JUMP JUMPDEST SWAP6 SWAP5 POP POP POP POP POP JUMP JUMPDEST PUSH1 0x0 PUSH2 0x3663 PUSH2 0x3674 JUMP JUMPDEST SWAP1 POP PUSH2 0x366F DUP3 DUP3 PUSH2 0x3B7D JUMP JUMPDEST SWAP2 SWAP1 POP JUMP JUMPDEST PUSH1 0x0 PUSH1 0x40 MLOAD SWAP1 POP SWAP1 JUMP JUMPDEST PUSH1 0x0 PUSH8 0xFFFFFFFFFFFFFFFF DUP3 GT ISZERO PUSH2 0x3699 JUMPI PUSH2 0x3698 PUSH2 0x3CE4 JUMP JUMPDEST JUMPDEST PUSH1 0x20 DUP3 MUL SWAP1 POP PUSH1 0x20 DUP2 ADD SWAP1 POP SWAP2 SWAP1 POP JUMP JUMPDEST PUSH1 0x0 PUSH8 0xFFFFFFFFFFFFFFFF DUP3 GT ISZERO PUSH2 0x36C5 JUMPI PUSH2 0x36C4 PUSH2 0x3CE4 JUMP JUMPDEST JUMPDEST PUSH2 0x36CE DUP3 PUSH2 0x3D2C JUMP JUMPDEST SWAP1 POP PUSH1 0x20 DUP2 ADD SWAP1 POP SWAP2 SWAP1 POP JUMP JUMPDEST PUSH1 0x0 DUP2 SWAP1 POP PUSH1 0x20 DUP3 ADD SWAP1 POP SWAP2 SWAP1 POP JUMP JUMPDEST PUSH1 0x0 DUP2 SWAP1 POP PUSH1 0x20 DUP3 ADD SWAP1 POP SWAP2 SWAP1 POP JUMP JUMPDEST PUSH1 0x0 DUP2 MLOAD SWAP1 POP SWAP2 SWAP1 POP JUMP JUMPDEST PUSH1 0x0 DUP2 MLOAD SWAP1 POP SWAP2 SWAP1 POP JUMP JUMPDEST PUSH1 0x0 DUP2 MLOAD SWAP1 POP SWAP2 SWAP1 POP JUMP JUMPDEST PUSH1 0x0 PUSH1 0x20 DUP3 ADD SWAP1 POP SWAP2 SWAP1 POP JUMP JUMPDEST PUSH1 0x0 PUSH1 0x20 DUP3 ADD SWAP1 POP SWAP2 SWAP1 POP JUMP JUMPDEST PUSH1 0x0 DUP3 DUP3 MSTORE PUSH1 0x20 DUP3 ADD SWAP1 POP SWAP3 SWAP2 POP POP JUMP JUMPDEST PUSH1 0x0 DUP3 DUP3 MSTORE PUSH1 0x20 DUP3 ADD SWAP1 POP SWAP3 SWAP2 POP POP JUMP JUMPDEST PUSH1 0x0 DUP3 DUP3 MSTORE PUSH1 0x20 DUP3 ADD SWAP1 POP SWAP3 SWAP2 POP POP JUMP JUMPDEST PUSH1 0x0 DUP3 DUP3 MSTORE PUSH1 0x20 DUP3 ADD SWAP1 POP SWAP3 SWAP2 POP POP JUMP JUMPDEST PUSH1 0x0 DUP3 DUP3 MSTORE PUSH1 0x20 DUP3 ADD SWAP1 POP SWAP3 SWAP2 POP POP JUMP JUMPDEST PUSH1 0x0 DUP2 SWAP1 POP SWAP3 SWAP2 POP POP JUMP JUMPDEST PUSH1 0x0 DUP3 DUP3 MSTORE PUSH1 0x20 DUP3 ADD SWAP1 POP SWAP3 SWAP2 POP POP JUMP JUMPDEST PUSH1 0x0 PUSH2 0x37B2 DUP3 PUSH2 0x3AE0 JUMP JUMPDEST SWAP2 POP PUSH2 0x37BD DUP4 PUSH2 0x3AE0 JUMP JUMPDEST SWAP3 POP DUP3 PUSH32 0xFFFFFFFFFFFFFFFFFFFFFFFFFFFFFFFFFFFFFFFFFFFFFFFFFFFFFFFFFFFFFFFF SUB DUP3 GT ISZERO PUSH2 0x37F2 JUMPI PUSH2 0x37F1 PUSH2 0x3C28 JUMP JUMPDEST JUMPDEST DUP3 DUP3 ADD SWAP1 POP SWAP3 SWAP2 POP POP JUMP JUMPDEST PUSH1 0x0 PUSH2 0x3808 DUP3 PUSH2 0x3AEA JUMP JUMPDEST SWAP2 POP PUSH2 0x3813 DUP4 PUSH2 0x3AEA JUMP JUMPDEST SWAP3 POP DUP3 PUSH1 0xFF SUB DUP3 GT ISZERO PUSH2 0x3829 JUMPI PUSH2 0x3828 PUSH2 0x3C28 JUMP JUMPDEST JUMPDEST DUP3 DUP3 ADD SWAP1 POP SWAP3 SWAP2 POP POP JUMP JUMPDEST PUSH1 0x0 PUSH2 0x383F DUP3 PUSH2 0x3AE0 JUMP JUMPDEST SWAP2 POP PUSH2 0x384A DUP4 PUSH2 0x3AE0 JUMP JUMPDEST SWAP3 POP DUP3 PUSH2 0x385A JUMPI PUSH2 0x3859 PUSH2 0x3C57 JUMP JUMPDEST JUMPDEST DUP3 DUP3 DIV SWAP1 POP SWAP3 SWAP2 POP POP JUMP JUMPDEST PUSH1 0x0 DUP1 DUP3 SWAP2 POP DUP4 SWAP1 POP JUMPDEST PUSH1 0x1 DUP6 GT ISZERO PUSH2 0x38AF JUMPI DUP1 DUP7 DIV DUP2 GT ISZERO PUSH2 0x388B JUMPI PUSH2 0x388A PUSH2 0x3C28 JUMP JUMPDEST JUMPDEST PUSH1 0x1 DUP6 AND ISZERO PUSH2 0x389A JUMPI DUP1 DUP3 MUL SWAP2 POP JUMPDEST DUP1 DUP2 MUL SWAP1 POP PUSH2 0x38A8 DUP6 PUSH2 0x3D3D JUMP JUMPDEST SWAP5 POP PUSH2 0x386F JUMP JUMPDEST SWAP5 POP SWAP5 SWAP3 POP POP POP JUMP JUMPDEST PUSH1 0x0 PUSH2 0x38C3 DUP3 PUSH2 0x3AE0 JUMP JUMPDEST SWAP2 POP PUSH2 0x38CE DUP4 PUSH2 0x3AE0 JUMP JUMPDEST SWAP3 POP PUSH2 0x38FB PUSH32 0xFFFFFFFFFFFFFFFFFFFFFFFFFFFFFFFFFFFFFFFFFFFFFFFFFFFFFFFFFFFFFFFF DUP5 DUP5 PUSH2 0x3903 JUMP JUMPDEST SWAP1 POP SWAP3 SWAP2 POP POP JUMP JUMPDEST PUSH1 0x0 DUP3 PUSH2 0x3913 JUMPI PUSH1 0x1 SWAP1 POP PUSH2 0x39CF JUMP JUMPDEST DUP2 PUSH2 0x3921 JUMPI PUSH1 0x0 SWAP1 POP PUSH2 0x39CF JUMP JUMPDEST DUP2 PUSH1 0x1 DUP2 EQ PUSH2 0x3937 JUMPI PUSH1 0x2 DUP2 EQ PUSH2 0x3941 JUMPI PUSH2 0x3970 JUMP JUMPDEST PUSH1 0x1 SWAP2 POP POP PUSH2 0x39CF JUMP JUMPDEST PUSH1 0xFF DUP5 GT ISZERO PUSH2 0x3953 JUMPI PUSH2 0x3952 PUSH2 0x3C28 JUMP JUMPDEST JUMPDEST DUP4 PUSH1 0x2 EXP SWAP2 POP DUP5 DUP3 GT ISZERO PUSH2 0x396A JUMPI PUSH2 0x3969 PUSH2 0x3C28 JUMP JUMPDEST JUMPDEST POP PUSH2 0x39CF JUMP JUMPDEST POP PUSH1 0x20 DUP4 LT PUSH2 0x133 DUP4 LT AND PUSH1 0x4E DUP5 LT PUSH1 0xB DUP5 LT AND OR ISZERO PUSH2 0x39A5 JUMPI DUP3 DUP3 EXP SWAP1 POP DUP4 DUP2 GT ISZERO PUSH2 0x39A0 JUMPI PUSH2 0x399F PUSH2 0x3C28 JUMP JUMPDEST JUMPDEST PUSH2 0x39CF JUMP JUMPDEST PUSH2 0x39B2 DUP5 DUP5 DUP5 PUSH1 0x1 PUSH2 0x3865 JUMP JUMPDEST SWAP3 POP SWAP1 POP DUP2 DUP5 DIV DUP2 GT ISZERO PUSH2 0x39C9 JUMPI PUSH2 0x39C8 PUSH2 0x3C28 JUMP JUMPDEST JUMPDEST DUP2 DUP2 MUL SWAP1 POP JUMPDEST SWAP4 SWAP3 POP POP POP JUMP JUMPDEST PUSH1 0x0 PUSH2 0x39E1 DUP3 PUSH2 0x3AE0 JUMP JUMPDEST SWAP2 POP PUSH2 0x39EC DUP4 PUSH2 0x3AE0 JUMP JUMPDEST SWAP3 POP DUP2 PUSH32 0xFFFFFFFFFFFFFFFFFFFFFFFFFFFFFFFFFFFFFFFFFFFFFFFFFFFFFFFFFFFFFFFF DIV DUP4 GT DUP3 ISZERO ISZERO AND ISZERO PUSH2 0x3A25 JUMPI PUSH2 0x3A24 PUSH2 0x3C28 JUMP JUMPDEST JUMPDEST DUP3 DUP3 MUL SWAP1 POP SWAP3 SWAP2 POP POP JUMP JUMPDEST PUSH1 0x0 PUSH2 0x3A3B DUP3 PUSH2 0x3AE0 JUMP JUMPDEST SWAP2 POP PUSH2 0x3A46 DUP4 PUSH2 0x3AE0 JUMP JUMPDEST SWAP3 POP DUP3 DUP3 LT ISZERO PUSH2 0x3A59 JUMPI PUSH2 0x3A58 PUSH2 0x3C28 JUMP JUMPDEST JUMPDEST DUP3 DUP3 SUB SWAP1 POP SWAP3 SWAP2 POP POP JUMP JUMPDEST PUSH1 0x0 PUSH2 0x3A6F DUP3 PUSH2 0x3AEA JUMP JUMPDEST SWAP2 POP PUSH2 0x3A7A DUP4 PUSH2 0x3AEA JUMP JUMPDEST SWAP3 POP DUP3 DUP3 LT ISZERO PUSH2 0x3A8D JUMPI PUSH2 0x3A8C PUSH2 0x3C28 JUMP JUMPDEST JUMPDEST DUP3 DUP3 SUB SWAP1 POP SWAP3 SWAP2 POP POP JUMP JUMPDEST PUSH1 0x0 PUSH2 0x3AA3 DUP3 PUSH2 0x3AC0 JUMP JUMPDEST SWAP1 POP SWAP2 SWAP1 POP JUMP JUMPDEST PUSH1 0x0 DUP2 ISZERO ISZERO SWAP1 POP SWAP2 SWAP1 POP JUMP JUMPDEST PUSH1 0x0 DUP2 SWAP1 POP SWAP2 SWAP1 POP JUMP JUMPDEST PUSH1 0x0 PUSH20 0xFFFFFFFFFFFFFFFFFFFFFFFFFFFFFFFFFFFFFFFF DUP3 AND SWAP1 POP SWAP2 SWAP1 POP JUMP JUMPDEST PUSH1 0x0 DUP2 SWAP1 POP SWAP2 SWAP1 POP JUMP JUMPDEST PUSH1 0x0 PUSH1 0xFF DUP3 AND SWAP1 POP SWAP2 SWAP1 POP JUMP JUMPDEST PUSH1 0x0 PUSH2 0x3B02 DUP3 PUSH2 0x3AEA JUMP JUMPDEST SWAP1 POP SWAP2 SWAP1 POP JUMP JUMPDEST DUP3 DUP2 DUP4 CALLDATACOPY PUSH1 0x0 DUP4 DUP4 ADD MSTORE POP POP POP JUMP JUMPDEST PUSH1 0x0 JUMPDEST DUP4 DUP2 LT ISZERO PUSH2 0x3B36 JUMPI DUP1 DUP3 ADD MLOAD DUP2 DUP5 ADD MSTORE PUSH1 0x20 DUP2 ADD SWAP1 POP PUSH2 0x3B1B JUMP JUMPDEST DUP4 DUP2 GT ISZERO PUSH2 0x3B45 JUMPI PUSH1 0x0 DUP5 DUP5 ADD MSTORE JUMPDEST POP POP POP POP JUMP JUMPDEST PUSH1 0x0 PUSH1 0x2 DUP3 DIV SWAP1 POP PUSH1 0x1 DUP3 AND DUP1 PUSH2 0x3B63 JUMPI PUSH1 0x7F DUP3 AND SWAP2 POP JUMPDEST PUSH1 0x20 DUP3 LT DUP2 EQ ISZERO PUSH2 0x3B77 JUMPI PUSH2 0x3B76 PUSH2 0x3C86 JUMP JUMPDEST JUMPDEST POP SWAP2 SWAP1 POP JUMP JUMPDEST PUSH2 0x3B86 DUP3 PUSH2 0x3D2C JUMP JUMPDEST DUP2 ADD DUP2 DUP2 LT PUSH8 0xFFFFFFFFFFFFFFFF DUP3 GT OR ISZERO PUSH2 0x3BA5 JUMPI PUSH2 0x3BA4 PUSH2 0x3CE4 JUMP JUMPDEST JUMPDEST DUP1 PUSH1 0x40 MSTORE POP POP POP JUMP JUMPDEST PUSH1 0x0 PUSH2 0x3BB9 DUP3 PUSH2 0x3AE0 JUMP JUMPDEST SWAP2 POP PUSH32 0xFFFFFFFFFFFFFFFFFFFFFFFFFFFFFFFFFFFFFFFFFFFFFFFFFFFFFFFFFFFFFFFF DUP3 EQ ISZERO PUSH2 0x3BEC JUMPI PUSH2 0x3BEB PUSH2 0x3C28 JUMP JUMPDEST JUMPDEST PUSH1 0x1 DUP3 ADD SWAP1 POP SWAP2 SWAP1 POP JUMP JUMPDEST PUSH1 0x0 PUSH2 0x3C02 DUP3 PUSH2 0x3AE0 JUMP JUMPDEST SWAP2 POP PUSH2 0x3C0D DUP4 PUSH2 0x3AE0 JUMP JUMPDEST SWAP3 POP DUP3 PUSH2 0x3C1D JUMPI PUSH2 0x3C1C PUSH2 0x3C57 JUMP JUMPDEST JUMPDEST DUP3 DUP3 MOD SWAP1 POP SWAP3 SWAP2 POP POP JUMP JUMPDEST PUSH32 0x4E487B7100000000000000000000000000000000000000000000000000000000 PUSH1 0x0 MSTORE PUSH1 0x11 PUSH1 0x4 MSTORE PUSH1 0x24 PUSH1 0x0 REVERT JUMPDEST PUSH32 0x4E487B7100000000000000000000000000000000000000000000000000000000 PUSH1 0x0 MSTORE PUSH1 0x12 PUSH1 0x4 MSTORE PUSH1 0x24 PUSH1 0x0 REVERT JUMPDEST PUSH32 0x4E487B7100000000000000000000000000000000000000000000000000000000 PUSH1 0x0 MSTORE PUSH1 0x22 PUSH1 0x4 MSTORE PUSH1 0x24 PUSH1 0x0 REVERT JUMPDEST PUSH32 0x4E487B7100000000000000000000000000000000000000000000000000000000 PUSH1 0x0 MSTORE PUSH1 0x32 PUSH1 0x4 MSTORE PUSH1 0x24 PUSH1 0x0 REVERT JUMPDEST PUSH32 0x4E487B7100000000000000000000000000000000000000000000000000000000 PUSH1 0x0 MSTORE PUSH1 0x41 PUSH1 0x4 MSTORE PUSH1 0x24 PUSH1 0x0 REVERT JUMPDEST PUSH1 0x0 DUP1 REVERT JUMPDEST PUSH1 0x0 DUP1 REVERT JUMPDEST PUSH1 0x0 DUP1 REVERT JUMPDEST PUSH1 0x0 DUP1 REVERT JUMPDEST PUSH1 0x0 DUP1 REVERT JUMPDEST PUSH1 0x0 PUSH1 0x1F NOT PUSH1 0x1F DUP4 ADD AND SWAP1 POP SWAP2 SWAP1 POP JUMP JUMPDEST PUSH1 0x0 DUP2 PUSH1 0x1 SHR SWAP1 POP SWAP2 SWAP1 POP JUMP JUMPDEST PUSH32 0x706172616D73206572726F722E00000000000000000000000000000000000000 PUSH1 0x0 DUP3 ADD MSTORE POP JUMP JUMPDEST PUSH32 0x746865206C656E676874206F662068656164657220726C70636F646520697320 PUSH1 0x0 DUP3 ADD MSTORE PUSH32 0x746F6F206C6F6E672E0000000000000000000000000000000000000000000000 PUSH1 0x20 DUP3 ADD MSTORE POP JUMP JUMPDEST PUSH32 0x7365744D617853796E634E756D00000000000000000000000000000000000000 PUSH1 0x0 DUP3 ADD MSTORE POP JUMP JUMPDEST PUSH32 0x766572696679457363615369676E206661696C00000000000000000000000000 PUSH1 0x0 DUP3 ADD MSTORE POP JUMP JUMPDEST PUSH32 0x736574424C535075626C69636B4B657900000000000000000000000000000000 PUSH1 0x0 DUP3 ADD MSTORE POP JUMP JUMPDEST PUSH32 0x7665726966794865616465722070617373000000000000000000000000000000 PUSH1 0x0 DUP3 ADD MSTORE POP JUMP JUMPDEST PUSH32 0x63757272656E742065706F636800000000000000000000000000000000000000 PUSH1 0x0 DUP3 ADD MSTORE POP JUMP JUMPDEST PUSH32 0x6F6E6C79526F6F74000000000000000000000000000000000000000000000000 PUSH1 0x0 DUP3 ADD MSTORE POP JUMP JUMPDEST PUSH32 0x6368616E676556616C696461746F727320706173730000000000000000000000 PUSH1 0x0 DUP3 ADD MSTORE POP JUMP JUMPDEST PUSH32 0x766572696679457363615369676E207061737300000000000000000000000000 PUSH1 0x0 DUP3 ADD MSTORE POP JUMP JUMPDEST PUSH32 0x696E76616C6964207369676E6174757265206C656E6774680000000000000000 PUSH1 0x0 DUP3 ADD MSTORE POP JUMP JUMPDEST PUSH2 0x3F3C DUP2 PUSH2 0x3A98 JUMP JUMPDEST DUP2 EQ PUSH2 0x3F47 JUMPI PUSH1 0x0 DUP1 REVERT JUMPDEST POP JUMP JUMPDEST PUSH2 0x3F53 DUP2 PUSH2 0x3AB6 JUMP JUMPDEST DUP2 EQ PUSH2 0x3F5E JUMPI PUSH1 0x0 DUP1 REVERT JUMPDEST POP JUMP JUMPDEST PUSH2 0x3F6A DUP2 PUSH2 0x3AE0 JUMP JUMPDEST DUP2 EQ PUSH2 0x3F75 JUMPI PUSH1 0x0 DUP1 REVERT JUMPDEST POP JUMP JUMPDEST PUSH2 0x3F81 DUP2 PUSH2 0x3AEA JUMP JUMPDEST DUP2 EQ PUSH2 0x3F8C JUMPI PUSH1 0x0 DUP1 REVERT JUMPDEST POP JUMP INVALID LOG2 PUSH5 0x6970667358 0x22 SLT KECCAK256 CALLDATASIZE 0xCE 0xC3 GASPRICE BASEFEE JUMPI 0x2B PUSH25 0x31DE83BBFA8A985398DFEB7D966D2E28CA5C4803F3FDDFF964 PUSH20 0x6F6C634300080700330000000000000000000000 "
		},
		"gasEstimates": {
			"creation": {
				"codeDepositCost": "3265000",
				"executionCost": "infinite",
				"totalCost": "infinite"
			},
			"external": {
				"changeValidators(uint256,bytes[])": "infinite",
				"checkBLSPublickKeys(uint256)": "infinite",
				"checkBlockHeader(uint256)": "infinite",
				"checkNowParams()": "infinite",
				"cutAgg(bytes,bytes)": "infinite",
				"decodeExtraData(bytes)": "infinite",
				"decodeHeaderPart1(bytes)": "infinite",
				"encodeAgg(bytes,uint256,uint256)": "infinite",
				"readRemoveList(uint256)": "infinite",
				"setBLSPublickKeys(bytes[],uint256)": "infinite",
				"setMaxSyncNum(uint8)": "2935",
				"verifyHeader(bytes,bytes)": "infinite",
				"verifySign(bytes,bytes32,address)": "infinite",
				"verifymoreHeaders(bytes[],bytes[])": "infinite"
			},
			"internal": {
				"initFirstBlock(bytes memory)": "infinite",
				"splitExtra(bytes memory)": "infinite",
				"splitSignature(bytes memory)": "infinite"
			}
		},
		"methodIdentifiers": {
			"changeValidators(uint256,bytes[])": "9ac95237",
			"checkBLSPublickKeys(uint256)": "d872852e",
			"checkBlockHeader(uint256)": "2b0b6324",
			"checkNowParams()": "70fbf2c4",
			"cutAgg(bytes,bytes)": "0647a0d3",
			"decodeExtraData(bytes)": "5ef271c6",
			"decodeHeaderPart1(bytes)": "2f315f9e",
			"encodeAgg(bytes,uint256,uint256)": "402c5c09",
			"readRemoveList(uint256)": "bba8c1ba",
			"setBLSPublickKeys(bytes[],uint256)": "38eb059e",
			"setMaxSyncNum(uint8)": "f219acbf",
			"verifyHeader(bytes,bytes)": "08eb6fc6",
			"verifySign(bytes,bytes32,address)": "f96b45c7",
			"verifymoreHeaders(bytes[],bytes[])": "0b1dd55e"
		}
	},
	"abi": [
		{
			"inputs": [
				{
					"internalType": "bytes",
					"name": "firstBlock",
					"type": "bytes"
				},
				{
					"internalType": "uint256",
					"name": "_epochLength",
					"type": "uint256"
				}
			],
			"stateMutability": "nonpayable",
			"type": "constructor"
		},
		{
			"anonymous": false,
			"inputs": [
				{
					"indexed": false,
					"internalType": "string",
					"name": "s",
					"type": "string"
				},
				{
					"indexed": false,
					"internalType": "bool",
					"name": "e",
					"type": "bool"
				}
			],
			"name": "log",
			"type": "event"
		},
		{
			"anonymous": false,
			"inputs": [
				{
					"indexed": false,
					"internalType": "string",
					"name": "s",
					"type": "string"
				},
				{
					"indexed": false,
					"internalType": "uint256",
					"name": "v",
					"type": "uint256"
				}
			],
			"name": "setParams",
			"type": "event"
		},
		{
			"anonymous": false,
			"inputs": [
				{
					"indexed": false,
					"internalType": "string",
					"name": "s",
					"type": "string"
				},
				{
					"indexed": false,
					"internalType": "bytes",
					"name": "v",
					"type": "bytes"
				}
			],
			"name": "setParams",
			"type": "event"
		},
		{
			"inputs": [
				{
					"internalType": "uint256",
					"name": "removedVal",
					"type": "uint256"
				},
				{
					"internalType": "bytes[]",
					"name": "addVal",
					"type": "bytes[]"
				}
			],
			"name": "changeValidators",
			"outputs": [
				{
					"internalType": "bytes[]",
					"name": "ret",
					"type": "bytes[]"
				}
			],
			"stateMutability": "view",
			"type": "function"
		},
		{
			"inputs": [
				{
					"internalType": "uint256",
					"name": "epoch",
					"type": "uint256"
				}
			],
			"name": "checkBLSPublickKeys",
			"outputs": [
				{
					"internalType": "bytes[]",
					"name": "",
					"type": "bytes[]"
				}
			],
			"stateMutability": "view",
			"type": "function"
		},
		{
			"inputs": [
				{
					"internalType": "uint256",
					"name": "number",
					"type": "uint256"
				}
			],
			"name": "checkBlockHeader",
			"outputs": [
				{
					"internalType": "bytes",
					"name": "",
					"type": "bytes"
				}
			],
			"stateMutability": "view",
			"type": "function"
		},
		{
			"inputs": [],
			"name": "checkNowParams",
			"outputs": [
				{
					"internalType": "uint256",
					"name": "",
					"type": "uint256"
				},
				{
					"internalType": "uint256",
					"name": "",
					"type": "uint256"
				},
				{
					"internalType": "uint256",
					"name": "",
					"type": "uint256"
				},
				{
					"internalType": "uint256",
					"name": "",
					"type": "uint256"
				}
			],
			"stateMutability": "view",
			"type": "function"
		},
		{
			"inputs": [
				{
					"internalType": "bytes",
					"name": "hb",
					"type": "bytes"
				},
				{
					"internalType": "bytes",
					"name": "agg",
					"type": "bytes"
				}
			],
			"name": "cutAgg",
			"outputs": [
				{
					"internalType": "bytes",
					"name": "data",
					"type": "bytes"
				}
			],
			"stateMutability": "pure",
			"type": "function"
		},
		{
			"inputs": [
				{
					"internalType": "bytes",
					"name": "rlpBytes",
					"type": "bytes"
				}
			],
			"name": "decodeExtraData",
			"outputs": [
				{
					"components": [
						{
							"internalType": "bytes",
							"name": "seal",
							"type": "bytes"
						},
						{
							"components": [
								{
									"internalType": "bytes",
									"name": "signature",
									"type": "bytes"
								},
								{
									"internalType": "uint256",
									"name": "bitmap",
									"type": "uint256"
								}
							],
							"internalType": "struct sync.istanbulAggregatedSeal",
							"name": "aggregatedSeals",
							"type": "tuple"
						},
						{
							"components": [
								{
									"internalType": "bytes",
									"name": "signature",
									"type": "bytes"
								},
								{
									"internalType": "uint256",
									"name": "bitmap",
									"type": "uint256"
								}
							],
							"internalType": "struct sync.istanbulAggregatedSeal",
							"name": "parentAggregatedSeals",
							"type": "tuple"
						},
						{
							"internalType": "uint256",
							"name": "removeList",
							"type": "uint256"
						},
						{
							"internalType": "bytes[]",
							"name": "addedPubKey",
							"type": "bytes[]"
						}
					],
					"internalType": "struct sync.istanbulExtra",
					"name": "ist",
					"type": "tuple"
				}
			],
			"stateMutability": "pure",
			"type": "function"
		},
		{
			"inputs": [
				{
					"internalType": "bytes",
					"name": "rlpBytes",
					"type": "bytes"
				}
			],
			"name": "decodeHeaderPart1",
			"outputs": [
				{
					"components": [
						{
							"internalType": "address",
							"name": "coinbase",
							"type": "address"
						},
						{
							"internalType": "uint256",
							"name": "number",
							"type": "uint256"
						},
						{
							"internalType": "bytes",
							"name": "extraData",
							"type": "bytes"
						}
					],
					"internalType": "struct sync.blockHeader",
					"name": "bh",
					"type": "tuple"
				}
			],
			"stateMutability": "pure",
			"type": "function"
		},
		{
			"inputs": [
				{
					"internalType": "bytes",
					"name": "signature",
					"type": "bytes"
				},
				{
					"internalType": "uint256",
					"name": "round",
					"type": "uint256"
				},
				{
					"internalType": "uint256",
					"name": "bitmap",
					"type": "uint256"
				}
			],
			"name": "encodeAgg",
			"outputs": [
				{
					"internalType": "bytes",
					"name": "output",
					"type": "bytes"
				}
			],
			"stateMutability": "pure",
			"type": "function"
		},
		{
			"inputs": [
				{
					"internalType": "uint256",
					"name": "r",
					"type": "uint256"
				}
			],
			"name": "readRemoveList",
			"outputs": [
				{
					"internalType": "uint256[]",
					"name": "ret",
					"type": "uint256[]"
				},
				{
					"internalType": "uint8",
					"name": "sum",
					"type": "uint8"
				}
			],
			"stateMutability": "view",
			"type": "function"
		},
		{
			"inputs": [
				{
					"internalType": "bytes[]",
					"name": "keys",
					"type": "bytes[]"
				},
				{
					"internalType": "uint256",
					"name": "epoch",
					"type": "uint256"
				}
			],
			"name": "setBLSPublickKeys",
			"outputs": [],
			"stateMutability": "nonpayable",
			"type": "function"
		},
		{
			"inputs": [
				{
					"internalType": "uint8",
					"name": "max",
					"type": "uint8"
				}
			],
			"name": "setMaxSyncNum",
			"outputs": [],
			"stateMutability": "nonpayable",
			"type": "function"
		},
		{
			"inputs": [
				{
					"internalType": "bytes",
					"name": "rlpHeader",
					"type": "bytes"
				},
				{
					"internalType": "bytes",
					"name": "escaMsg",
					"type": "bytes"
				}
			],
			"name": "verifyHeader",
			"outputs": [
				{
					"internalType": "bool",
					"name": "",
					"type": "bool"
				}
			],
			"stateMutability": "nonpayable",
			"type": "function"
		},
		{
			"inputs": [
				{
					"internalType": "bytes",
					"name": "seal",
					"type": "bytes"
				},
				{
					"internalType": "bytes32",
					"name": "hash",
					"type": "bytes32"
				},
				{
					"internalType": "address",
					"name": "coinbase",
					"type": "address"
				}
			],
			"name": "verifySign",
			"outputs": [
				{
					"internalType": "bool",
					"name": "",
					"type": "bool"
				}
			],
			"stateMutability": "pure",
			"type": "function"
		},
		{
			"inputs": [
				{
					"internalType": "bytes[]",
					"name": "moreRlpHeader",
					"type": "bytes[]"
				},
				{
					"internalType": "bytes[]",
					"name": "moreHeaderBytes",
					"type": "bytes[]"
				}
			],
			"name": "verifymoreHeaders",
			"outputs": [
				{
					"internalType": "uint256",
					"name": "",
					"type": "uint256"
				},
				{
					"internalType": "bool",
					"name": "",
					"type": "bool"
				}
			],
			"stateMutability": "nonpayable",
			"type": "function"
		}
	]
}