{
	"data": {
		"bytecode": {
			"linkReferences": {},
			"object": "608060405234801561001057600080fd5b506125bc806100206000396000f3fe608060405234801561001057600080fd5b506004361061007d5760003560e01c80638674df8c1161005b5780638674df8c146100ea578063acae79de1461011a578063bbb82d8914610136578063f6e548e9146101545761007d565b80630bd9513814610082578063501145f91461009e578063557bb038146100ba575b600080fd5b61009c60048036038101906100979190611b5b565b610170565b005b6100b860048036038101906100b39190611aa7565b6102da565b005b6100d460048036038101906100cf9190611a26565b6103f5565b6040516100e19190611f34565b60405180910390f35b61010460048036038101906100ff9190611c57565b6104d2565b6040516101119190611f34565b60405180910390f35b610134600480360381019061012f9190611a26565b610598565b005b61013e61064d565b60405161014b9190611f19565b60405180910390f35b61016e60048036038101906101699190611aa7565b61065e565b005b60006101bf8a8a8080601f016020809104026020016040519081016040528093929190818152602001838380828437600081840152601f19601f82011690508083019250505050505050610771565b9050600061021089898080601f016020809104026020016040519081016040528093929190818152602001838380828437600081840152601f19601f82011690508083019250505050505050610771565b9050600061026186868080601f016020809104026020016040519081016040528093929190818152602001838380828437600081840152601f19601f820116905080830192505050505050506108f9565b90506102b483838a8a8080601f016020809104026020016040519081016040528093929190818152602001838380828437600081840152601f19601f8201169050808301925050505050505084886109d7565b6000806101000a81548160ff021916908315150217905550505050505050505050505050565b600061032987878080601f016020809104026020016040519081016040528093929190818152602001838380828437600081840152601f19601f82011690508083019250505050505050610771565b9050600061037a84848080601f016020809104026020016040519081016040528093929190818152602001838380828437600081840152601f19601f820116905080830192505050505050506108f9565b90506103d3826103cd88888080601f016020809104026020016040519081016040528093929190818152602001838380828437600081840152601f19601f820116905080830192505050505050506108f9565b83610c43565b6000806101000a81548160ff0219169083151502179055505050505050505050565b6060600061049b61044987878080601f016020809104026020016040519081016040528093929190818152602001838380828437600081840152601f19601f820116905080830192505050505050506108f9565b61049686868080601f016020809104026020016040519081016040528093929190818152602001838380828437600081840152601f19601f820116905080830192505050505050506108f9565b610d9a565b9050806000015181602001516040516020016104b8929190611fd6565b604051602081830303815290604052915050949350505050565b6060600061052385858080601f016020809104026020016040519081016040528093929190818152602001838380828437600081840152601f19601f82011690508083019250505050505050610771565b90506000816000015182602001518560405160200161054493929190611e99565b6040516020818303038152906040529050600061056082610e8c565b90508060000151816020015160405160200161057d929190611eed565b60405160208183030381529060405293505050509392505050565b60006105e785858080601f016020809104026020016040519081016040528093929190818152602001838380828437600081840152601f19601f820116905080830192505050505050506108f9565b9050600061063884848080601f016020809104026020016040519081016040528093929190818152602001838380828437600081840152601f19601f820116905080830192505050505050506108f9565b90506106448282610d9a565b50505050505050565b60008054906101000a900460ff1681565b60006106ad87878080601f016020809104026020016040519081016040528093929190818152602001838380828437600081840152601f19601f82011690508083019250505050505050610771565b905060006106fe84848080601f016020809104026020016040519081016040528093929190818152602001838380828437600081840152601f19601f820116905080830192505050505050506108f9565b905061074f8287878080601f016020809104026020016040519081016040528093929190818152602001838380828437600081840152601f19601f8201169050808301925050505050505083610f75565b6000806101000a81548160ff0219169083151502179055505050505050505050565b6107796118d3565b6000600467ffffffffffffffff8111156107965761079561244e565b5b6040519080825280602002602001820160405280156107c45781602001602082028036833780820191505090505b5090506000602090505b602082516107dc919061225c565b81116107fe5780840151818301526020816107f79190612064565b90506107ce565b50806000815181106108135761081261241f565b5b602002602001015182600001516000600281106108335761083261241f565b5b602002018181525050806001815181106108505761084f61241f565b5b602002602001015182600001516001600281106108705761086f61241f565b5b6020020181815250508060028151811061088d5761088c61241f565b5b602002602001015182602001516000600281106108ad576108ac61241f565b5b602002018181525050806003815181106108ca576108c961241f565b5b602002602001015182602001516001600281106108ea576108e961241f565b5b60200201818152505050919050565b6109016118f9565b6000600267ffffffffffffffff81111561091e5761091d61244e565b5b60405190808252806020026020018201604052801561094c5781602001602082028036833780820191505090505b5090506000602090505b60208251610964919061225c565b811161098657808401518183015260208161097f9190612064565b9050610956565b508060008151811061099b5761099a61241f565b5b6020026020010151826000018181525050806001815181106109c0576109bf61241f565b5b602002602001015182602001818152505050919050565b60008060405180604001604052806000815260200160008152509050600080600190505b60008514610a7557600081861614610a5b578085610a1991906122b6565b9450610a5883610a538b600001518c6020015186604051602001610a3f93929190611e99565b604051602081830303815290604052610e8c565b610d9a565b92505b600181901b90508180610a6d9061233d565b9250506109fb565b6000600367ffffffffffffffff811115610a9257610a9161244e565b5b604051908082528060200260200182016040528015610acb57816020015b610ab86118f9565b815260200190600190039081610ab05790505b5090506000600367ffffffffffffffff811115610aeb57610aea61244e565b5b604051908082528060200260200182016040528015610b2457816020015b610b116118d3565b815260200190600190039081610b095790505b509050610b3088610f93565b82600081518110610b4457610b4361241f565b5b6020026020010181905250610b838b600001518c602001518b604051602001610b6f93929190611e60565b604051602081830303815290604052610e8c565b82600181518110610b9757610b9661241f565b5b60200260200101819052508482600281518110610bb757610bb661241f565b5b6020026020010181905250610bca611042565b81600081518110610bde57610bdd61241f565b5b60200260200101819052508981600181518110610bfe57610bfd61241f565b5b60200260200101819052508a81600281518110610c1e57610c1d61241f565b5b6020026020010181905250610c33828261110c565b9550505050505095945050505050565b600080600267ffffffffffffffff811115610c6157610c6061244e565b5b604051908082528060200260200182016040528015610c9a57816020015b610c876118f9565b815260200190600190039081610c7f5790505b5090506000600267ffffffffffffffff811115610cba57610cb961244e565b5b604051908082528060200260200182016040528015610cf357816020015b610ce06118d3565b815260200190600190039081610cd85790505b509050610cff84610f93565b82600081518110610d1357610d1261241f565b5b60200260200101819052508482600181518110610d3357610d3261241f565b5b6020026020010181905250610d46611042565b81600081518110610d5a57610d5961241f565b5b60200260200101819052508581600181518110610d7a57610d7961241f565b5b6020026020010181905250610d8f828261110c565b925050509392505050565b610da26118f9565b610daa611913565b836000015181600060048110610dc357610dc261241f565b5b602002018181525050836020015181600160048110610de557610de461241f565b5b602002018181525050826000015181600260048110610e0757610e0661241f565b5b602002018181525050826020015181600360048110610e2957610e2861241f565b5b602002018181525050600060408360808460066107d05a03fa905080610e84576040517f08c379a0000000000000000000000000000000000000000000000000000000008152600401610e7b90611f96565b60405180910390fd5b505092915050565b610e946118f9565b6000600283604051610ea69190611ed6565b602060405180830381855afa158015610ec3573d6000803e3d6000fd5b5050506040513d601f19601f82011682018060405250810190610ee691906119f9565b905060007f30644e72e131a029b85045b68181585d97816a916871ca8d3c208c16d87cfd478260001c610f199190612390565b905060005b600115610f6c57610f2e826114c2565b90506000811115610f58576040518060400160405280838152602001828152509350505050610f70565b600182610f659190612064565b9150610f1e565b5050505b919050565b6000610f8a84610f8485610e8c565b84610c43565b90509392505050565b610f9b6118f9565b610fa48261154a565b15610fc7576040518060400160405280600081526020016000815250905061103d565b6040518060400160405280836000015181526020017f30644e72e131a029b85045b68181585d97816a916871ca8d3c208c16d87cfd47846020015161100c9190612390565b7f30644e72e131a029b85045b68181585d97816a916871ca8d3c208c16d87cfd4761103791906122b6565b81525090505b919050565b61104a6118d3565b604051806040016040528060405180604001604052807f198e9393920d483a7260bfb731fb5d25f1aa493335a9e71297e485b7aef312c281526020017f1800deef121f1e76426a00665e5c4479674322d4f75edadd46debd5cd992f6ed815250815260200160405180604001604052807f090689d0585ff075ec9e99ad690c3395bc4b313370b38ef355acdadcd122975b81526020017f12c85ea5db8c6deb4aab71808dcb408fe3d1e7690c43d37b4ce6cc0166fa7daa815250815250905090565b60008151835114611152576040517f08c379a000000000000000000000000000000000000000000000000000000000815260040161114990611fb6565b60405180910390fd5b6000835190506000600682611167919061225c565b905060008167ffffffffffffffff8111156111855761118461244e565b5b6040519080825280602002602001820160405280156111b35781602001602082028036833780820191505090505b50905060005b83811015611438578681815181106111d4576111d361241f565b5b6020026020010151600001518260006006846111f0919061225c565b6111fa9190612064565b8151811061120b5761120a61241f565b5b60200260200101818152505086818151811061122a5761122961241f565b5b602002602001015160200151826001600684611246919061225c565b6112509190612064565b815181106112615761126061241f565b5b6020026020010181815250508581815181106112805761127f61241f565b5b60200260200101516000015160006002811061129f5761129e61241f565b5b60200201518260026006846112b4919061225c565b6112be9190612064565b815181106112cf576112ce61241f565b5b6020026020010181815250508581815181106112ee576112ed61241f565b5b60200260200101516000015160016002811061130d5761130c61241f565b5b6020020151826003600684611322919061225c565b61132c9190612064565b8151811061133d5761133c61241f565b5b60200260200101818152505085818151811061135c5761135b61241f565b5b60200260200101516020015160006002811061137b5761137a61241f565b5b6020020151826004600684611390919061225c565b61139a9190612064565b815181106113ab576113aa61241f565b5b6020026020010181815250508581815181106113ca576113c961241f565b5b6020026020010151602001516001600281106113e9576113e861241f565b5b60200201518260056006846113fe919061225c565b6114089190612064565b815181106114195761141861241f565b5b60200260200101818152505080806114309061233d565b9150506111b9565b50611441611935565b6000602082602086026020860160086107d05a03fa905080611498576040517f08c379a000000000000000000000000000000000000000000000000000000000815260040161148f90611f76565b60405180910390fd5b6000826000600181106114ae576114ad61241f565b5b602002015114159550505050505092915050565b60006115437f30644e72e131a029b85045b68181585d97816a916871ca8d3c208c16d87cfd4780600361152160037f30644e72e131a029b85045b68181585d97816a916871ca8d3c208c16d87cfd478861156a9092919063ffffffff16565b61152b9190612064565b6115359190612390565b6115b890919063ffffffff16565b9050919050565b6000808260000151148015611563575060008260200151145b9050919050565b60006040516020810160208152602080820152602060408201528560608201528460808201528360a082015260208260c0836005600019fa6115ab57600080fd5b8151925050509392505050565b600060016115c68484611808565b146115d45760009050611802565b60008314156115e65760009050611802565b60036004836115f59190612390565b14156116255761161e83600460018561160e9190612064565b61161891906120ba565b8461156a565b9050611802565b600060018361163491906122b6565b905060005b60006002836116489190612390565b14156116715760028261165b91906120ba565b915060018161166a9190612064565b9050611639565b6000600290505b7fffffffffffffffffffffffffffffffffffffffffffffffffffffffffffffffff6116a38287611808565b146116bc576001816116b59190612064565b9050611678565b60006116e18760026001876116d19190612064565b6116db91906120ba565b8861156a565b905060006116f088868961156a565b905060006116ff84878a61156a565b9050600085905060008060008590505b6001156117f75785905060009150600091505b8382101561175957600181141561173857611759565b6117448160028e61156a565b905081806117519061233d565b925050611722565b600082141561177457869a5050505050505050505050611802565b6117a2856001848761178691906122b6565b61179091906122b6565b600261179c919061213e565b8e61156a565b92508b83846117b1919061225c565b6117bb9190612390565b94508b83886117ca919061225c565b6117d49190612390565b96508b85876117e3919061225c565b6117ed9190612390565b955081935061170f565b505050505050505050505b92915050565b60008061182e84600260018661181e91906122b6565b61182891906120ba565b8561156a565b9050600081148061183f5750600181145b1561184d57809150506118cd565b60018361185a91906122b6565b81141561188a577fffffffffffffffffffffffffffffffffffffffffffffffffffffffffffffffff9150506118cd565b60006118cb576040517f08c379a00000000000000000000000000000000000000000000000000000000081526004016118c290611f56565b60405180910390fd5b505b92915050565b60405180604001604052806118e6611957565b81526020016118f3611957565b81525090565b604051806040016040528060008152602001600081525090565b6040518060800160405280600490602082028036833780820191505090505090565b6040518060200160405280600190602082028036833780820191505090505090565b6040518060400160405280600290602082028036833780820191505090505090565b60008151905061198881612558565b92915050565b60008083601f8401126119a4576119a3612482565b5b8235905067ffffffffffffffff8111156119c1576119c061247d565b5b6020830191508360018202830111156119dd576119dc612487565b5b9250929050565b6000813590506119f38161256f565b92915050565b600060208284031215611a0f57611a0e612491565b5b6000611a1d84828501611979565b91505092915050565b60008060008060408587031215611a4057611a3f612491565b5b600085013567ffffffffffffffff811115611a5e57611a5d61248c565b5b611a6a8782880161198e565b9450945050602085013567ffffffffffffffff811115611a8d57611a8c61248c565b5b611a998782880161198e565b925092505092959194509250565b60008060008060008060608789031215611ac457611ac3612491565b5b600087013567ffffffffffffffff811115611ae257611ae161248c565b5b611aee89828a0161198e565b9650965050602087013567ffffffffffffffff811115611b1157611b1061248c565b5b611b1d89828a0161198e565b9450945050604087013567ffffffffffffffff811115611b4057611b3f61248c565b5b611b4c89828a0161198e565b92509250509295509295509295565b600080600080600080600080600060a08a8c031215611b7d57611b7c612491565b5b60008a013567ffffffffffffffff811115611b9b57611b9a61248c565b5b611ba78c828d0161198e565b995099505060208a013567ffffffffffffffff811115611bca57611bc961248c565b5b611bd68c828d0161198e565b975097505060408a013567ffffffffffffffff811115611bf957611bf861248c565b5b611c058c828d0161198e565b955095505060608a013567ffffffffffffffff811115611c2857611c2761248c565b5b611c348c828d0161198e565b93509350506080611c478c828d016119e4565b9150509295985092959850929598565b600080600060408486031215611c7057611c6f612491565b5b600084013567ffffffffffffffff811115611c8e57611c8d61248c565b5b611c9a8682870161198e565b93509350506020611cad868287016119e4565b9150509250925092565b6000611cc38383611e3a565b60208301905092915050565b611cd881612009565b611ce2818461202c565b9250611ced82611fff565b8060005b83811015611d1e578151611d058782611cb7565b9650611d108361201f565b925050600181019050611cf1565b505050505050565b611d2f816122ea565b82525050565b6000611d4082612014565b611d4a8185612037565b9350611d5a81856020860161230a565b611d6381612496565b840191505092915050565b6000611d7982612014565b611d838185612048565b9350611d9381856020860161230a565b80840191505092915050565b6000611dac601d83612053565b9150611db7826124b4565b602082019050919050565b6000611dcf601983612053565b9150611dda826124dd565b602082019050919050565b6000611df2601183612053565b9150611dfd82612506565b602082019050919050565b6000611e15601583612053565b9150611e208261252f565b602082019050919050565b611e3481612300565b82525050565b611e4381612300565b82525050565b611e5a611e5582612300565b612386565b82525050565b6000611e6c8286611ccf565b604082019150611e7c8285611ccf565b604082019150611e8c8284611d6e565b9150819050949350505050565b6000611ea58286611ccf565b604082019150611eb58285611ccf565b604082019150611ec58284611e49565b602082019150819050949350505050565b6000611ee28284611d6e565b915081905092915050565b6000611ef98285611e49565b602082019150611f098284611e49565b6020820191508190509392505050565b6000602082019050611f2e6000830184611d26565b92915050565b60006020820190508181036000830152611f4e8184611d35565b905092915050565b60006020820190508181036000830152611f6f81611d9f565b9050919050565b60006020820190508181036000830152611f8f81611dc2565b9050919050565b60006020820190508181036000830152611faf81611de5565b9050919050565b60006020820190508181036000830152611fcf81611e08565b9050919050565b6000604082019050611feb6000830185611e2b565b611ff86020830184611e2b565b9392505050565b6000819050919050565b600060029050919050565b600081519050919050565b6000602082019050919050565b600081905092915050565b600082825260208201905092915050565b600081905092915050565b600082825260208201905092915050565b600061206f82612300565b915061207a83612300565b9250827fffffffffffffffffffffffffffffffffffffffffffffffffffffffffffffffff038211156120af576120ae6123c1565b5b828201905092915050565b60006120c582612300565b91506120d083612300565b9250826120e0576120df6123f0565b5b828204905092915050565b6000808291508390505b600185111561213557808604811115612111576121106123c1565b5b60018516156121205780820291505b808102905061212e856124a7565b94506120f5565b94509492505050565b600061214982612300565b915061215483612300565b92506121817fffffffffffffffffffffffffffffffffffffffffffffffffffffffffffffffff8484612189565b905092915050565b6000826121995760019050612255565b816121a75760009050612255565b81600181146121bd57600281146121c7576121f6565b6001915050612255565b60ff8411156121d9576121d86123c1565b5b8360020a9150848211156121f0576121ef6123c1565b5b50612255565b5060208310610133831016604e8410600b841016171561222b5782820a905083811115612226576122256123c1565b5b612255565b61223884848460016120eb565b9250905081840481111561224f5761224e6123c1565b5b81810290505b9392505050565b600061226782612300565b915061227283612300565b9250817fffffffffffffffffffffffffffffffffffffffffffffffffffffffffffffffff04831182151516156122ab576122aa6123c1565b5b828202905092915050565b60006122c182612300565b91506122cc83612300565b9250828210156122df576122de6123c1565b5b828203905092915050565b60008115159050919050565b6000819050919050565b6000819050919050565b60005b8381101561232857808201518184015260208101905061230d565b83811115612337576000848401525b50505050565b600061234882612300565b91507fffffffffffffffffffffffffffffffffffffffffffffffffffffffffffffffff82141561237b5761237a6123c1565b5b600182019050919050565b6000819050919050565b600061239b82612300565b91506123a683612300565b9250826123b6576123b56123f0565b5b828206905092915050565b7f4e487b7100000000000000000000000000000000000000000000000000000000600052601160045260246000fd5b7f4e487b7100000000000000000000000000000000000000000000000000000000600052601260045260246000fd5b7f4e487b7100000000000000000000000000000000000000000000000000000000600052603260045260246000fd5b7f4e487b7100000000000000000000000000000000000000000000000000000000600052604160045260246000fd5b600080fd5b600080fd5b600080fd5b600080fd5b600080fd5b6000601f19601f8301169050919050565b60008160011c9050919050565b7f4661696c656420746f2063616c63756c617465206c6567656e6472652e000000600082015250565b7f50616972696e67206f7065726174696f6e206661696c65642e00000000000000600082015250565b7f41646420706f696e7473206661696c6564000000000000000000000000000000600082015250565b7f506f696e7420636f756e74206d69736d617463682e0000000000000000000000600082015250565b612561816122f6565b811461256c57600080fd5b50565b61257881612300565b811461258357600080fd5b5056fea2646970667358221220ed81a5803c4edb0fc1ba18b5df01a36ead95de20931ff80eedd34f4884bb757c64736f6c63430008070033",
			"opcodes": "PUSH1 0x80 PUSH1 0x40 MSTORE CALLVALUE DUP1 ISZERO PUSH2 0x10 JUMPI PUSH1 0x0 DUP1 REVERT JUMPDEST POP PUSH2 0x25BC DUP1 PUSH2 0x20 PUSH1 0x0 CODECOPY PUSH1 0x0 RETURN INVALID PUSH1 0x80 PUSH1 0x40 MSTORE CALLVALUE DUP1 ISZERO PUSH2 0x10 JUMPI PUSH1 0x0 DUP1 REVERT JUMPDEST POP PUSH1 0x4 CALLDATASIZE LT PUSH2 0x7D JUMPI PUSH1 0x0 CALLDATALOAD PUSH1 0xE0 SHR DUP1 PUSH4 0x8674DF8C GT PUSH2 0x5B JUMPI DUP1 PUSH4 0x8674DF8C EQ PUSH2 0xEA JUMPI DUP1 PUSH4 0xACAE79DE EQ PUSH2 0x11A JUMPI DUP1 PUSH4 0xBBB82D89 EQ PUSH2 0x136 JUMPI DUP1 PUSH4 0xF6E548E9 EQ PUSH2 0x154 JUMPI PUSH2 0x7D JUMP JUMPDEST DUP1 PUSH4 0xBD95138 EQ PUSH2 0x82 JUMPI DUP1 PUSH4 0x501145F9 EQ PUSH2 0x9E JUMPI DUP1 PUSH4 0x557BB038 EQ PUSH2 0xBA JUMPI JUMPDEST PUSH1 0x0 DUP1 REVERT JUMPDEST PUSH2 0x9C PUSH1 0x4 DUP1 CALLDATASIZE SUB DUP2 ADD SWAP1 PUSH2 0x97 SWAP2 SWAP1 PUSH2 0x1B5B JUMP JUMPDEST PUSH2 0x170 JUMP JUMPDEST STOP JUMPDEST PUSH2 0xB8 PUSH1 0x4 DUP1 CALLDATASIZE SUB DUP2 ADD SWAP1 PUSH2 0xB3 SWAP2 SWAP1 PUSH2 0x1AA7 JUMP JUMPDEST PUSH2 0x2DA JUMP JUMPDEST STOP JUMPDEST PUSH2 0xD4 PUSH1 0x4 DUP1 CALLDATASIZE SUB DUP2 ADD SWAP1 PUSH2 0xCF SWAP2 SWAP1 PUSH2 0x1A26 JUMP JUMPDEST PUSH2 0x3F5 JUMP JUMPDEST PUSH1 0x40 MLOAD PUSH2 0xE1 SWAP2 SWAP1 PUSH2 0x1F34 JUMP JUMPDEST PUSH1 0x40 MLOAD DUP1 SWAP2 SUB SWAP1 RETURN JUMPDEST PUSH2 0x104 PUSH1 0x4 DUP1 CALLDATASIZE SUB DUP2 ADD SWAP1 PUSH2 0xFF SWAP2 SWAP1 PUSH2 0x1C57 JUMP JUMPDEST PUSH2 0x4D2 JUMP JUMPDEST PUSH1 0x40 MLOAD PUSH2 0x111 SWAP2 SWAP1 PUSH2 0x1F34 JUMP JUMPDEST PUSH1 0x40 MLOAD DUP1 SWAP2 SUB SWAP1 RETURN JUMPDEST PUSH2 0x134 PUSH1 0x4 DUP1 CALLDATASIZE SUB DUP2 ADD SWAP1 PUSH2 0x12F SWAP2 SWAP1 PUSH2 0x1A26 JUMP JUMPDEST PUSH2 0x598 JUMP JUMPDEST STOP JUMPDEST PUSH2 0x13E PUSH2 0x64D JUMP JUMPDEST PUSH1 0x40 MLOAD PUSH2 0x14B SWAP2 SWAP1 PUSH2 0x1F19 JUMP JUMPDEST PUSH1 0x40 MLOAD DUP1 SWAP2 SUB SWAP1 RETURN JUMPDEST PUSH2 0x16E PUSH1 0x4 DUP1 CALLDATASIZE SUB DUP2 ADD SWAP1 PUSH2 0x169 SWAP2 SWAP1 PUSH2 0x1AA7 JUMP JUMPDEST PUSH2 0x65E JUMP JUMPDEST STOP JUMPDEST PUSH1 0x0 PUSH2 0x1BF DUP11 DUP11 DUP1 DUP1 PUSH1 0x1F ADD PUSH1 0x20 DUP1 SWAP2 DIV MUL PUSH1 0x20 ADD PUSH1 0x40 MLOAD SWAP1 DUP2 ADD PUSH1 0x40 MSTORE DUP1 SWAP4 SWAP3 SWAP2 SWAP1 DUP2 DUP2 MSTORE PUSH1 0x20 ADD DUP4 DUP4 DUP1 DUP3 DUP5 CALLDATACOPY PUSH1 0x0 DUP2 DUP5 ADD MSTORE PUSH1 0x1F NOT PUSH1 0x1F DUP3 ADD AND SWAP1 POP DUP1 DUP4 ADD SWAP3 POP POP POP POP POP POP POP PUSH2 0x771 JUMP JUMPDEST SWAP1 POP PUSH1 0x0 PUSH2 0x210 DUP10 DUP10 DUP1 DUP1 PUSH1 0x1F ADD PUSH1 0x20 DUP1 SWAP2 DIV MUL PUSH1 0x20 ADD PUSH1 0x40 MLOAD SWAP1 DUP2 ADD PUSH1 0x40 MSTORE DUP1 SWAP4 SWAP3 SWAP2 SWAP1 DUP2 DUP2 MSTORE PUSH1 0x20 ADD DUP4 DUP4 DUP1 DUP3 DUP5 CALLDATACOPY PUSH1 0x0 DUP2 DUP5 ADD MSTORE PUSH1 0x1F NOT PUSH1 0x1F DUP3 ADD AND SWAP1 POP DUP1 DUP4 ADD SWAP3 POP POP POP POP POP POP POP PUSH2 0x771 JUMP JUMPDEST SWAP1 POP PUSH1 0x0 PUSH2 0x261 DUP7 DUP7 DUP1 DUP1 PUSH1 0x1F ADD PUSH1 0x20 DUP1 SWAP2 DIV MUL PUSH1 0x20 ADD PUSH1 0x40 MLOAD SWAP1 DUP2 ADD PUSH1 0x40 MSTORE DUP1 SWAP4 SWAP3 SWAP2 SWAP1 DUP2 DUP2 MSTORE PUSH1 0x20 ADD DUP4 DUP4 DUP1 DUP3 DUP5 CALLDATACOPY PUSH1 0x0 DUP2 DUP5 ADD MSTORE PUSH1 0x1F NOT PUSH1 0x1F DUP3 ADD AND SWAP1 POP DUP1 DUP4 ADD SWAP3 POP POP POP POP POP POP POP PUSH2 0x8F9 JUMP JUMPDEST SWAP1 POP PUSH2 0x2B4 DUP4 DUP4 DUP11 DUP11 DUP1 DUP1 PUSH1 0x1F ADD PUSH1 0x20 DUP1 SWAP2 DIV MUL PUSH1 0x20 ADD PUSH1 0x40 MLOAD SWAP1 DUP2 ADD PUSH1 0x40 MSTORE DUP1 SWAP4 SWAP3 SWAP2 SWAP1 DUP2 DUP2 MSTORE PUSH1 0x20 ADD DUP4 DUP4 DUP1 DUP3 DUP5 CALLDATACOPY PUSH1 0x0 DUP2 DUP5 ADD MSTORE PUSH1 0x1F NOT PUSH1 0x1F DUP3 ADD AND SWAP1 POP DUP1 DUP4 ADD SWAP3 POP POP POP POP POP POP POP DUP5 DUP9 PUSH2 0x9D7 JUMP JUMPDEST PUSH1 0x0 DUP1 PUSH2 0x100 EXP DUP2 SLOAD DUP2 PUSH1 0xFF MUL NOT AND SWAP1 DUP4 ISZERO ISZERO MUL OR SWAP1 SSTORE POP POP POP POP POP POP POP POP POP POP POP POP POP JUMP JUMPDEST PUSH1 0x0 PUSH2 0x329 DUP8 DUP8 DUP1 DUP1 PUSH1 0x1F ADD PUSH1 0x20 DUP1 SWAP2 DIV MUL PUSH1 0x20 ADD PUSH1 0x40 MLOAD SWAP1 DUP2 ADD PUSH1 0x40 MSTORE DUP1 SWAP4 SWAP3 SWAP2 SWAP1 DUP2 DUP2 MSTORE PUSH1 0x20 ADD DUP4 DUP4 DUP1 DUP3 DUP5 CALLDATACOPY PUSH1 0x0 DUP2 DUP5 ADD MSTORE PUSH1 0x1F NOT PUSH1 0x1F DUP3 ADD AND SWAP1 POP DUP1 DUP4 ADD SWAP3 POP POP POP POP POP POP POP PUSH2 0x771 JUMP JUMPDEST SWAP1 POP PUSH1 0x0 PUSH2 0x37A DUP5 DUP5 DUP1 DUP1 PUSH1 0x1F ADD PUSH1 0x20 DUP1 SWAP2 DIV MUL PUSH1 0x20 ADD PUSH1 0x40 MLOAD SWAP1 DUP2 ADD PUSH1 0x40 MSTORE DUP1 SWAP4 SWAP3 SWAP2 SWAP1 DUP2 DUP2 MSTORE PUSH1 0x20 ADD DUP4 DUP4 DUP1 DUP3 DUP5 CALLDATACOPY PUSH1 0x0 DUP2 DUP5 ADD MSTORE PUSH1 0x1F NOT PUSH1 0x1F DUP3 ADD AND SWAP1 POP DUP1 DUP4 ADD SWAP3 POP POP POP POP POP POP POP PUSH2 0x8F9 JUMP JUMPDEST SWAP1 POP PUSH2 0x3D3 DUP3 PUSH2 0x3CD DUP9 DUP9 DUP1 DUP1 PUSH1 0x1F ADD PUSH1 0x20 DUP1 SWAP2 DIV MUL PUSH1 0x20 ADD PUSH1 0x40 MLOAD SWAP1 DUP2 ADD PUSH1 0x40 MSTORE DUP1 SWAP4 SWAP3 SWAP2 SWAP1 DUP2 DUP2 MSTORE PUSH1 0x20 ADD DUP4 DUP4 DUP1 DUP3 DUP5 CALLDATACOPY PUSH1 0x0 DUP2 DUP5 ADD MSTORE PUSH1 0x1F NOT PUSH1 0x1F DUP3 ADD AND SWAP1 POP DUP1 DUP4 ADD SWAP3 POP POP POP POP POP POP POP PUSH2 0x8F9 JUMP JUMPDEST DUP4 PUSH2 0xC43 JUMP JUMPDEST PUSH1 0x0 DUP1 PUSH2 0x100 EXP DUP2 SLOAD DUP2 PUSH1 0xFF MUL NOT AND SWAP1 DUP4 ISZERO ISZERO MUL OR SWAP1 SSTORE POP POP POP POP POP POP POP POP POP JUMP JUMPDEST PUSH1 0x60 PUSH1 0x0 PUSH2 0x49B PUSH2 0x449 DUP8 DUP8 DUP1 DUP1 PUSH1 0x1F ADD PUSH1 0x20 DUP1 SWAP2 DIV MUL PUSH1 0x20 ADD PUSH1 0x40 MLOAD SWAP1 DUP2 ADD PUSH1 0x40 MSTORE DUP1 SWAP4 SWAP3 SWAP2 SWAP1 DUP2 DUP2 MSTORE PUSH1 0x20 ADD DUP4 DUP4 DUP1 DUP3 DUP5 CALLDATACOPY PUSH1 0x0 DUP2 DUP5 ADD MSTORE PUSH1 0x1F NOT PUSH1 0x1F DUP3 ADD AND SWAP1 POP DUP1 DUP4 ADD SWAP3 POP POP POP POP POP POP POP PUSH2 0x8F9 JUMP JUMPDEST PUSH2 0x496 DUP7 DUP7 DUP1 DUP1 PUSH1 0x1F ADD PUSH1 0x20 DUP1 SWAP2 DIV MUL PUSH1 0x20 ADD PUSH1 0x40 MLOAD SWAP1 DUP2 ADD PUSH1 0x40 MSTORE DUP1 SWAP4 SWAP3 SWAP2 SWAP1 DUP2 DUP2 MSTORE PUSH1 0x20 ADD DUP4 DUP4 DUP1 DUP3 DUP5 CALLDATACOPY PUSH1 0x0 DUP2 DUP5 ADD MSTORE PUSH1 0x1F NOT PUSH1 0x1F DUP3 ADD AND SWAP1 POP DUP1 DUP4 ADD SWAP3 POP POP POP POP POP POP POP PUSH2 0x8F9 JUMP JUMPDEST PUSH2 0xD9A JUMP JUMPDEST SWAP1 POP DUP1 PUSH1 0x0 ADD MLOAD DUP2 PUSH1 0x20 ADD MLOAD PUSH1 0x40 MLOAD PUSH1 0x20 ADD PUSH2 0x4B8 SWAP3 SWAP2 SWAP1 PUSH2 0x1FD6 JUMP JUMPDEST PUSH1 0x40 MLOAD PUSH1 0x20 DUP2 DUP4 SUB SUB DUP2 MSTORE SWAP1 PUSH1 0x40 MSTORE SWAP2 POP POP SWAP5 SWAP4 POP POP POP POP JUMP JUMPDEST PUSH1 0x60 PUSH1 0x0 PUSH2 0x523 DUP6 DUP6 DUP1 DUP1 PUSH1 0x1F ADD PUSH1 0x20 DUP1 SWAP2 DIV MUL PUSH1 0x20 ADD PUSH1 0x40 MLOAD SWAP1 DUP2 ADD PUSH1 0x40 MSTORE DUP1 SWAP4 SWAP3 SWAP2 SWAP1 DUP2 DUP2 MSTORE PUSH1 0x20 ADD DUP4 DUP4 DUP1 DUP3 DUP5 CALLDATACOPY PUSH1 0x0 DUP2 DUP5 ADD MSTORE PUSH1 0x1F NOT PUSH1 0x1F DUP3 ADD AND SWAP1 POP DUP1 DUP4 ADD SWAP3 POP POP POP POP POP POP POP PUSH2 0x771 JUMP JUMPDEST SWAP1 POP PUSH1 0x0 DUP2 PUSH1 0x0 ADD MLOAD DUP3 PUSH1 0x20 ADD MLOAD DUP6 PUSH1 0x40 MLOAD PUSH1 0x20 ADD PUSH2 0x544 SWAP4 SWAP3 SWAP2 SWAP1 PUSH2 0x1E99 JUMP JUMPDEST PUSH1 0x40 MLOAD PUSH1 0x20 DUP2 DUP4 SUB SUB DUP2 MSTORE SWAP1 PUSH1 0x40 MSTORE SWAP1 POP PUSH1 0x0 PUSH2 0x560 DUP3 PUSH2 0xE8C JUMP JUMPDEST SWAP1 POP DUP1 PUSH1 0x0 ADD MLOAD DUP2 PUSH1 0x20 ADD MLOAD PUSH1 0x40 MLOAD PUSH1 0x20 ADD PUSH2 0x57D SWAP3 SWAP2 SWAP1 PUSH2 0x1EED JUMP JUMPDEST PUSH1 0x40 MLOAD PUSH1 0x20 DUP2 DUP4 SUB SUB DUP2 MSTORE SWAP1 PUSH1 0x40 MSTORE SWAP4 POP POP POP POP SWAP4 SWAP3 POP POP POP JUMP JUMPDEST PUSH1 0x0 PUSH2 0x5E7 DUP6 DUP6 DUP1 DUP1 PUSH1 0x1F ADD PUSH1 0x20 DUP1 SWAP2 DIV MUL PUSH1 0x20 ADD PUSH1 0x40 MLOAD SWAP1 DUP2 ADD PUSH1 0x40 MSTORE DUP1 SWAP4 SWAP3 SWAP2 SWAP1 DUP2 DUP2 MSTORE PUSH1 0x20 ADD DUP4 DUP4 DUP1 DUP3 DUP5 CALLDATACOPY PUSH1 0x0 DUP2 DUP5 ADD MSTORE PUSH1 0x1F NOT PUSH1 0x1F DUP3 ADD AND SWAP1 POP DUP1 DUP4 ADD SWAP3 POP POP POP POP POP POP POP PUSH2 0x8F9 JUMP JUMPDEST SWAP1 POP PUSH1 0x0 PUSH2 0x638 DUP5 DUP5 DUP1 DUP1 PUSH1 0x1F ADD PUSH1 0x20 DUP1 SWAP2 DIV MUL PUSH1 0x20 ADD PUSH1 0x40 MLOAD SWAP1 DUP2 ADD PUSH1 0x40 MSTORE DUP1 SWAP4 SWAP3 SWAP2 SWAP1 DUP2 DUP2 MSTORE PUSH1 0x20 ADD DUP4 DUP4 DUP1 DUP3 DUP5 CALLDATACOPY PUSH1 0x0 DUP2 DUP5 ADD MSTORE PUSH1 0x1F NOT PUSH1 0x1F DUP3 ADD AND SWAP1 POP DUP1 DUP4 ADD SWAP3 POP POP POP POP POP POP POP PUSH2 0x8F9 JUMP JUMPDEST SWAP1 POP PUSH2 0x644 DUP3 DUP3 PUSH2 0xD9A JUMP JUMPDEST POP POP POP POP POP POP POP JUMP JUMPDEST PUSH1 0x0 DUP1 SLOAD SWAP1 PUSH2 0x100 EXP SWAP1 DIV PUSH1 0xFF AND DUP2 JUMP JUMPDEST PUSH1 0x0 PUSH2 0x6AD DUP8 DUP8 DUP1 DUP1 PUSH1 0x1F ADD PUSH1 0x20 DUP1 SWAP2 DIV MUL PUSH1 0x20 ADD PUSH1 0x40 MLOAD SWAP1 DUP2 ADD PUSH1 0x40 MSTORE DUP1 SWAP4 SWAP3 SWAP2 SWAP1 DUP2 DUP2 MSTORE PUSH1 0x20 ADD DUP4 DUP4 DUP1 DUP3 DUP5 CALLDATACOPY PUSH1 0x0 DUP2 DUP5 ADD MSTORE PUSH1 0x1F NOT PUSH1 0x1F DUP3 ADD AND SWAP1 POP DUP1 DUP4 ADD SWAP3 POP POP POP POP POP POP POP PUSH2 0x771 JUMP JUMPDEST SWAP1 POP PUSH1 0x0 PUSH2 0x6FE DUP5 DUP5 DUP1 DUP1 PUSH1 0x1F ADD PUSH1 0x20 DUP1 SWAP2 DIV MUL PUSH1 0x20 ADD PUSH1 0x40 MLOAD SWAP1 DUP2 ADD PUSH1 0x40 MSTORE DUP1 SWAP4 SWAP3 SWAP2 SWAP1 DUP2 DUP2 MSTORE PUSH1 0x20 ADD DUP4 DUP4 DUP1 DUP3 DUP5 CALLDATACOPY PUSH1 0x0 DUP2 DUP5 ADD MSTORE PUSH1 0x1F NOT PUSH1 0x1F DUP3 ADD AND SWAP1 POP DUP1 DUP4 ADD SWAP3 POP POP POP POP POP POP POP PUSH2 0x8F9 JUMP JUMPDEST SWAP1 POP PUSH2 0x74F DUP3 DUP8 DUP8 DUP1 DUP1 PUSH1 0x1F ADD PUSH1 0x20 DUP1 SWAP2 DIV MUL PUSH1 0x20 ADD PUSH1 0x40 MLOAD SWAP1 DUP2 ADD PUSH1 0x40 MSTORE DUP1 SWAP4 SWAP3 SWAP2 SWAP1 DUP2 DUP2 MSTORE PUSH1 0x20 ADD DUP4 DUP4 DUP1 DUP3 DUP5 CALLDATACOPY PUSH1 0x0 DUP2 DUP5 ADD MSTORE PUSH1 0x1F NOT PUSH1 0x1F DUP3 ADD AND SWAP1 POP DUP1 DUP4 ADD SWAP3 POP POP POP POP POP POP POP DUP4 PUSH2 0xF75 JUMP JUMPDEST PUSH1 0x0 DUP1 PUSH2 0x100 EXP DUP2 SLOAD DUP2 PUSH1 0xFF MUL NOT AND SWAP1 DUP4 ISZERO ISZERO MUL OR SWAP1 SSTORE POP POP POP POP POP POP POP POP POP JUMP JUMPDEST PUSH2 0x779 PUSH2 0x18D3 JUMP JUMPDEST PUSH1 0x0 PUSH1 0x4 PUSH8 0xFFFFFFFFFFFFFFFF DUP2 GT ISZERO PUSH2 0x796 JUMPI PUSH2 0x795 PUSH2 0x244E JUMP JUMPDEST JUMPDEST PUSH1 0x40 MLOAD SWAP1 DUP1 DUP3 MSTORE DUP1 PUSH1 0x20 MUL PUSH1 0x20 ADD DUP3 ADD PUSH1 0x40 MSTORE DUP1 ISZERO PUSH2 0x7C4 JUMPI DUP2 PUSH1 0x20 ADD PUSH1 0x20 DUP3 MUL DUP1 CALLDATASIZE DUP4 CALLDATACOPY DUP1 DUP3 ADD SWAP2 POP POP SWAP1 POP JUMPDEST POP SWAP1 POP PUSH1 0x0 PUSH1 0x20 SWAP1 POP JUMPDEST PUSH1 0x20 DUP3 MLOAD PUSH2 0x7DC SWAP2 SWAP1 PUSH2 0x225C JUMP JUMPDEST DUP2 GT PUSH2 0x7FE JUMPI DUP1 DUP5 ADD MLOAD DUP2 DUP4 ADD MSTORE PUSH1 0x20 DUP2 PUSH2 0x7F7 SWAP2 SWAP1 PUSH2 0x2064 JUMP JUMPDEST SWAP1 POP PUSH2 0x7CE JUMP JUMPDEST POP DUP1 PUSH1 0x0 DUP2 MLOAD DUP2 LT PUSH2 0x813 JUMPI PUSH2 0x812 PUSH2 0x241F JUMP JUMPDEST JUMPDEST PUSH1 0x20 MUL PUSH1 0x20 ADD ADD MLOAD DUP3 PUSH1 0x0 ADD MLOAD PUSH1 0x0 PUSH1 0x2 DUP2 LT PUSH2 0x833 JUMPI PUSH2 0x832 PUSH2 0x241F JUMP JUMPDEST JUMPDEST PUSH1 0x20 MUL ADD DUP2 DUP2 MSTORE POP POP DUP1 PUSH1 0x1 DUP2 MLOAD DUP2 LT PUSH2 0x850 JUMPI PUSH2 0x84F PUSH2 0x241F JUMP JUMPDEST JUMPDEST PUSH1 0x20 MUL PUSH1 0x20 ADD ADD MLOAD DUP3 PUSH1 0x0 ADD MLOAD PUSH1 0x1 PUSH1 0x2 DUP2 LT PUSH2 0x870 JUMPI PUSH2 0x86F PUSH2 0x241F JUMP JUMPDEST JUMPDEST PUSH1 0x20 MUL ADD DUP2 DUP2 MSTORE POP POP DUP1 PUSH1 0x2 DUP2 MLOAD DUP2 LT PUSH2 0x88D JUMPI PUSH2 0x88C PUSH2 0x241F JUMP JUMPDEST JUMPDEST PUSH1 0x20 MUL PUSH1 0x20 ADD ADD MLOAD DUP3 PUSH1 0x20 ADD MLOAD PUSH1 0x0 PUSH1 0x2 DUP2 LT PUSH2 0x8AD JUMPI PUSH2 0x8AC PUSH2 0x241F JUMP JUMPDEST JUMPDEST PUSH1 0x20 MUL ADD DUP2 DUP2 MSTORE POP POP DUP1 PUSH1 0x3 DUP2 MLOAD DUP2 LT PUSH2 0x8CA JUMPI PUSH2 0x8C9 PUSH2 0x241F JUMP JUMPDEST JUMPDEST PUSH1 0x20 MUL PUSH1 0x20 ADD ADD MLOAD DUP3 PUSH1 0x20 ADD MLOAD PUSH1 0x1 PUSH1 0x2 DUP2 LT PUSH2 0x8EA JUMPI PUSH2 0x8E9 PUSH2 0x241F JUMP JUMPDEST JUMPDEST PUSH1 0x20 MUL ADD DUP2 DUP2 MSTORE POP POP POP SWAP2 SWAP1 POP JUMP JUMPDEST PUSH2 0x901 PUSH2 0x18F9 JUMP JUMPDEST PUSH1 0x0 PUSH1 0x2 PUSH8 0xFFFFFFFFFFFFFFFF DUP2 GT ISZERO PUSH2 0x91E JUMPI PUSH2 0x91D PUSH2 0x244E JUMP JUMPDEST JUMPDEST PUSH1 0x40 MLOAD SWAP1 DUP1 DUP3 MSTORE DUP1 PUSH1 0x20 MUL PUSH1 0x20 ADD DUP3 ADD PUSH1 0x40 MSTORE DUP1 ISZERO PUSH2 0x94C JUMPI DUP2 PUSH1 0x20 ADD PUSH1 0x20 DUP3 MUL DUP1 CALLDATASIZE DUP4 CALLDATACOPY DUP1 DUP3 ADD SWAP2 POP POP SWAP1 POP JUMPDEST POP SWAP1 POP PUSH1 0x0 PUSH1 0x20 SWAP1 POP JUMPDEST PUSH1 0x20 DUP3 MLOAD PUSH2 0x964 SWAP2 SWAP1 PUSH2 0x225C JUMP JUMPDEST DUP2 GT PUSH2 0x986 JUMPI DUP1 DUP5 ADD MLOAD DUP2 DUP4 ADD MSTORE PUSH1 0x20 DUP2 PUSH2 0x97F SWAP2 SWAP1 PUSH2 0x2064 JUMP JUMPDEST SWAP1 POP PUSH2 0x956 JUMP JUMPDEST POP DUP1 PUSH1 0x0 DUP2 MLOAD DUP2 LT PUSH2 0x99B JUMPI PUSH2 0x99A PUSH2 0x241F JUMP JUMPDEST JUMPDEST PUSH1 0x20 MUL PUSH1 0x20 ADD ADD MLOAD DUP3 PUSH1 0x0 ADD DUP2 DUP2 MSTORE POP POP DUP1 PUSH1 0x1 DUP2 MLOAD DUP2 LT PUSH2 0x9C0 JUMPI PUSH2 0x9BF PUSH2 0x241F JUMP JUMPDEST JUMPDEST PUSH1 0x20 MUL PUSH1 0x20 ADD ADD MLOAD DUP3 PUSH1 0x20 ADD DUP2 DUP2 MSTORE POP POP POP SWAP2 SWAP1 POP JUMP JUMPDEST PUSH1 0x0 DUP1 PUSH1 0x40 MLOAD DUP1 PUSH1 0x40 ADD PUSH1 0x40 MSTORE DUP1 PUSH1 0x0 DUP2 MSTORE PUSH1 0x20 ADD PUSH1 0x0 DUP2 MSTORE POP SWAP1 POP PUSH1 0x0 DUP1 PUSH1 0x1 SWAP1 POP JUMPDEST PUSH1 0x0 DUP6 EQ PUSH2 0xA75 JUMPI PUSH1 0x0 DUP2 DUP7 AND EQ PUSH2 0xA5B JUMPI DUP1 DUP6 PUSH2 0xA19 SWAP2 SWAP1 PUSH2 0x22B6 JUMP JUMPDEST SWAP5 POP PUSH2 0xA58 DUP4 PUSH2 0xA53 DUP12 PUSH1 0x0 ADD MLOAD DUP13 PUSH1 0x20 ADD MLOAD DUP7 PUSH1 0x40 MLOAD PUSH1 0x20 ADD PUSH2 0xA3F SWAP4 SWAP3 SWAP2 SWAP1 PUSH2 0x1E99 JUMP JUMPDEST PUSH1 0x40 MLOAD PUSH1 0x20 DUP2 DUP4 SUB SUB DUP2 MSTORE SWAP1 PUSH1 0x40 MSTORE PUSH2 0xE8C JUMP JUMPDEST PUSH2 0xD9A JUMP JUMPDEST SWAP3 POP JUMPDEST PUSH1 0x1 DUP2 SWAP1 SHL SWAP1 POP DUP2 DUP1 PUSH2 0xA6D SWAP1 PUSH2 0x233D JUMP JUMPDEST SWAP3 POP POP PUSH2 0x9FB JUMP JUMPDEST PUSH1 0x0 PUSH1 0x3 PUSH8 0xFFFFFFFFFFFFFFFF DUP2 GT ISZERO PUSH2 0xA92 JUMPI PUSH2 0xA91 PUSH2 0x244E JUMP JUMPDEST JUMPDEST PUSH1 0x40 MLOAD SWAP1 DUP1 DUP3 MSTORE DUP1 PUSH1 0x20 MUL PUSH1 0x20 ADD DUP3 ADD PUSH1 0x40 MSTORE DUP1 ISZERO PUSH2 0xACB JUMPI DUP2 PUSH1 0x20 ADD JUMPDEST PUSH2 0xAB8 PUSH2 0x18F9 JUMP JUMPDEST DUP2 MSTORE PUSH1 0x20 ADD SWAP1 PUSH1 0x1 SWAP1 SUB SWAP1 DUP2 PUSH2 0xAB0 JUMPI SWAP1 POP JUMPDEST POP SWAP1 POP PUSH1 0x0 PUSH1 0x3 PUSH8 0xFFFFFFFFFFFFFFFF DUP2 GT ISZERO PUSH2 0xAEB JUMPI PUSH2 0xAEA PUSH2 0x244E JUMP JUMPDEST JUMPDEST PUSH1 0x40 MLOAD SWAP1 DUP1 DUP3 MSTORE DUP1 PUSH1 0x20 MUL PUSH1 0x20 ADD DUP3 ADD PUSH1 0x40 MSTORE DUP1 ISZERO PUSH2 0xB24 JUMPI DUP2 PUSH1 0x20 ADD JUMPDEST PUSH2 0xB11 PUSH2 0x18D3 JUMP JUMPDEST DUP2 MSTORE PUSH1 0x20 ADD SWAP1 PUSH1 0x1 SWAP1 SUB SWAP1 DUP2 PUSH2 0xB09 JUMPI SWAP1 POP JUMPDEST POP SWAP1 POP PUSH2 0xB30 DUP9 PUSH2 0xF93 JUMP JUMPDEST DUP3 PUSH1 0x0 DUP2 MLOAD DUP2 LT PUSH2 0xB44 JUMPI PUSH2 0xB43 PUSH2 0x241F JUMP JUMPDEST JUMPDEST PUSH1 0x20 MUL PUSH1 0x20 ADD ADD DUP2 SWAP1 MSTORE POP PUSH2 0xB83 DUP12 PUSH1 0x0 ADD MLOAD DUP13 PUSH1 0x20 ADD MLOAD DUP12 PUSH1 0x40 MLOAD PUSH1 0x20 ADD PUSH2 0xB6F SWAP4 SWAP3 SWAP2 SWAP1 PUSH2 0x1E60 JUMP JUMPDEST PUSH1 0x40 MLOAD PUSH1 0x20 DUP2 DUP4 SUB SUB DUP2 MSTORE SWAP1 PUSH1 0x40 MSTORE PUSH2 0xE8C JUMP JUMPDEST DUP3 PUSH1 0x1 DUP2 MLOAD DUP2 LT PUSH2 0xB97 JUMPI PUSH2 0xB96 PUSH2 0x241F JUMP JUMPDEST JUMPDEST PUSH1 0x20 MUL PUSH1 0x20 ADD ADD DUP2 SWAP1 MSTORE POP DUP5 DUP3 PUSH1 0x2 DUP2 MLOAD DUP2 LT PUSH2 0xBB7 JUMPI PUSH2 0xBB6 PUSH2 0x241F JUMP JUMPDEST JUMPDEST PUSH1 0x20 MUL PUSH1 0x20 ADD ADD DUP2 SWAP1 MSTORE POP PUSH2 0xBCA PUSH2 0x1042 JUMP JUMPDEST DUP2 PUSH1 0x0 DUP2 MLOAD DUP2 LT PUSH2 0xBDE JUMPI PUSH2 0xBDD PUSH2 0x241F JUMP JUMPDEST JUMPDEST PUSH1 0x20 MUL PUSH1 0x20 ADD ADD DUP2 SWAP1 MSTORE POP DUP10 DUP2 PUSH1 0x1 DUP2 MLOAD DUP2 LT PUSH2 0xBFE JUMPI PUSH2 0xBFD PUSH2 0x241F JUMP JUMPDEST JUMPDEST PUSH1 0x20 MUL PUSH1 0x20 ADD ADD DUP2 SWAP1 MSTORE POP DUP11 DUP2 PUSH1 0x2 DUP2 MLOAD DUP2 LT PUSH2 0xC1E JUMPI PUSH2 0xC1D PUSH2 0x241F JUMP JUMPDEST JUMPDEST PUSH1 0x20 MUL PUSH1 0x20 ADD ADD DUP2 SWAP1 MSTORE POP PUSH2 0xC33 DUP3 DUP3 PUSH2 0x110C JUMP JUMPDEST SWAP6 POP POP POP POP POP POP SWAP6 SWAP5 POP POP POP POP POP JUMP JUMPDEST PUSH1 0x0 DUP1 PUSH1 0x2 PUSH8 0xFFFFFFFFFFFFFFFF DUP2 GT ISZERO PUSH2 0xC61 JUMPI PUSH2 0xC60 PUSH2 0x244E JUMP JUMPDEST JUMPDEST PUSH1 0x40 MLOAD SWAP1 DUP1 DUP3 MSTORE DUP1 PUSH1 0x20 MUL PUSH1 0x20 ADD DUP3 ADD PUSH1 0x40 MSTORE DUP1 ISZERO PUSH2 0xC9A JUMPI DUP2 PUSH1 0x20 ADD JUMPDEST PUSH2 0xC87 PUSH2 0x18F9 JUMP JUMPDEST DUP2 MSTORE PUSH1 0x20 ADD SWAP1 PUSH1 0x1 SWAP1 SUB SWAP1 DUP2 PUSH2 0xC7F JUMPI SWAP1 POP JUMPDEST POP SWAP1 POP PUSH1 0x0 PUSH1 0x2 PUSH8 0xFFFFFFFFFFFFFFFF DUP2 GT ISZERO PUSH2 0xCBA JUMPI PUSH2 0xCB9 PUSH2 0x244E JUMP JUMPDEST JUMPDEST PUSH1 0x40 MLOAD SWAP1 DUP1 DUP3 MSTORE DUP1 PUSH1 0x20 MUL PUSH1 0x20 ADD DUP3 ADD PUSH1 0x40 MSTORE DUP1 ISZERO PUSH2 0xCF3 JUMPI DUP2 PUSH1 0x20 ADD JUMPDEST PUSH2 0xCE0 PUSH2 0x18D3 JUMP JUMPDEST DUP2 MSTORE PUSH1 0x20 ADD SWAP1 PUSH1 0x1 SWAP1 SUB SWAP1 DUP2 PUSH2 0xCD8 JUMPI SWAP1 POP JUMPDEST POP SWAP1 POP PUSH2 0xCFF DUP5 PUSH2 0xF93 JUMP JUMPDEST DUP3 PUSH1 0x0 DUP2 MLOAD DUP2 LT PUSH2 0xD13 JUMPI PUSH2 0xD12 PUSH2 0x241F JUMP JUMPDEST JUMPDEST PUSH1 0x20 MUL PUSH1 0x20 ADD ADD DUP2 SWAP1 MSTORE POP DUP5 DUP3 PUSH1 0x1 DUP2 MLOAD DUP2 LT PUSH2 0xD33 JUMPI PUSH2 0xD32 PUSH2 0x241F JUMP JUMPDEST JUMPDEST PUSH1 0x20 MUL PUSH1 0x20 ADD ADD DUP2 SWAP1 MSTORE POP PUSH2 0xD46 PUSH2 0x1042 JUMP JUMPDEST DUP2 PUSH1 0x0 DUP2 MLOAD DUP2 LT PUSH2 0xD5A JUMPI PUSH2 0xD59 PUSH2 0x241F JUMP JUMPDEST JUMPDEST PUSH1 0x20 MUL PUSH1 0x20 ADD ADD DUP2 SWAP1 MSTORE POP DUP6 DUP2 PUSH1 0x1 DUP2 MLOAD DUP2 LT PUSH2 0xD7A JUMPI PUSH2 0xD79 PUSH2 0x241F JUMP JUMPDEST JUMPDEST PUSH1 0x20 MUL PUSH1 0x20 ADD ADD DUP2 SWAP1 MSTORE POP PUSH2 0xD8F DUP3 DUP3 PUSH2 0x110C JUMP JUMPDEST SWAP3 POP POP POP SWAP4 SWAP3 POP POP POP JUMP JUMPDEST PUSH2 0xDA2 PUSH2 0x18F9 JUMP JUMPDEST PUSH2 0xDAA PUSH2 0x1913 JUMP JUMPDEST DUP4 PUSH1 0x0 ADD MLOAD DUP2 PUSH1 0x0 PUSH1 0x4 DUP2 LT PUSH2 0xDC3 JUMPI PUSH2 0xDC2 PUSH2 0x241F JUMP JUMPDEST JUMPDEST PUSH1 0x20 MUL ADD DUP2 DUP2 MSTORE POP POP DUP4 PUSH1 0x20 ADD MLOAD DUP2 PUSH1 0x1 PUSH1 0x4 DUP2 LT PUSH2 0xDE5 JUMPI PUSH2 0xDE4 PUSH2 0x241F JUMP JUMPDEST JUMPDEST PUSH1 0x20 MUL ADD DUP2 DUP2 MSTORE POP POP DUP3 PUSH1 0x0 ADD MLOAD DUP2 PUSH1 0x2 PUSH1 0x4 DUP2 LT PUSH2 0xE07 JUMPI PUSH2 0xE06 PUSH2 0x241F JUMP JUMPDEST JUMPDEST PUSH1 0x20 MUL ADD DUP2 DUP2 MSTORE POP POP DUP3 PUSH1 0x20 ADD MLOAD DUP2 PUSH1 0x3 PUSH1 0x4 DUP2 LT PUSH2 0xE29 JUMPI PUSH2 0xE28 PUSH2 0x241F JUMP JUMPDEST JUMPDEST PUSH1 0x20 MUL ADD DUP2 DUP2 MSTORE POP POP PUSH1 0x0 PUSH1 0x40 DUP4 PUSH1 0x80 DUP5 PUSH1 0x6 PUSH2 0x7D0 GAS SUB STATICCALL SWAP1 POP DUP1 PUSH2 0xE84 JUMPI PUSH1 0x40 MLOAD PUSH32 0x8C379A000000000000000000000000000000000000000000000000000000000 DUP2 MSTORE PUSH1 0x4 ADD PUSH2 0xE7B SWAP1 PUSH2 0x1F96 JUMP JUMPDEST PUSH1 0x40 MLOAD DUP1 SWAP2 SUB SWAP1 REVERT JUMPDEST POP POP SWAP3 SWAP2 POP POP JUMP JUMPDEST PUSH2 0xE94 PUSH2 0x18F9 JUMP JUMPDEST PUSH1 0x0 PUSH1 0x2 DUP4 PUSH1 0x40 MLOAD PUSH2 0xEA6 SWAP2 SWAP1 PUSH2 0x1ED6 JUMP JUMPDEST PUSH1 0x20 PUSH1 0x40 MLOAD DUP1 DUP4 SUB DUP2 DUP6 GAS STATICCALL ISZERO DUP1 ISZERO PUSH2 0xEC3 JUMPI RETURNDATASIZE PUSH1 0x0 DUP1 RETURNDATACOPY RETURNDATASIZE PUSH1 0x0 REVERT JUMPDEST POP POP POP PUSH1 0x40 MLOAD RETURNDATASIZE PUSH1 0x1F NOT PUSH1 0x1F DUP3 ADD AND DUP3 ADD DUP1 PUSH1 0x40 MSTORE POP DUP2 ADD SWAP1 PUSH2 0xEE6 SWAP2 SWAP1 PUSH2 0x19F9 JUMP JUMPDEST SWAP1 POP PUSH1 0x0 PUSH32 0x30644E72E131A029B85045B68181585D97816A916871CA8D3C208C16D87CFD47 DUP3 PUSH1 0x0 SHR PUSH2 0xF19 SWAP2 SWAP1 PUSH2 0x2390 JUMP JUMPDEST SWAP1 POP PUSH1 0x0 JUMPDEST PUSH1 0x1 ISZERO PUSH2 0xF6C JUMPI PUSH2 0xF2E DUP3 PUSH2 0x14C2 JUMP JUMPDEST SWAP1 POP PUSH1 0x0 DUP2 GT ISZERO PUSH2 0xF58 JUMPI PUSH1 0x40 MLOAD DUP1 PUSH1 0x40 ADD PUSH1 0x40 MSTORE DUP1 DUP4 DUP2 MSTORE PUSH1 0x20 ADD DUP3 DUP2 MSTORE POP SWAP4 POP POP POP POP PUSH2 0xF70 JUMP JUMPDEST PUSH1 0x1 DUP3 PUSH2 0xF65 SWAP2 SWAP1 PUSH2 0x2064 JUMP JUMPDEST SWAP2 POP PUSH2 0xF1E JUMP JUMPDEST POP POP POP JUMPDEST SWAP2 SWAP1 POP JUMP JUMPDEST PUSH1 0x0 PUSH2 0xF8A DUP5 PUSH2 0xF84 DUP6 PUSH2 0xE8C JUMP JUMPDEST DUP5 PUSH2 0xC43 JUMP JUMPDEST SWAP1 POP SWAP4 SWAP3 POP POP POP JUMP JUMPDEST PUSH2 0xF9B PUSH2 0x18F9 JUMP JUMPDEST PUSH2 0xFA4 DUP3 PUSH2 0x154A JUMP JUMPDEST ISZERO PUSH2 0xFC7 JUMPI PUSH1 0x40 MLOAD DUP1 PUSH1 0x40 ADD PUSH1 0x40 MSTORE DUP1 PUSH1 0x0 DUP2 MSTORE PUSH1 0x20 ADD PUSH1 0x0 DUP2 MSTORE POP SWAP1 POP PUSH2 0x103D JUMP JUMPDEST PUSH1 0x40 MLOAD DUP1 PUSH1 0x40 ADD PUSH1 0x40 MSTORE DUP1 DUP4 PUSH1 0x0 ADD MLOAD DUP2 MSTORE PUSH1 0x20 ADD PUSH32 0x30644E72E131A029B85045B68181585D97816A916871CA8D3C208C16D87CFD47 DUP5 PUSH1 0x20 ADD MLOAD PUSH2 0x100C SWAP2 SWAP1 PUSH2 0x2390 JUMP JUMPDEST PUSH32 0x30644E72E131A029B85045B68181585D97816A916871CA8D3C208C16D87CFD47 PUSH2 0x1037 SWAP2 SWAP1 PUSH2 0x22B6 JUMP JUMPDEST DUP2 MSTORE POP SWAP1 POP JUMPDEST SWAP2 SWAP1 POP JUMP JUMPDEST PUSH2 0x104A PUSH2 0x18D3 JUMP JUMPDEST PUSH1 0x40 MLOAD DUP1 PUSH1 0x40 ADD PUSH1 0x40 MSTORE DUP1 PUSH1 0x40 MLOAD DUP1 PUSH1 0x40 ADD PUSH1 0x40 MSTORE DUP1 PUSH32 0x198E9393920D483A7260BFB731FB5D25F1AA493335A9E71297E485B7AEF312C2 DUP2 MSTORE PUSH1 0x20 ADD PUSH32 0x1800DEEF121F1E76426A00665E5C4479674322D4F75EDADD46DEBD5CD992F6ED DUP2 MSTORE POP DUP2 MSTORE PUSH1 0x20 ADD PUSH1 0x40 MLOAD DUP1 PUSH1 0x40 ADD PUSH1 0x40 MSTORE DUP1 PUSH32 0x90689D0585FF075EC9E99AD690C3395BC4B313370B38EF355ACDADCD122975B DUP2 MSTORE PUSH1 0x20 ADD PUSH32 0x12C85EA5DB8C6DEB4AAB71808DCB408FE3D1E7690C43D37B4CE6CC0166FA7DAA DUP2 MSTORE POP DUP2 MSTORE POP SWAP1 POP SWAP1 JUMP JUMPDEST PUSH1 0x0 DUP2 MLOAD DUP4 MLOAD EQ PUSH2 0x1152 JUMPI PUSH1 0x40 MLOAD PUSH32 0x8C379A000000000000000000000000000000000000000000000000000000000 DUP2 MSTORE PUSH1 0x4 ADD PUSH2 0x1149 SWAP1 PUSH2 0x1FB6 JUMP JUMPDEST PUSH1 0x40 MLOAD DUP1 SWAP2 SUB SWAP1 REVERT JUMPDEST PUSH1 0x0 DUP4 MLOAD SWAP1 POP PUSH1 0x0 PUSH1 0x6 DUP3 PUSH2 0x1167 SWAP2 SWAP1 PUSH2 0x225C JUMP JUMPDEST SWAP1 POP PUSH1 0x0 DUP2 PUSH8 0xFFFFFFFFFFFFFFFF DUP2 GT ISZERO PUSH2 0x1185 JUMPI PUSH2 0x1184 PUSH2 0x244E JUMP JUMPDEST JUMPDEST PUSH1 0x40 MLOAD SWAP1 DUP1 DUP3 MSTORE DUP1 PUSH1 0x20 MUL PUSH1 0x20 ADD DUP3 ADD PUSH1 0x40 MSTORE DUP1 ISZERO PUSH2 0x11B3 JUMPI DUP2 PUSH1 0x20 ADD PUSH1 0x20 DUP3 MUL DUP1 CALLDATASIZE DUP4 CALLDATACOPY DUP1 DUP3 ADD SWAP2 POP POP SWAP1 POP JUMPDEST POP SWAP1 POP PUSH1 0x0 JUMPDEST DUP4 DUP2 LT ISZERO PUSH2 0x1438 JUMPI DUP7 DUP2 DUP2 MLOAD DUP2 LT PUSH2 0x11D4 JUMPI PUSH2 0x11D3 PUSH2 0x241F JUMP JUMPDEST JUMPDEST PUSH1 0x20 MUL PUSH1 0x20 ADD ADD MLOAD PUSH1 0x0 ADD MLOAD DUP3 PUSH1 0x0 PUSH1 0x6 DUP5 PUSH2 0x11F0 SWAP2 SWAP1 PUSH2 0x225C JUMP JUMPDEST PUSH2 0x11FA SWAP2 SWAP1 PUSH2 0x2064 JUMP JUMPDEST DUP2 MLOAD DUP2 LT PUSH2 0x120B JUMPI PUSH2 0x120A PUSH2 0x241F JUMP JUMPDEST JUMPDEST PUSH1 0x20 MUL PUSH1 0x20 ADD ADD DUP2 DUP2 MSTORE POP POP DUP7 DUP2 DUP2 MLOAD DUP2 LT PUSH2 0x122A JUMPI PUSH2 0x1229 PUSH2 0x241F JUMP JUMPDEST JUMPDEST PUSH1 0x20 MUL PUSH1 0x20 ADD ADD MLOAD PUSH1 0x20 ADD MLOAD DUP3 PUSH1 0x1 PUSH1 0x6 DUP5 PUSH2 0x1246 SWAP2 SWAP1 PUSH2 0x225C JUMP JUMPDEST PUSH2 0x1250 SWAP2 SWAP1 PUSH2 0x2064 JUMP JUMPDEST DUP2 MLOAD DUP2 LT PUSH2 0x1261 JUMPI PUSH2 0x1260 PUSH2 0x241F JUMP JUMPDEST JUMPDEST PUSH1 0x20 MUL PUSH1 0x20 ADD ADD DUP2 DUP2 MSTORE POP POP DUP6 DUP2 DUP2 MLOAD DUP2 LT PUSH2 0x1280 JUMPI PUSH2 0x127F PUSH2 0x241F JUMP JUMPDEST JUMPDEST PUSH1 0x20 MUL PUSH1 0x20 ADD ADD MLOAD PUSH1 0x0 ADD MLOAD PUSH1 0x0 PUSH1 0x2 DUP2 LT PUSH2 0x129F JUMPI PUSH2 0x129E PUSH2 0x241F JUMP JUMPDEST JUMPDEST PUSH1 0x20 MUL ADD MLOAD DUP3 PUSH1 0x2 PUSH1 0x6 DUP5 PUSH2 0x12B4 SWAP2 SWAP1 PUSH2 0x225C JUMP JUMPDEST PUSH2 0x12BE SWAP2 SWAP1 PUSH2 0x2064 JUMP JUMPDEST DUP2 MLOAD DUP2 LT PUSH2 0x12CF JUMPI PUSH2 0x12CE PUSH2 0x241F JUMP JUMPDEST JUMPDEST PUSH1 0x20 MUL PUSH1 0x20 ADD ADD DUP2 DUP2 MSTORE POP POP DUP6 DUP2 DUP2 MLOAD DUP2 LT PUSH2 0x12EE JUMPI PUSH2 0x12ED PUSH2 0x241F JUMP JUMPDEST JUMPDEST PUSH1 0x20 MUL PUSH1 0x20 ADD ADD MLOAD PUSH1 0x0 ADD MLOAD PUSH1 0x1 PUSH1 0x2 DUP2 LT PUSH2 0x130D JUMPI PUSH2 0x130C PUSH2 0x241F JUMP JUMPDEST JUMPDEST PUSH1 0x20 MUL ADD MLOAD DUP3 PUSH1 0x3 PUSH1 0x6 DUP5 PUSH2 0x1322 SWAP2 SWAP1 PUSH2 0x225C JUMP JUMPDEST PUSH2 0x132C SWAP2 SWAP1 PUSH2 0x2064 JUMP JUMPDEST DUP2 MLOAD DUP2 LT PUSH2 0x133D JUMPI PUSH2 0x133C PUSH2 0x241F JUMP JUMPDEST JUMPDEST PUSH1 0x20 MUL PUSH1 0x20 ADD ADD DUP2 DUP2 MSTORE POP POP DUP6 DUP2 DUP2 MLOAD DUP2 LT PUSH2 0x135C JUMPI PUSH2 0x135B PUSH2 0x241F JUMP JUMPDEST JUMPDEST PUSH1 0x20 MUL PUSH1 0x20 ADD ADD MLOAD PUSH1 0x20 ADD MLOAD PUSH1 0x0 PUSH1 0x2 DUP2 LT PUSH2 0x137B JUMPI PUSH2 0x137A PUSH2 0x241F JUMP JUMPDEST JUMPDEST PUSH1 0x20 MUL ADD MLOAD DUP3 PUSH1 0x4 PUSH1 0x6 DUP5 PUSH2 0x1390 SWAP2 SWAP1 PUSH2 0x225C JUMP JUMPDEST PUSH2 0x139A SWAP2 SWAP1 PUSH2 0x2064 JUMP JUMPDEST DUP2 MLOAD DUP2 LT PUSH2 0x13AB JUMPI PUSH2 0x13AA PUSH2 0x241F JUMP JUMPDEST JUMPDEST PUSH1 0x20 MUL PUSH1 0x20 ADD ADD DUP2 DUP2 MSTORE POP POP DUP6 DUP2 DUP2 MLOAD DUP2 LT PUSH2 0x13CA JUMPI PUSH2 0x13C9 PUSH2 0x241F JUMP JUMPDEST JUMPDEST PUSH1 0x20 MUL PUSH1 0x20 ADD ADD MLOAD PUSH1 0x20 ADD MLOAD PUSH1 0x1 PUSH1 0x2 DUP2 LT PUSH2 0x13E9 JUMPI PUSH2 0x13E8 PUSH2 0x241F JUMP JUMPDEST JUMPDEST PUSH1 0x20 MUL ADD MLOAD DUP3 PUSH1 0x5 PUSH1 0x6 DUP5 PUSH2 0x13FE SWAP2 SWAP1 PUSH2 0x225C JUMP JUMPDEST PUSH2 0x1408 SWAP2 SWAP1 PUSH2 0x2064 JUMP JUMPDEST DUP2 MLOAD DUP2 LT PUSH2 0x1419 JUMPI PUSH2 0x1418 PUSH2 0x241F JUMP JUMPDEST JUMPDEST PUSH1 0x20 MUL PUSH1 0x20 ADD ADD DUP2 DUP2 MSTORE POP POP DUP1 DUP1 PUSH2 0x1430 SWAP1 PUSH2 0x233D JUMP JUMPDEST SWAP2 POP POP PUSH2 0x11B9 JUMP JUMPDEST POP PUSH2 0x1441 PUSH2 0x1935 JUMP JUMPDEST PUSH1 0x0 PUSH1 0x20 DUP3 PUSH1 0x20 DUP7 MUL PUSH1 0x20 DUP7 ADD PUSH1 0x8 PUSH2 0x7D0 GAS SUB STATICCALL SWAP1 POP DUP1 PUSH2 0x1498 JUMPI PUSH1 0x40 MLOAD PUSH32 0x8C379A000000000000000000000000000000000000000000000000000000000 DUP2 MSTORE PUSH1 0x4 ADD PUSH2 0x148F SWAP1 PUSH2 0x1F76 JUMP JUMPDEST PUSH1 0x40 MLOAD DUP1 SWAP2 SUB SWAP1 REVERT JUMPDEST PUSH1 0x0 DUP3 PUSH1 0x0 PUSH1 0x1 DUP2 LT PUSH2 0x14AE JUMPI PUSH2 0x14AD PUSH2 0x241F JUMP JUMPDEST JUMPDEST PUSH1 0x20 MUL ADD MLOAD EQ ISZERO SWAP6 POP POP POP POP POP POP SWAP3 SWAP2 POP POP JUMP JUMPDEST PUSH1 0x0 PUSH2 0x1543 PUSH32 0x30644E72E131A029B85045B68181585D97816A916871CA8D3C208C16D87CFD47 DUP1 PUSH1 0x3 PUSH2 0x1521 PUSH1 0x3 PUSH32 0x30644E72E131A029B85045B68181585D97816A916871CA8D3C208C16D87CFD47 DUP9 PUSH2 0x156A SWAP1 SWAP3 SWAP2 SWAP1 PUSH4 0xFFFFFFFF AND JUMP JUMPDEST PUSH2 0x152B SWAP2 SWAP1 PUSH2 0x2064 JUMP JUMPDEST PUSH2 0x1535 SWAP2 SWAP1 PUSH2 0x2390 JUMP JUMPDEST PUSH2 0x15B8 SWAP1 SWAP2 SWAP1 PUSH4 0xFFFFFFFF AND JUMP JUMPDEST SWAP1 POP SWAP2 SWAP1 POP JUMP JUMPDEST PUSH1 0x0 DUP1 DUP3 PUSH1 0x0 ADD MLOAD EQ DUP1 ISZERO PUSH2 0x1563 JUMPI POP PUSH1 0x0 DUP3 PUSH1 0x20 ADD MLOAD EQ JUMPDEST SWAP1 POP SWAP2 SWAP1 POP JUMP JUMPDEST PUSH1 0x0 PUSH1 0x40 MLOAD PUSH1 0x20 DUP2 ADD PUSH1 0x20 DUP2 MSTORE PUSH1 0x20 DUP1 DUP3 ADD MSTORE PUSH1 0x20 PUSH1 0x40 DUP3 ADD MSTORE DUP6 PUSH1 0x60 DUP3 ADD MSTORE DUP5 PUSH1 0x80 DUP3 ADD MSTORE DUP4 PUSH1 0xA0 DUP3 ADD MSTORE PUSH1 0x20 DUP3 PUSH1 0xC0 DUP4 PUSH1 0x5 PUSH1 0x0 NOT STATICCALL PUSH2 0x15AB JUMPI PUSH1 0x0 DUP1 REVERT JUMPDEST DUP2 MLOAD SWAP3 POP POP POP SWAP4 SWAP3 POP POP POP JUMP JUMPDEST PUSH1 0x0 PUSH1 0x1 PUSH2 0x15C6 DUP5 DUP5 PUSH2 0x1808 JUMP JUMPDEST EQ PUSH2 0x15D4 JUMPI PUSH1 0x0 SWAP1 POP PUSH2 0x1802 JUMP JUMPDEST PUSH1 0x0 DUP4 EQ ISZERO PUSH2 0x15E6 JUMPI PUSH1 0x0 SWAP1 POP PUSH2 0x1802 JUMP JUMPDEST PUSH1 0x3 PUSH1 0x4 DUP4 PUSH2 0x15F5 SWAP2 SWAP1 PUSH2 0x2390 JUMP JUMPDEST EQ ISZERO PUSH2 0x1625 JUMPI PUSH2 0x161E DUP4 PUSH1 0x4 PUSH1 0x1 DUP6 PUSH2 0x160E SWAP2 SWAP1 PUSH2 0x2064 JUMP JUMPDEST PUSH2 0x1618 SWAP2 SWAP1 PUSH2 0x20BA JUMP JUMPDEST DUP5 PUSH2 0x156A JUMP JUMPDEST SWAP1 POP PUSH2 0x1802 JUMP JUMPDEST PUSH1 0x0 PUSH1 0x1 DUP4 PUSH2 0x1634 SWAP2 SWAP1 PUSH2 0x22B6 JUMP JUMPDEST SWAP1 POP PUSH1 0x0 JUMPDEST PUSH1 0x0 PUSH1 0x2 DUP4 PUSH2 0x1648 SWAP2 SWAP1 PUSH2 0x2390 JUMP JUMPDEST EQ ISZERO PUSH2 0x1671 JUMPI PUSH1 0x2 DUP3 PUSH2 0x165B SWAP2 SWAP1 PUSH2 0x20BA JUMP JUMPDEST SWAP2 POP PUSH1 0x1 DUP2 PUSH2 0x166A SWAP2 SWAP1 PUSH2 0x2064 JUMP JUMPDEST SWAP1 POP PUSH2 0x1639 JUMP JUMPDEST PUSH1 0x0 PUSH1 0x2 SWAP1 POP JUMPDEST PUSH32 0xFFFFFFFFFFFFFFFFFFFFFFFFFFFFFFFFFFFFFFFFFFFFFFFFFFFFFFFFFFFFFFFF PUSH2 0x16A3 DUP3 DUP8 PUSH2 0x1808 JUMP JUMPDEST EQ PUSH2 0x16BC JUMPI PUSH1 0x1 DUP2 PUSH2 0x16B5 SWAP2 SWAP1 PUSH2 0x2064 JUMP JUMPDEST SWAP1 POP PUSH2 0x1678 JUMP JUMPDEST PUSH1 0x0 PUSH2 0x16E1 DUP8 PUSH1 0x2 PUSH1 0x1 DUP8 PUSH2 0x16D1 SWAP2 SWAP1 PUSH2 0x2064 JUMP JUMPDEST PUSH2 0x16DB SWAP2 SWAP1 PUSH2 0x20BA JUMP JUMPDEST DUP9 PUSH2 0x156A JUMP JUMPDEST SWAP1 POP PUSH1 0x0 PUSH2 0x16F0 DUP9 DUP7 DUP10 PUSH2 0x156A JUMP JUMPDEST SWAP1 POP PUSH1 0x0 PUSH2 0x16FF DUP5 DUP8 DUP11 PUSH2 0x156A JUMP JUMPDEST SWAP1 POP PUSH1 0x0 DUP6 SWAP1 POP PUSH1 0x0 DUP1 PUSH1 0x0 DUP6 SWAP1 POP JUMPDEST PUSH1 0x1 ISZERO PUSH2 0x17F7 JUMPI DUP6 SWAP1 POP PUSH1 0x0 SWAP2 POP PUSH1 0x0 SWAP2 POP JUMPDEST DUP4 DUP3 LT ISZERO PUSH2 0x1759 JUMPI PUSH1 0x1 DUP2 EQ ISZERO PUSH2 0x1738 JUMPI PUSH2 0x1759 JUMP JUMPDEST PUSH2 0x1744 DUP2 PUSH1 0x2 DUP15 PUSH2 0x156A JUMP JUMPDEST SWAP1 POP DUP2 DUP1 PUSH2 0x1751 SWAP1 PUSH2 0x233D JUMP JUMPDEST SWAP3 POP POP PUSH2 0x1722 JUMP JUMPDEST PUSH1 0x0 DUP3 EQ ISZERO PUSH2 0x1774 JUMPI DUP7 SWAP11 POP POP POP POP POP POP POP POP POP POP POP PUSH2 0x1802 JUMP JUMPDEST PUSH2 0x17A2 DUP6 PUSH1 0x1 DUP5 DUP8 PUSH2 0x1786 SWAP2 SWAP1 PUSH2 0x22B6 JUMP JUMPDEST PUSH2 0x1790 SWAP2 SWAP1 PUSH2 0x22B6 JUMP JUMPDEST PUSH1 0x2 PUSH2 0x179C SWAP2 SWAP1 PUSH2 0x213E JUMP JUMPDEST DUP15 PUSH2 0x156A JUMP JUMPDEST SWAP3 POP DUP12 DUP4 DUP5 PUSH2 0x17B1 SWAP2 SWAP1 PUSH2 0x225C JUMP JUMPDEST PUSH2 0x17BB SWAP2 SWAP1 PUSH2 0x2390 JUMP JUMPDEST SWAP5 POP DUP12 DUP4 DUP9 PUSH2 0x17CA SWAP2 SWAP1 PUSH2 0x225C JUMP JUMPDEST PUSH2 0x17D4 SWAP2 SWAP1 PUSH2 0x2390 JUMP JUMPDEST SWAP7 POP DUP12 DUP6 DUP8 PUSH2 0x17E3 SWAP2 SWAP1 PUSH2 0x225C JUMP JUMPDEST PUSH2 0x17ED SWAP2 SWAP1 PUSH2 0x2390 JUMP JUMPDEST SWAP6 POP DUP2 SWAP4 POP PUSH2 0x170F JUMP JUMPDEST POP POP POP POP POP POP POP POP POP POP JUMPDEST SWAP3 SWAP2 POP POP JUMP JUMPDEST PUSH1 0x0 DUP1 PUSH2 0x182E DUP5 PUSH1 0x2 PUSH1 0x1 DUP7 PUSH2 0x181E SWAP2 SWAP1 PUSH2 0x22B6 JUMP JUMPDEST PUSH2 0x1828 SWAP2 SWAP1 PUSH2 0x20BA JUMP JUMPDEST DUP6 PUSH2 0x156A JUMP JUMPDEST SWAP1 POP PUSH1 0x0 DUP2 EQ DUP1 PUSH2 0x183F JUMPI POP PUSH1 0x1 DUP2 EQ JUMPDEST ISZERO PUSH2 0x184D JUMPI DUP1 SWAP2 POP POP PUSH2 0x18CD JUMP JUMPDEST PUSH1 0x1 DUP4 PUSH2 0x185A SWAP2 SWAP1 PUSH2 0x22B6 JUMP JUMPDEST DUP2 EQ ISZERO PUSH2 0x188A JUMPI PUSH32 0xFFFFFFFFFFFFFFFFFFFFFFFFFFFFFFFFFFFFFFFFFFFFFFFFFFFFFFFFFFFFFFFF SWAP2 POP POP PUSH2 0x18CD JUMP JUMPDEST PUSH1 0x0 PUSH2 0x18CB JUMPI PUSH1 0x40 MLOAD PUSH32 0x8C379A000000000000000000000000000000000000000000000000000000000 DUP2 MSTORE PUSH1 0x4 ADD PUSH2 0x18C2 SWAP1 PUSH2 0x1F56 JUMP JUMPDEST PUSH1 0x40 MLOAD DUP1 SWAP2 SUB SWAP1 REVERT JUMPDEST POP JUMPDEST SWAP3 SWAP2 POP POP JUMP JUMPDEST PUSH1 0x40 MLOAD DUP1 PUSH1 0x40 ADD PUSH1 0x40 MSTORE DUP1 PUSH2 0x18E6 PUSH2 0x1957 JUMP JUMPDEST DUP2 MSTORE PUSH1 0x20 ADD PUSH2 0x18F3 PUSH2 0x1957 JUMP JUMPDEST DUP2 MSTORE POP SWAP1 JUMP JUMPDEST PUSH1 0x40 MLOAD DUP1 PUSH1 0x40 ADD PUSH1 0x40 MSTORE DUP1 PUSH1 0x0 DUP2 MSTORE PUSH1 0x20 ADD PUSH1 0x0 DUP2 MSTORE POP SWAP1 JUMP JUMPDEST PUSH1 0x40 MLOAD DUP1 PUSH1 0x80 ADD PUSH1 0x40 MSTORE DUP1 PUSH1 0x4 SWAP1 PUSH1 0x20 DUP3 MUL DUP1 CALLDATASIZE DUP4 CALLDATACOPY DUP1 DUP3 ADD SWAP2 POP POP SWAP1 POP POP SWAP1 JUMP JUMPDEST PUSH1 0x40 MLOAD DUP1 PUSH1 0x20 ADD PUSH1 0x40 MSTORE DUP1 PUSH1 0x1 SWAP1 PUSH1 0x20 DUP3 MUL DUP1 CALLDATASIZE DUP4 CALLDATACOPY DUP1 DUP3 ADD SWAP2 POP POP SWAP1 POP POP SWAP1 JUMP JUMPDEST PUSH1 0x40 MLOAD DUP1 PUSH1 0x40 ADD PUSH1 0x40 MSTORE DUP1 PUSH1 0x2 SWAP1 PUSH1 0x20 DUP3 MUL DUP1 CALLDATASIZE DUP4 CALLDATACOPY DUP1 DUP3 ADD SWAP2 POP POP SWAP1 POP POP SWAP1 JUMP JUMPDEST PUSH1 0x0 DUP2 MLOAD SWAP1 POP PUSH2 0x1988 DUP2 PUSH2 0x2558 JUMP JUMPDEST SWAP3 SWAP2 POP POP JUMP JUMPDEST PUSH1 0x0 DUP1 DUP4 PUSH1 0x1F DUP5 ADD SLT PUSH2 0x19A4 JUMPI PUSH2 0x19A3 PUSH2 0x2482 JUMP JUMPDEST JUMPDEST DUP3 CALLDATALOAD SWAP1 POP PUSH8 0xFFFFFFFFFFFFFFFF DUP2 GT ISZERO PUSH2 0x19C1 JUMPI PUSH2 0x19C0 PUSH2 0x247D JUMP JUMPDEST JUMPDEST PUSH1 0x20 DUP4 ADD SWAP2 POP DUP4 PUSH1 0x1 DUP3 MUL DUP4 ADD GT ISZERO PUSH2 0x19DD JUMPI PUSH2 0x19DC PUSH2 0x2487 JUMP JUMPDEST JUMPDEST SWAP3 POP SWAP3 SWAP1 POP JUMP JUMPDEST PUSH1 0x0 DUP2 CALLDATALOAD SWAP1 POP PUSH2 0x19F3 DUP2 PUSH2 0x256F JUMP JUMPDEST SWAP3 SWAP2 POP POP JUMP JUMPDEST PUSH1 0x0 PUSH1 0x20 DUP3 DUP5 SUB SLT ISZERO PUSH2 0x1A0F JUMPI PUSH2 0x1A0E PUSH2 0x2491 JUMP JUMPDEST JUMPDEST PUSH1 0x0 PUSH2 0x1A1D DUP5 DUP3 DUP6 ADD PUSH2 0x1979 JUMP JUMPDEST SWAP2 POP POP SWAP3 SWAP2 POP POP JUMP JUMPDEST PUSH1 0x0 DUP1 PUSH1 0x0 DUP1 PUSH1 0x40 DUP6 DUP8 SUB SLT ISZERO PUSH2 0x1A40 JUMPI PUSH2 0x1A3F PUSH2 0x2491 JUMP JUMPDEST JUMPDEST PUSH1 0x0 DUP6 ADD CALLDATALOAD PUSH8 0xFFFFFFFFFFFFFFFF DUP2 GT ISZERO PUSH2 0x1A5E JUMPI PUSH2 0x1A5D PUSH2 0x248C JUMP JUMPDEST JUMPDEST PUSH2 0x1A6A DUP8 DUP3 DUP9 ADD PUSH2 0x198E JUMP JUMPDEST SWAP5 POP SWAP5 POP POP PUSH1 0x20 DUP6 ADD CALLDATALOAD PUSH8 0xFFFFFFFFFFFFFFFF DUP2 GT ISZERO PUSH2 0x1A8D JUMPI PUSH2 0x1A8C PUSH2 0x248C JUMP JUMPDEST JUMPDEST PUSH2 0x1A99 DUP8 DUP3 DUP9 ADD PUSH2 0x198E JUMP JUMPDEST SWAP3 POP SWAP3 POP POP SWAP3 SWAP6 SWAP2 SWAP5 POP SWAP3 POP JUMP JUMPDEST PUSH1 0x0 DUP1 PUSH1 0x0 DUP1 PUSH1 0x0 DUP1 PUSH1 0x60 DUP8 DUP10 SUB SLT ISZERO PUSH2 0x1AC4 JUMPI PUSH2 0x1AC3 PUSH2 0x2491 JUMP JUMPDEST JUMPDEST PUSH1 0x0 DUP8 ADD CALLDATALOAD PUSH8 0xFFFFFFFFFFFFFFFF DUP2 GT ISZERO PUSH2 0x1AE2 JUMPI PUSH2 0x1AE1 PUSH2 0x248C JUMP JUMPDEST JUMPDEST PUSH2 0x1AEE DUP10 DUP3 DUP11 ADD PUSH2 0x198E JUMP JUMPDEST SWAP7 POP SWAP7 POP POP PUSH1 0x20 DUP8 ADD CALLDATALOAD PUSH8 0xFFFFFFFFFFFFFFFF DUP2 GT ISZERO PUSH2 0x1B11 JUMPI PUSH2 0x1B10 PUSH2 0x248C JUMP JUMPDEST JUMPDEST PUSH2 0x1B1D DUP10 DUP3 DUP11 ADD PUSH2 0x198E JUMP JUMPDEST SWAP5 POP SWAP5 POP POP PUSH1 0x40 DUP8 ADD CALLDATALOAD PUSH8 0xFFFFFFFFFFFFFFFF DUP2 GT ISZERO PUSH2 0x1B40 JUMPI PUSH2 0x1B3F PUSH2 0x248C JUMP JUMPDEST JUMPDEST PUSH2 0x1B4C DUP10 DUP3 DUP11 ADD PUSH2 0x198E JUMP JUMPDEST SWAP3 POP SWAP3 POP POP SWAP3 SWAP6 POP SWAP3 SWAP6 POP SWAP3 SWAP6 JUMP JUMPDEST PUSH1 0x0 DUP1 PUSH1 0x0 DUP1 PUSH1 0x0 DUP1 PUSH1 0x0 DUP1 PUSH1 0x0 PUSH1 0xA0 DUP11 DUP13 SUB SLT ISZERO PUSH2 0x1B7D JUMPI PUSH2 0x1B7C PUSH2 0x2491 JUMP JUMPDEST JUMPDEST PUSH1 0x0 DUP11 ADD CALLDATALOAD PUSH8 0xFFFFFFFFFFFFFFFF DUP2 GT ISZERO PUSH2 0x1B9B JUMPI PUSH2 0x1B9A PUSH2 0x248C JUMP JUMPDEST JUMPDEST PUSH2 0x1BA7 DUP13 DUP3 DUP14 ADD PUSH2 0x198E JUMP JUMPDEST SWAP10 POP SWAP10 POP POP PUSH1 0x20 DUP11 ADD CALLDATALOAD PUSH8 0xFFFFFFFFFFFFFFFF DUP2 GT ISZERO PUSH2 0x1BCA JUMPI PUSH2 0x1BC9 PUSH2 0x248C JUMP JUMPDEST JUMPDEST PUSH2 0x1BD6 DUP13 DUP3 DUP14 ADD PUSH2 0x198E JUMP JUMPDEST SWAP8 POP SWAP8 POP POP PUSH1 0x40 DUP11 ADD CALLDATALOAD PUSH8 0xFFFFFFFFFFFFFFFF DUP2 GT ISZERO PUSH2 0x1BF9 JUMPI PUSH2 0x1BF8 PUSH2 0x248C JUMP JUMPDEST JUMPDEST PUSH2 0x1C05 DUP13 DUP3 DUP14 ADD PUSH2 0x198E JUMP JUMPDEST SWAP6 POP SWAP6 POP POP PUSH1 0x60 DUP11 ADD CALLDATALOAD PUSH8 0xFFFFFFFFFFFFFFFF DUP2 GT ISZERO PUSH2 0x1C28 JUMPI PUSH2 0x1C27 PUSH2 0x248C JUMP JUMPDEST JUMPDEST PUSH2 0x1C34 DUP13 DUP3 DUP14 ADD PUSH2 0x198E JUMP JUMPDEST SWAP4 POP SWAP4 POP POP PUSH1 0x80 PUSH2 0x1C47 DUP13 DUP3 DUP14 ADD PUSH2 0x19E4 JUMP JUMPDEST SWAP2 POP POP SWAP3 SWAP6 SWAP9 POP SWAP3 SWAP6 SWAP9 POP SWAP3 SWAP6 SWAP9 JUMP JUMPDEST PUSH1 0x0 DUP1 PUSH1 0x0 PUSH1 0x40 DUP5 DUP7 SUB SLT ISZERO PUSH2 0x1C70 JUMPI PUSH2 0x1C6F PUSH2 0x2491 JUMP JUMPDEST JUMPDEST PUSH1 0x0 DUP5 ADD CALLDATALOAD PUSH8 0xFFFFFFFFFFFFFFFF DUP2 GT ISZERO PUSH2 0x1C8E JUMPI PUSH2 0x1C8D PUSH2 0x248C JUMP JUMPDEST JUMPDEST PUSH2 0x1C9A DUP7 DUP3 DUP8 ADD PUSH2 0x198E JUMP JUMPDEST SWAP4 POP SWAP4 POP POP PUSH1 0x20 PUSH2 0x1CAD DUP7 DUP3 DUP8 ADD PUSH2 0x19E4 JUMP JUMPDEST SWAP2 POP POP SWAP3 POP SWAP3 POP SWAP3 JUMP JUMPDEST PUSH1 0x0 PUSH2 0x1CC3 DUP4 DUP4 PUSH2 0x1E3A JUMP JUMPDEST PUSH1 0x20 DUP4 ADD SWAP1 POP SWAP3 SWAP2 POP POP JUMP JUMPDEST PUSH2 0x1CD8 DUP2 PUSH2 0x2009 JUMP JUMPDEST PUSH2 0x1CE2 DUP2 DUP5 PUSH2 0x202C JUMP JUMPDEST SWAP3 POP PUSH2 0x1CED DUP3 PUSH2 0x1FFF JUMP JUMPDEST DUP1 PUSH1 0x0 JUMPDEST DUP4 DUP2 LT ISZERO PUSH2 0x1D1E JUMPI DUP2 MLOAD PUSH2 0x1D05 DUP8 DUP3 PUSH2 0x1CB7 JUMP JUMPDEST SWAP7 POP PUSH2 0x1D10 DUP4 PUSH2 0x201F JUMP JUMPDEST SWAP3 POP POP PUSH1 0x1 DUP2 ADD SWAP1 POP PUSH2 0x1CF1 JUMP JUMPDEST POP POP POP POP POP POP JUMP JUMPDEST PUSH2 0x1D2F DUP2 PUSH2 0x22EA JUMP JUMPDEST DUP3 MSTORE POP POP JUMP JUMPDEST PUSH1 0x0 PUSH2 0x1D40 DUP3 PUSH2 0x2014 JUMP JUMPDEST PUSH2 0x1D4A DUP2 DUP6 PUSH2 0x2037 JUMP JUMPDEST SWAP4 POP PUSH2 0x1D5A DUP2 DUP6 PUSH1 0x20 DUP7 ADD PUSH2 0x230A JUMP JUMPDEST PUSH2 0x1D63 DUP2 PUSH2 0x2496 JUMP JUMPDEST DUP5 ADD SWAP2 POP POP SWAP3 SWAP2 POP POP JUMP JUMPDEST PUSH1 0x0 PUSH2 0x1D79 DUP3 PUSH2 0x2014 JUMP JUMPDEST PUSH2 0x1D83 DUP2 DUP6 PUSH2 0x2048 JUMP JUMPDEST SWAP4 POP PUSH2 0x1D93 DUP2 DUP6 PUSH1 0x20 DUP7 ADD PUSH2 0x230A JUMP JUMPDEST DUP1 DUP5 ADD SWAP2 POP POP SWAP3 SWAP2 POP POP JUMP JUMPDEST PUSH1 0x0 PUSH2 0x1DAC PUSH1 0x1D DUP4 PUSH2 0x2053 JUMP JUMPDEST SWAP2 POP PUSH2 0x1DB7 DUP3 PUSH2 0x24B4 JUMP JUMPDEST PUSH1 0x20 DUP3 ADD SWAP1 POP SWAP2 SWAP1 POP JUMP JUMPDEST PUSH1 0x0 PUSH2 0x1DCF PUSH1 0x19 DUP4 PUSH2 0x2053 JUMP JUMPDEST SWAP2 POP PUSH2 0x1DDA DUP3 PUSH2 0x24DD JUMP JUMPDEST PUSH1 0x20 DUP3 ADD SWAP1 POP SWAP2 SWAP1 POP JUMP JUMPDEST PUSH1 0x0 PUSH2 0x1DF2 PUSH1 0x11 DUP4 PUSH2 0x2053 JUMP JUMPDEST SWAP2 POP PUSH2 0x1DFD DUP3 PUSH2 0x2506 JUMP JUMPDEST PUSH1 0x20 DUP3 ADD SWAP1 POP SWAP2 SWAP1 POP JUMP JUMPDEST PUSH1 0x0 PUSH2 0x1E15 PUSH1 0x15 DUP4 PUSH2 0x2053 JUMP JUMPDEST SWAP2 POP PUSH2 0x1E20 DUP3 PUSH2 0x252F JUMP JUMPDEST PUSH1 0x20 DUP3 ADD SWAP1 POP SWAP2 SWAP1 POP JUMP JUMPDEST PUSH2 0x1E34 DUP2 PUSH2 0x2300 JUMP JUMPDEST DUP3 MSTORE POP POP JUMP JUMPDEST PUSH2 0x1E43 DUP2 PUSH2 0x2300 JUMP JUMPDEST DUP3 MSTORE POP POP JUMP JUMPDEST PUSH2 0x1E5A PUSH2 0x1E55 DUP3 PUSH2 0x2300 JUMP JUMPDEST PUSH2 0x2386 JUMP JUMPDEST DUP3 MSTORE POP POP JUMP JUMPDEST PUSH1 0x0 PUSH2 0x1E6C DUP3 DUP7 PUSH2 0x1CCF JUMP JUMPDEST PUSH1 0x40 DUP3 ADD SWAP2 POP PUSH2 0x1E7C DUP3 DUP6 PUSH2 0x1CCF JUMP JUMPDEST PUSH1 0x40 DUP3 ADD SWAP2 POP PUSH2 0x1E8C DUP3 DUP5 PUSH2 0x1D6E JUMP JUMPDEST SWAP2 POP DUP2 SWAP1 POP SWAP5 SWAP4 POP POP POP POP JUMP JUMPDEST PUSH1 0x0 PUSH2 0x1EA5 DUP3 DUP7 PUSH2 0x1CCF JUMP JUMPDEST PUSH1 0x40 DUP3 ADD SWAP2 POP PUSH2 0x1EB5 DUP3 DUP6 PUSH2 0x1CCF JUMP JUMPDEST PUSH1 0x40 DUP3 ADD SWAP2 POP PUSH2 0x1EC5 DUP3 DUP5 PUSH2 0x1E49 JUMP JUMPDEST PUSH1 0x20 DUP3 ADD SWAP2 POP DUP2 SWAP1 POP SWAP5 SWAP4 POP POP POP POP JUMP JUMPDEST PUSH1 0x0 PUSH2 0x1EE2 DUP3 DUP5 PUSH2 0x1D6E JUMP JUMPDEST SWAP2 POP DUP2 SWAP1 POP SWAP3 SWAP2 POP POP JUMP JUMPDEST PUSH1 0x0 PUSH2 0x1EF9 DUP3 DUP6 PUSH2 0x1E49 JUMP JUMPDEST PUSH1 0x20 DUP3 ADD SWAP2 POP PUSH2 0x1F09 DUP3 DUP5 PUSH2 0x1E49 JUMP JUMPDEST PUSH1 0x20 DUP3 ADD SWAP2 POP DUP2 SWAP1 POP SWAP4 SWAP3 POP POP POP JUMP JUMPDEST PUSH1 0x0 PUSH1 0x20 DUP3 ADD SWAP1 POP PUSH2 0x1F2E PUSH1 0x0 DUP4 ADD DUP5 PUSH2 0x1D26 JUMP JUMPDEST SWAP3 SWAP2 POP POP JUMP JUMPDEST PUSH1 0x0 PUSH1 0x20 DUP3 ADD SWAP1 POP DUP2 DUP2 SUB PUSH1 0x0 DUP4 ADD MSTORE PUSH2 0x1F4E DUP2 DUP5 PUSH2 0x1D35 JUMP JUMPDEST SWAP1 POP SWAP3 SWAP2 POP POP JUMP JUMPDEST PUSH1 0x0 PUSH1 0x20 DUP3 ADD SWAP1 POP DUP2 DUP2 SUB PUSH1 0x0 DUP4 ADD MSTORE PUSH2 0x1F6F DUP2 PUSH2 0x1D9F JUMP JUMPDEST SWAP1 POP SWAP2 SWAP1 POP JUMP JUMPDEST PUSH1 0x0 PUSH1 0x20 DUP3 ADD SWAP1 POP DUP2 DUP2 SUB PUSH1 0x0 DUP4 ADD MSTORE PUSH2 0x1F8F DUP2 PUSH2 0x1DC2 JUMP JUMPDEST SWAP1 POP SWAP2 SWAP1 POP JUMP JUMPDEST PUSH1 0x0 PUSH1 0x20 DUP3 ADD SWAP1 POP DUP2 DUP2 SUB PUSH1 0x0 DUP4 ADD MSTORE PUSH2 0x1FAF DUP2 PUSH2 0x1DE5 JUMP JUMPDEST SWAP1 POP SWAP2 SWAP1 POP JUMP JUMPDEST PUSH1 0x0 PUSH1 0x20 DUP3 ADD SWAP1 POP DUP2 DUP2 SUB PUSH1 0x0 DUP4 ADD MSTORE PUSH2 0x1FCF DUP2 PUSH2 0x1E08 JUMP JUMPDEST SWAP1 POP SWAP2 SWAP1 POP JUMP JUMPDEST PUSH1 0x0 PUSH1 0x40 DUP3 ADD SWAP1 POP PUSH2 0x1FEB PUSH1 0x0 DUP4 ADD DUP6 PUSH2 0x1E2B JUMP JUMPDEST PUSH2 0x1FF8 PUSH1 0x20 DUP4 ADD DUP5 PUSH2 0x1E2B JUMP JUMPDEST SWAP4 SWAP3 POP POP POP JUMP JUMPDEST PUSH1 0x0 DUP2 SWAP1 POP SWAP2 SWAP1 POP JUMP JUMPDEST PUSH1 0x0 PUSH1 0x2 SWAP1 POP SWAP2 SWAP1 POP JUMP JUMPDEST PUSH1 0x0 DUP2 MLOAD SWAP1 POP SWAP2 SWAP1 POP JUMP JUMPDEST PUSH1 0x0 PUSH1 0x20 DUP3 ADD SWAP1 POP SWAP2 SWAP1 POP JUMP JUMPDEST PUSH1 0x0 DUP2 SWAP1 POP SWAP3 SWAP2 POP POP JUMP JUMPDEST PUSH1 0x0 DUP3 DUP3 MSTORE PUSH1 0x20 DUP3 ADD SWAP1 POP SWAP3 SWAP2 POP POP JUMP JUMPDEST PUSH1 0x0 DUP2 SWAP1 POP SWAP3 SWAP2 POP POP JUMP JUMPDEST PUSH1 0x0 DUP3 DUP3 MSTORE PUSH1 0x20 DUP3 ADD SWAP1 POP SWAP3 SWAP2 POP POP JUMP JUMPDEST PUSH1 0x0 PUSH2 0x206F DUP3 PUSH2 0x2300 JUMP JUMPDEST SWAP2 POP PUSH2 0x207A DUP4 PUSH2 0x2300 JUMP JUMPDEST SWAP3 POP DUP3 PUSH32 0xFFFFFFFFFFFFFFFFFFFFFFFFFFFFFFFFFFFFFFFFFFFFFFFFFFFFFFFFFFFFFFFF SUB DUP3 GT ISZERO PUSH2 0x20AF JUMPI PUSH2 0x20AE PUSH2 0x23C1 JUMP JUMPDEST JUMPDEST DUP3 DUP3 ADD SWAP1 POP SWAP3 SWAP2 POP POP JUMP JUMPDEST PUSH1 0x0 PUSH2 0x20C5 DUP3 PUSH2 0x2300 JUMP JUMPDEST SWAP2 POP PUSH2 0x20D0 DUP4 PUSH2 0x2300 JUMP JUMPDEST SWAP3 POP DUP3 PUSH2 0x20E0 JUMPI PUSH2 0x20DF PUSH2 0x23F0 JUMP JUMPDEST JUMPDEST DUP3 DUP3 DIV SWAP1 POP SWAP3 SWAP2 POP POP JUMP JUMPDEST PUSH1 0x0 DUP1 DUP3 SWAP2 POP DUP4 SWAP1 POP JUMPDEST PUSH1 0x1 DUP6 GT ISZERO PUSH2 0x2135 JUMPI DUP1 DUP7 DIV DUP2 GT ISZERO PUSH2 0x2111 JUMPI PUSH2 0x2110 PUSH2 0x23C1 JUMP JUMPDEST JUMPDEST PUSH1 0x1 DUP6 AND ISZERO PUSH2 0x2120 JUMPI DUP1 DUP3 MUL SWAP2 POP JUMPDEST DUP1 DUP2 MUL SWAP1 POP PUSH2 0x212E DUP6 PUSH2 0x24A7 JUMP JUMPDEST SWAP5 POP PUSH2 0x20F5 JUMP JUMPDEST SWAP5 POP SWAP5 SWAP3 POP POP POP JUMP JUMPDEST PUSH1 0x0 PUSH2 0x2149 DUP3 PUSH2 0x2300 JUMP JUMPDEST SWAP2 POP PUSH2 0x2154 DUP4 PUSH2 0x2300 JUMP JUMPDEST SWAP3 POP PUSH2 0x2181 PUSH32 0xFFFFFFFFFFFFFFFFFFFFFFFFFFFFFFFFFFFFFFFFFFFFFFFFFFFFFFFFFFFFFFFF DUP5 DUP5 PUSH2 0x2189 JUMP JUMPDEST SWAP1 POP SWAP3 SWAP2 POP POP JUMP JUMPDEST PUSH1 0x0 DUP3 PUSH2 0x2199 JUMPI PUSH1 0x1 SWAP1 POP PUSH2 0x2255 JUMP JUMPDEST DUP2 PUSH2 0x21A7 JUMPI PUSH1 0x0 SWAP1 POP PUSH2 0x2255 JUMP JUMPDEST DUP2 PUSH1 0x1 DUP2 EQ PUSH2 0x21BD JUMPI PUSH1 0x2 DUP2 EQ PUSH2 0x21C7 JUMPI PUSH2 0x21F6 JUMP JUMPDEST PUSH1 0x1 SWAP2 POP POP PUSH2 0x2255 JUMP JUMPDEST PUSH1 0xFF DUP5 GT ISZERO PUSH2 0x21D9 JUMPI PUSH2 0x21D8 PUSH2 0x23C1 JUMP JUMPDEST JUMPDEST DUP4 PUSH1 0x2 EXP SWAP2 POP DUP5 DUP3 GT ISZERO PUSH2 0x21F0 JUMPI PUSH2 0x21EF PUSH2 0x23C1 JUMP JUMPDEST JUMPDEST POP PUSH2 0x2255 JUMP JUMPDEST POP PUSH1 0x20 DUP4 LT PUSH2 0x133 DUP4 LT AND PUSH1 0x4E DUP5 LT PUSH1 0xB DUP5 LT AND OR ISZERO PUSH2 0x222B JUMPI DUP3 DUP3 EXP SWAP1 POP DUP4 DUP2 GT ISZERO PUSH2 0x2226 JUMPI PUSH2 0x2225 PUSH2 0x23C1 JUMP JUMPDEST JUMPDEST PUSH2 0x2255 JUMP JUMPDEST PUSH2 0x2238 DUP5 DUP5 DUP5 PUSH1 0x1 PUSH2 0x20EB JUMP JUMPDEST SWAP3 POP SWAP1 POP DUP2 DUP5 DIV DUP2 GT ISZERO PUSH2 0x224F JUMPI PUSH2 0x224E PUSH2 0x23C1 JUMP JUMPDEST JUMPDEST DUP2 DUP2 MUL SWAP1 POP JUMPDEST SWAP4 SWAP3 POP POP POP JUMP JUMPDEST PUSH1 0x0 PUSH2 0x2267 DUP3 PUSH2 0x2300 JUMP JUMPDEST SWAP2 POP PUSH2 0x2272 DUP4 PUSH2 0x2300 JUMP JUMPDEST SWAP3 POP DUP2 PUSH32 0xFFFFFFFFFFFFFFFFFFFFFFFFFFFFFFFFFFFFFFFFFFFFFFFFFFFFFFFFFFFFFFFF DIV DUP4 GT DUP3 ISZERO ISZERO AND ISZERO PUSH2 0x22AB JUMPI PUSH2 0x22AA PUSH2 0x23C1 JUMP JUMPDEST JUMPDEST DUP3 DUP3 MUL SWAP1 POP SWAP3 SWAP2 POP POP JUMP JUMPDEST PUSH1 0x0 PUSH2 0x22C1 DUP3 PUSH2 0x2300 JUMP JUMPDEST SWAP2 POP PUSH2 0x22CC DUP4 PUSH2 0x2300 JUMP JUMPDEST SWAP3 POP DUP3 DUP3 LT ISZERO PUSH2 0x22DF JUMPI PUSH2 0x22DE PUSH2 0x23C1 JUMP JUMPDEST JUMPDEST DUP3 DUP3 SUB SWAP1 POP SWAP3 SWAP2 POP POP JUMP JUMPDEST PUSH1 0x0 DUP2 ISZERO ISZERO SWAP1 POP SWAP2 SWAP1 POP JUMP JUMPDEST PUSH1 0x0 DUP2 SWAP1 POP SWAP2 SWAP1 POP JUMP JUMPDEST PUSH1 0x0 DUP2 SWAP1 POP SWAP2 SWAP1 POP JUMP JUMPDEST PUSH1 0x0 JUMPDEST DUP4 DUP2 LT ISZERO PUSH2 0x2328 JUMPI DUP1 DUP3 ADD MLOAD DUP2 DUP5 ADD MSTORE PUSH1 0x20 DUP2 ADD SWAP1 POP PUSH2 0x230D JUMP JUMPDEST DUP4 DUP2 GT ISZERO PUSH2 0x2337 JUMPI PUSH1 0x0 DUP5 DUP5 ADD MSTORE JUMPDEST POP POP POP POP JUMP JUMPDEST PUSH1 0x0 PUSH2 0x2348 DUP3 PUSH2 0x2300 JUMP JUMPDEST SWAP2 POP PUSH32 0xFFFFFFFFFFFFFFFFFFFFFFFFFFFFFFFFFFFFFFFFFFFFFFFFFFFFFFFFFFFFFFFF DUP3 EQ ISZERO PUSH2 0x237B JUMPI PUSH2 0x237A PUSH2 0x23C1 JUMP JUMPDEST JUMPDEST PUSH1 0x1 DUP3 ADD SWAP1 POP SWAP2 SWAP1 POP JUMP JUMPDEST PUSH1 0x0 DUP2 SWAP1 POP SWAP2 SWAP1 POP JUMP JUMPDEST PUSH1 0x0 PUSH2 0x239B DUP3 PUSH2 0x2300 JUMP JUMPDEST SWAP2 POP PUSH2 0x23A6 DUP4 PUSH2 0x2300 JUMP JUMPDEST SWAP3 POP DUP3 PUSH2 0x23B6 JUMPI PUSH2 0x23B5 PUSH2 0x23F0 JUMP JUMPDEST JUMPDEST DUP3 DUP3 MOD SWAP1 POP SWAP3 SWAP2 POP POP JUMP JUMPDEST PUSH32 0x4E487B7100000000000000000000000000000000000000000000000000000000 PUSH1 0x0 MSTORE PUSH1 0x11 PUSH1 0x4 MSTORE PUSH1 0x24 PUSH1 0x0 REVERT JUMPDEST PUSH32 0x4E487B7100000000000000000000000000000000000000000000000000000000 PUSH1 0x0 MSTORE PUSH1 0x12 PUSH1 0x4 MSTORE PUSH1 0x24 PUSH1 0x0 REVERT JUMPDEST PUSH32 0x4E487B7100000000000000000000000000000000000000000000000000000000 PUSH1 0x0 MSTORE PUSH1 0x32 PUSH1 0x4 MSTORE PUSH1 0x24 PUSH1 0x0 REVERT JUMPDEST PUSH32 0x4E487B7100000000000000000000000000000000000000000000000000000000 PUSH1 0x0 MSTORE PUSH1 0x41 PUSH1 0x4 MSTORE PUSH1 0x24 PUSH1 0x0 REVERT JUMPDEST PUSH1 0x0 DUP1 REVERT JUMPDEST PUSH1 0x0 DUP1 REVERT JUMPDEST PUSH1 0x0 DUP1 REVERT JUMPDEST PUSH1 0x0 DUP1 REVERT JUMPDEST PUSH1 0x0 DUP1 REVERT JUMPDEST PUSH1 0x0 PUSH1 0x1F NOT PUSH1 0x1F DUP4 ADD AND SWAP1 POP SWAP2 SWAP1 POP JUMP JUMPDEST PUSH1 0x0 DUP2 PUSH1 0x1 SHR SWAP1 POP SWAP2 SWAP1 POP JUMP JUMPDEST PUSH32 0x4661696C656420746F2063616C63756C617465206C6567656E6472652E000000 PUSH1 0x0 DUP3 ADD MSTORE POP JUMP JUMPDEST PUSH32 0x50616972696E67206F7065726174696F6E206661696C65642E00000000000000 PUSH1 0x0 DUP3 ADD MSTORE POP JUMP JUMPDEST PUSH32 0x41646420706F696E7473206661696C6564000000000000000000000000000000 PUSH1 0x0 DUP3 ADD MSTORE POP JUMP JUMPDEST PUSH32 0x506F696E7420636F756E74206D69736D617463682E0000000000000000000000 PUSH1 0x0 DUP3 ADD MSTORE POP JUMP JUMPDEST PUSH2 0x2561 DUP2 PUSH2 0x22F6 JUMP JUMPDEST DUP2 EQ PUSH2 0x256C JUMPI PUSH1 0x0 DUP1 REVERT JUMPDEST POP JUMP JUMPDEST PUSH2 0x2578 DUP2 PUSH2 0x2300 JUMP JUMPDEST DUP2 EQ PUSH2 0x2583 JUMPI PUSH1 0x0 DUP1 REVERT JUMPDEST POP JUMP INVALID LOG2 PUSH5 0x6970667358 0x22 SLT KECCAK256 0xED DUP2 0xA5 DUP1 EXTCODECOPY 0x4E 0xDB 0xF 0xC1 0xBA XOR 0xB5 0xDF ADD LOG3 PUSH15 0xAD95DE20931FF80EEDD34F4884BB75 PUSH29 0x64736F6C63430008070033000000000000000000000000000000000000 "
		},
		"gasEstimates": {
			"creation": {
				"codeDepositCost": "1932000",
				"executionCost": "2041",
				"totalCost": "1934041"
			},
			"external": {
				"addOnCurveE1(bytes,bytes)": "infinite",
				"aggregatedPublicKey(bytes,bytes)": "infinite",
				"verified()": "2512",
				"verifyAggregatedHash(bytes,uint256)": "infinite",
				"verifyMultisignature(bytes,bytes,bytes,bytes,uint256)": "infinite",
				"verifySignature(bytes,bytes,bytes)": "infinite",
				"verifySignaturePoint(bytes,bytes,bytes)": "infinite"
			},
			"internal": {
				"decodeE1Point(bytes memory)": "infinite",
				"decodeE2Point(bytes memory)": "infinite"
			}
		},
		"methodIdentifiers": {
			"addOnCurveE1(bytes,bytes)": "557bb038",
			"aggregatedPublicKey(bytes,bytes)": "acae79de",
			"verified()": "bbb82d89",
			"verifyAggregatedHash(bytes,uint256)": "8674df8c",
			"verifyMultisignature(bytes,bytes,bytes,bytes,uint256)": "0bd95138",
			"verifySignature(bytes,bytes,bytes)": "f6e548e9",
			"verifySignaturePoint(bytes,bytes,bytes)": "501145f9"
		}
	},
	"abi": [
		{
			"inputs": [
				{
					"internalType": "bytes",
					"name": "_p1",
					"type": "bytes"
				},
				{
					"internalType": "bytes",
					"name": "_p2",
					"type": "bytes"
				}
			],
			"name": "addOnCurveE1",
			"outputs": [
				{
					"internalType": "bytes",
					"name": "",
					"type": "bytes"
				}
			],
			"stateMutability": "view",
			"type": "function"
		},
		{
			"inputs": [
				{
					"internalType": "bytes",
					"name": "_publicKey1",
					"type": "bytes"
				},
				{
					"internalType": "bytes",
					"name": "_publicKey2",
					"type": "bytes"
				}
			],
			"name": "aggregatedPublicKey",
			"outputs": [],
			"stateMutability": "view",
			"type": "function"
		},
		{
			"inputs": [],
			"name": "verified",
			"outputs": [
				{
					"internalType": "bool",
					"name": "",
					"type": "bool"
				}
			],
			"stateMutability": "view",
			"type": "function"
		},
		{
			"inputs": [
				{
					"internalType": "bytes",
					"name": "_p",
					"type": "bytes"
				},
				{
					"internalType": "uint256",
					"name": "index",
					"type": "uint256"
				}
			],
			"name": "verifyAggregatedHash",
			"outputs": [
				{
					"internalType": "bytes",
					"name": "",
					"type": "bytes"
				}
			],
			"stateMutability": "view",
			"type": "function"
		},
		{
			"inputs": [
				{
					"internalType": "bytes",
					"name": "_aggregatedPublicKey",
					"type": "bytes"
				},
				{
					"internalType": "bytes",
					"name": "_partPublicKey",
					"type": "bytes"
				},
				{
					"internalType": "bytes",
					"name": "_message",
					"type": "bytes"
				},
				{
					"internalType": "bytes",
					"name": "_partSignature",
					"type": "bytes"
				},
				{
					"internalType": "uint256",
					"name": "_signersBitmask",
					"type": "uint256"
				}
			],
			"name": "verifyMultisignature",
			"outputs": [],
			"stateMutability": "nonpayable",
			"type": "function"
		},
		{
			"inputs": [
				{
					"internalType": "bytes",
					"name": "_publicKey",
					"type": "bytes"
				},
				{
					"internalType": "bytes",
					"name": "_message",
					"type": "bytes"
				},
				{
					"internalType": "bytes",
					"name": "_signature",
					"type": "bytes"
				}
			],
			"name": "verifySignature",
			"outputs": [],
			"stateMutability": "nonpayable",
			"type": "function"
		},
		{
			"inputs": [
				{
					"internalType": "bytes",
					"name": "_publicKey",
					"type": "bytes"
				},
				{
					"internalType": "bytes",
					"name": "_message",
					"type": "bytes"
				},
				{
					"internalType": "bytes",
					"name": "_signature",
					"type": "bytes"
				}
			],
			"name": "verifySignaturePoint",
			"outputs": [],
			"stateMutability": "nonpayable",
			"type": "function"
		}
	]
}